{
  "address": "0x51fFDb0EE7104019Bc3e63C7914aFc2095a06504",
  "abi": [
    {
      "inputs": [
        {
          "internalType": "address",
          "name": "erc1155_",
          "type": "address"
        },
        {
          "internalType": "address",
          "name": "mailbox_",
          "type": "address"
        }
      ],
      "stateMutability": "nonpayable",
      "type": "constructor"
    },
    {
      "inputs": [],
      "name": "EmptyArrays",
      "type": "error"
    },
    {
      "inputs": [
        {
          "internalType": "address",
          "name": "from",
          "type": "address"
        },
        {
          "internalType": "uint128",
          "name": "tokenId",
          "type": "uint128"
        },
        {
          "internalType": "uint128",
          "name": "amount",
          "type": "uint128"
        }
      ],
      "name": "InsufficientBalance",
      "type": "error"
    },
    {
      "inputs": [
        {
          "internalType": "uint128",
          "name": "tokenIdLength",
          "type": "uint128"
        },
        {
          "internalType": "uint128",
          "name": "amountLength",
          "type": "uint128"
        }
      ],
      "name": "TokenTransferLengthMismatch",
      "type": "error"
    },
    {
      "inputs": [
        {
          "internalType": "uint256",
          "name": "value",
          "type": "uint256"
        }
      ],
      "name": "TokenTransferValueTooLarge",
      "type": "error"
    },
    {
      "inputs": [],
      "name": "UseERC1155BalanceOf",
      "type": "error"
    },
    {
      "inputs": [],
      "name": "ZeroAmount",
      "type": "error"
    },
    {
      "anonymous": false,
      "inputs": [
        {
          "indexed": false,
          "internalType": "uint32",
          "name": "domain",
          "type": "uint32"
        },
        {
          "indexed": false,
          "internalType": "uint256",
          "name": "gas",
          "type": "uint256"
        }
      ],
      "name": "GasSet",
      "type": "event"
    },
    {
      "anonymous": false,
      "inputs": [
        {
          "indexed": false,
          "internalType": "address",
          "name": "_hook",
          "type": "address"
        }
      ],
      "name": "HookSet",
      "type": "event"
    },
    {
      "anonymous": false,
      "inputs": [
        {
          "indexed": false,
          "internalType": "uint8",
          "name": "version",
          "type": "uint8"
        }
      ],
      "name": "Initialized",
      "type": "event"
    },
    {
      "anonymous": false,
      "inputs": [
        {
          "indexed": false,
          "internalType": "address",
          "name": "_ism",
          "type": "address"
        }
      ],
      "name": "IsmSet",
      "type": "event"
    },
    {
      "anonymous": false,
      "inputs": [
        {
          "indexed": true,
          "internalType": "address",
          "name": "previousOwner",
          "type": "address"
        },
        {
          "indexed": true,
          "internalType": "address",
          "name": "newOwner",
          "type": "address"
        }
      ],
      "name": "OwnershipTransferred",
      "type": "event"
    },
    {
      "anonymous": false,
      "inputs": [
        {
          "indexed": true,
          "internalType": "uint32",
          "name": "origin",
          "type": "uint32"
        },
        {
          "indexed": true,
          "internalType": "bytes32",
          "name": "recipient",
          "type": "bytes32"
        },
        {
          "indexed": false,
          "internalType": "uint256",
          "name": "amount",
          "type": "uint256"
        }
      ],
      "name": "ReceivedTransferRemote",
      "type": "event"
    },
    {
      "anonymous": false,
      "inputs": [
        {
          "indexed": true,
          "internalType": "uint32",
          "name": "destination",
          "type": "uint32"
        },
        {
          "indexed": true,
          "internalType": "bytes32",
          "name": "recipient",
          "type": "bytes32"
        },
        {
          "indexed": true,
          "internalType": "uint128",
          "name": "tokenId",
          "type": "uint128"
        },
        {
          "indexed": false,
          "internalType": "uint128",
          "name": "amount",
          "type": "uint128"
        }
      ],
      "name": "RemoteTransfer",
      "type": "event"
    },
    {
      "anonymous": false,
      "inputs": [
        {
          "indexed": true,
          "internalType": "uint32",
          "name": "destination",
          "type": "uint32"
        },
        {
          "indexed": true,
          "internalType": "bytes32",
          "name": "recipient",
          "type": "bytes32"
        },
        {
          "indexed": false,
          "internalType": "uint256",
          "name": "amount",
          "type": "uint256"
        }
      ],
      "name": "SentTransferRemote",
      "type": "event"
    },
    {
      "inputs": [],
      "name": "PACKAGE_VERSION",
      "outputs": [
        {
          "internalType": "string",
          "name": "",
          "type": "string"
        }
      ],
      "stateMutability": "view",
      "type": "function"
    },
    {
      "inputs": [
        {
          "internalType": "address",
          "name": "account_",
          "type": "address"
        },
        {
          "internalType": "uint256",
          "name": "id_",
          "type": "uint256"
        }
      ],
      "name": "balanceOf",
      "outputs": [
        {
          "internalType": "uint256",
          "name": "",
          "type": "uint256"
        }
      ],
      "stateMutability": "view",
      "type": "function"
    },
    {
      "inputs": [
        {
          "internalType": "address",
          "name": "",
          "type": "address"
        }
      ],
      "name": "balanceOf",
      "outputs": [
        {
          "internalType": "uint256",
          "name": "",
          "type": "uint256"
        }
      ],
      "stateMutability": "pure",
      "type": "function"
    },
    {
      "inputs": [
        {
          "internalType": "uint32",
          "name": "",
          "type": "uint32"
        }
      ],
      "name": "destinationGas",
      "outputs": [
        {
          "internalType": "uint256",
          "name": "",
          "type": "uint256"
        }
      ],
      "stateMutability": "view",
      "type": "function"
    },
    {
      "inputs": [],
      "name": "domains",
      "outputs": [
        {
          "internalType": "uint32[]",
          "name": "",
          "type": "uint32[]"
        }
      ],
      "stateMutability": "view",
      "type": "function"
    },
    {
      "inputs": [
        {
          "internalType": "uint32",
          "name": "_domain",
          "type": "uint32"
        },
        {
          "internalType": "bytes32",
          "name": "_router",
          "type": "bytes32"
        }
      ],
      "name": "enrollRemoteRouter",
      "outputs": [],
      "stateMutability": "nonpayable",
      "type": "function"
    },
    {
      "inputs": [
        {
          "internalType": "uint32[]",
          "name": "_domains",
          "type": "uint32[]"
        },
        {
          "internalType": "bytes32[]",
          "name": "_addresses",
          "type": "bytes32[]"
        }
      ],
      "name": "enrollRemoteRouters",
      "outputs": [],
      "stateMutability": "nonpayable",
      "type": "function"
    },
    {
      "inputs": [
        {
          "internalType": "uint32",
          "name": "_origin",
          "type": "uint32"
        },
        {
          "internalType": "bytes32",
          "name": "_sender",
          "type": "bytes32"
        },
        {
          "internalType": "bytes",
          "name": "_message",
          "type": "bytes"
        }
      ],
      "name": "handle",
      "outputs": [],
      "stateMutability": "payable",
      "type": "function"
    },
    {
      "inputs": [],
      "name": "hook",
      "outputs": [
        {
          "internalType": "contract IPostDispatchHook",
          "name": "",
          "type": "address"
        }
      ],
      "stateMutability": "view",
      "type": "function"
    },
    {
      "inputs": [
        {
          "internalType": "address",
          "name": "hook_",
          "type": "address"
        },
        {
          "internalType": "address",
          "name": "interchainSecurityModule_",
          "type": "address"
        },
        {
          "internalType": "address",
          "name": "owner_",
          "type": "address"
        }
      ],
      "name": "initialize",
      "outputs": [],
      "stateMutability": "nonpayable",
      "type": "function"
    },
    {
      "inputs": [],
      "name": "interchainSecurityModule",
      "outputs": [
        {
          "internalType": "contract IInterchainSecurityModule",
          "name": "",
          "type": "address"
        }
      ],
      "stateMutability": "view",
      "type": "function"
    },
    {
      "inputs": [],
      "name": "localDomain",
      "outputs": [
        {
          "internalType": "uint32",
          "name": "",
          "type": "uint32"
        }
      ],
      "stateMutability": "view",
      "type": "function"
    },
    {
      "inputs": [],
      "name": "mailbox",
      "outputs": [
        {
          "internalType": "contract IMailbox",
          "name": "",
          "type": "address"
        }
      ],
      "stateMutability": "view",
      "type": "function"
    },
    {
      "inputs": [],
      "name": "name",
      "outputs": [
        {
          "internalType": "string",
          "name": "",
          "type": "string"
        }
      ],
      "stateMutability": "view",
      "type": "function"
    },
    {
      "inputs": [
        {
          "internalType": "address",
          "name": "",
          "type": "address"
        },
        {
          "internalType": "address",
          "name": "",
          "type": "address"
        },
        {
          "internalType": "uint256[]",
          "name": "",
          "type": "uint256[]"
        },
        {
          "internalType": "uint256[]",
          "name": "",
          "type": "uint256[]"
        },
        {
          "internalType": "bytes",
          "name": "",
          "type": "bytes"
        }
      ],
      "name": "onERC1155BatchReceived",
      "outputs": [
        {
          "internalType": "bytes4",
          "name": "",
          "type": "bytes4"
        }
      ],
      "stateMutability": "nonpayable",
      "type": "function"
    },
    {
      "inputs": [
        {
          "internalType": "address",
          "name": "",
          "type": "address"
        },
        {
          "internalType": "address",
          "name": "",
          "type": "address"
        },
        {
          "internalType": "uint256",
          "name": "",
          "type": "uint256"
        },
        {
          "internalType": "uint256",
          "name": "",
          "type": "uint256"
        },
        {
          "internalType": "bytes",
          "name": "",
          "type": "bytes"
        }
      ],
      "name": "onERC1155Received",
      "outputs": [
        {
          "internalType": "bytes4",
          "name": "",
          "type": "bytes4"
        }
      ],
      "stateMutability": "nonpayable",
      "type": "function"
    },
    {
      "inputs": [],
      "name": "owner",
      "outputs": [
        {
          "internalType": "address",
          "name": "",
          "type": "address"
        }
      ],
      "stateMutability": "view",
      "type": "function"
    },
    {
      "inputs": [
        {
          "internalType": "uint32",
          "name": "_destinationDomain",
          "type": "uint32"
        }
      ],
      "name": "quoteGasPayment",
      "outputs": [
        {
          "internalType": "uint256",
          "name": "",
          "type": "uint256"
        }
      ],
      "stateMutability": "view",
      "type": "function"
    },
    {
      "inputs": [],
      "name": "renounceOwnership",
      "outputs": [],
      "stateMutability": "nonpayable",
      "type": "function"
    },
    {
      "inputs": [
        {
          "internalType": "uint32",
          "name": "_domain",
          "type": "uint32"
        }
      ],
      "name": "routers",
      "outputs": [
        {
          "internalType": "bytes32",
          "name": "",
          "type": "bytes32"
        }
      ],
      "stateMutability": "view",
      "type": "function"
    },
    {
      "inputs": [
        {
          "internalType": "uint32",
          "name": "domain",
          "type": "uint32"
        },
        {
          "internalType": "uint256",
          "name": "gas",
          "type": "uint256"
        }
      ],
      "name": "setDestinationGas",
      "outputs": [],
      "stateMutability": "nonpayable",
      "type": "function"
    },
    {
      "inputs": [
        {
          "components": [
            {
              "internalType": "uint32",
              "name": "domain",
              "type": "uint32"
            },
            {
              "internalType": "uint256",
              "name": "gas",
              "type": "uint256"
            }
          ],
          "internalType": "struct GasRouter.GasRouterConfig[]",
          "name": "gasConfigs",
          "type": "tuple[]"
        }
      ],
      "name": "setDestinationGas",
      "outputs": [],
      "stateMutability": "nonpayable",
      "type": "function"
    },
    {
      "inputs": [
        {
          "internalType": "address",
          "name": "_hook",
          "type": "address"
        }
      ],
      "name": "setHook",
      "outputs": [],
      "stateMutability": "nonpayable",
      "type": "function"
    },
    {
      "inputs": [
        {
          "internalType": "address",
          "name": "_module",
          "type": "address"
        }
      ],
      "name": "setInterchainSecurityModule",
      "outputs": [],
      "stateMutability": "nonpayable",
      "type": "function"
    },
    {
      "inputs": [
        {
          "internalType": "bytes4",
          "name": "interfaceId",
          "type": "bytes4"
        }
      ],
      "name": "supportsInterface",
      "outputs": [
        {
          "internalType": "bool",
          "name": "",
          "type": "bool"
        }
      ],
      "stateMutability": "view",
      "type": "function"
    },
    {
      "inputs": [],
      "name": "symbol",
      "outputs": [
        {
          "internalType": "string",
          "name": "",
          "type": "string"
        }
      ],
      "stateMutability": "view",
      "type": "function"
    },
    {
      "inputs": [
        {
          "internalType": "uint256",
          "name": "id_",
          "type": "uint256"
        }
      ],
      "name": "totalSupply",
      "outputs": [
        {
          "internalType": "uint256",
          "name": "",
          "type": "uint256"
        }
      ],
      "stateMutability": "view",
      "type": "function"
    },
    {
      "inputs": [
        {
          "internalType": "address",
          "name": "newOwner",
          "type": "address"
        }
      ],
      "name": "transferOwnership",
      "outputs": [],
      "stateMutability": "nonpayable",
      "type": "function"
    },
    {
      "inputs": [
        {
          "internalType": "uint32",
          "name": "_destination",
          "type": "uint32"
        },
        {
          "internalType": "bytes32",
          "name": "_recipient",
          "type": "bytes32"
        },
        {
          "internalType": "uint256",
          "name": "_amountOrId",
          "type": "uint256"
        },
        {
          "internalType": "bytes",
          "name": "_hookMetadata",
          "type": "bytes"
        },
        {
          "internalType": "address",
          "name": "_hook",
          "type": "address"
        }
      ],
      "name": "transferRemote",
      "outputs": [
        {
          "internalType": "bytes32",
          "name": "messageId",
          "type": "bytes32"
        }
      ],
      "stateMutability": "payable",
      "type": "function"
    },
    {
      "inputs": [
        {
          "internalType": "uint32",
          "name": "_destination",
          "type": "uint32"
        },
        {
          "internalType": "bytes32",
          "name": "_recipient",
          "type": "bytes32"
        },
        {
          "internalType": "uint256",
          "name": "_amountOrId",
          "type": "uint256"
        }
      ],
      "name": "transferRemote",
      "outputs": [
        {
          "internalType": "bytes32",
          "name": "messageId",
          "type": "bytes32"
        }
      ],
      "stateMutability": "payable",
      "type": "function"
    },
    {
      "inputs": [
        {
          "internalType": "uint32",
          "name": "destination_",
          "type": "uint32"
        },
        {
          "internalType": "bytes32",
          "name": "recipient_",
          "type": "bytes32"
        },
        {
          "internalType": "uint128",
          "name": "tokenId_",
          "type": "uint128"
        },
        {
          "internalType": "uint128",
          "name": "amount_",
          "type": "uint128"
        }
      ],
      "name": "transferRemote",
      "outputs": [
        {
          "internalType": "bytes32",
          "name": "",
          "type": "bytes32"
        }
      ],
      "stateMutability": "payable",
      "type": "function"
    },
    {
      "inputs": [
        {
          "internalType": "uint32",
          "name": "destination_",
          "type": "uint32"
        },
        {
          "internalType": "bytes32",
          "name": "recipient_",
          "type": "bytes32"
        },
        {
          "internalType": "uint128[]",
          "name": "tokenIds_",
          "type": "uint128[]"
        },
        {
          "internalType": "uint128[]",
          "name": "amounts_",
          "type": "uint128[]"
        }
      ],
      "name": "transferRemoteBatch",
      "outputs": [
        {
          "internalType": "uint128[]",
          "name": "remainingIds",
          "type": "uint128[]"
        },
        {
          "internalType": "uint128[]",
          "name": "remainingAmounts",
          "type": "uint128[]"
        }
      ],
      "stateMutability": "payable",
      "type": "function"
    },
    {
      "inputs": [
        {
          "internalType": "uint32",
          "name": "_domain",
          "type": "uint32"
        }
      ],
      "name": "unenrollRemoteRouter",
      "outputs": [],
      "stateMutability": "nonpayable",
      "type": "function"
    },
    {
      "inputs": [
        {
          "internalType": "uint32[]",
          "name": "_domains",
          "type": "uint32[]"
        }
      ],
      "name": "unenrollRemoteRouters",
      "outputs": [],
      "stateMutability": "nonpayable",
      "type": "function"
    },
    {
      "inputs": [
        {
          "internalType": "uint256",
          "name": "id_",
          "type": "uint256"
        }
      ],
      "name": "uri",
      "outputs": [
        {
          "internalType": "string",
          "name": "",
          "type": "string"
        }
      ],
      "stateMutability": "view",
      "type": "function"
    },
    {
      "inputs": [],
      "name": "wrappedToken",
      "outputs": [
        {
          "internalType": "contract IERC1155MetadataURI",
          "name": "",
          "type": "address"
        }
      ],
      "stateMutability": "view",
      "type": "function"
    }
  ],
  "transactionHash": "0x7122c1cbbdfd3927eee7e4a54afb456829e3d0216dc8f58da60edc9a9126750c",
  "args": [
    "0xec6Cb36a78a9368901CE2aB467Fca0A3179889b8",
    "0x598facE78a4302f11E3de0bee1894Da0b2Cb71F8"
  ],
  "numDeployments": 1,
  "solcInputHash": "80a19a1af2ed25e82a416c974ae8c229",
  "bytecode": "0x60e060405234801561001057600080fd5b5060405161328738038061328783398101604081905261002f91610197565b80808080806001600160a01b0381163b61008f5760405162461bcd60e51b815260206004820152601e60248201527f4d61696c626f78436c69656e743a20696e76616c6964206d61696c626f780000604482015260640160405180910390fd5b6001600160a01b03821660808190526040805163234d8e3d60e21b81529051638d3638f4916004808201926020929091908290030181865afa1580156100d9573d6000803e3d6000fd5b505050506040513d601f19601f820116820180604052508101906100fd91906101ca565b63ffffffff1660a05261010f33610129565b5050506001600160a01b0390931660c052506101f7915050565b603380546001600160a01b038381166001600160a01b0319831681179093556040519116919082907f8be0079c531659141344cd1fd0a4f28419497f9722a3daafe3b4186f6b6457e090600090a35050565b80516001600160a01b038116811461019257600080fd5b919050565b600080604083850312156101aa57600080fd5b6101b38361017b565b91506101c16020840161017b565b90509250929050565b6000602082840312156101dc57600080fd5b815163ffffffff811681146101f057600080fd5b9392505050565b60805160a05160c05161301b61026c60003960008181610587015281816107db015281816108bb01528181610a62015281816111aa015281816112ac01528181611c210152611ec4015260006104c201526000818161069901528181610c5601528181611cdb0152612015015261301b6000f3fe60806040526004361061024e5760003560e01c80638d3638f411610138578063c0c53b8b116100b0578063efae508a1161007f578063f23a6e6111610064578063f23a6e611461072e578063f2ed8c5314610773578063f2fde38b1461079357600080fd5b8063efae508a146106fb578063f158133f1461071b57600080fd5b8063c0c53b8b14610667578063d5438eae14610687578063de523cf3146106bb578063e9198bf9146106db57600080fd5b8063996c6cc311610107578063b49c53a7116100ec578063b49c53a7146105c9578063bc197c81146105e9578063bd85b0391461064757600080fd5b8063996c6cc314610575578063b1bd6436146105a957600080fd5b80638d3638f4146104b05780638da5cb5b146104f957806393c448471461051757806395d89b411461056057600080fd5b806351debffc116101cb578063715018a61161019a578063775313a11161017f578063775313a1146104385780637f5a7c7b1461046557806381b4e8b41461049d57600080fd5b8063715018a61461040357806371a15b381461041857600080fd5b806351debffc1461039c57806356d5d475146103af578063657e1fe2146103c257806370a08231146103e357600080fd5b80630e89341c116102225780633dfd3873116102075780633dfd38731461033a578063440df4f41461035a57806349d462ef1461037c57600080fd5b80630e89341c146102fa5780632ead72f61461031a57600080fd5b8062fdd58e1461025357806301ffc9a71461028657806306fdde03146102b65780630e72cc06146102d8575b600080fd5b34801561025f57600080fd5b5061027361026e3660046124d7565b6107b3565b6040519081526020015b60405180910390f35b34801561029257600080fd5b506102a66102a1366004612501565b610850565b604051901515815260200161027d565b3480156102c257600080fd5b506102cb6108b7565b60405161027d9190612582565b3480156102e457600080fd5b506102f86102f3366004612595565b610944565b005b34801561030657600080fd5b506102cb6103153660046125b0565b610a30565b34801561032657600080fd5b506102736103353660046125dd565b610ad9565b34801561034657600080fd5b506102f8610355366004612595565b610af8565b34801561036657600080fd5b5061036f610bd7565b60405161027d91906125f8565b34801561038857600080fd5b506102f8610397366004612641565b610be3565b6102736103aa36600461269f565b610bf9565b6102f86103bd366004612716565b610c4b565b6103d56103d03660046127b5565b610d7e565b60405161027d929190612889565b3480156103ef57600080fd5b506102736103fe366004612595565b6110f5565b34801561040f57600080fd5b506102f8611129565b34801561042457600080fd5b506102f86104333660046128ae565b61113d565b34801561044457600080fd5b506102736104533660046125dd565b60ca6020526000908152604090205481565b34801561047157600080fd5b50606554610485906001600160a01b031681565b6040516001600160a01b03909116815260200161027d565b6102736104ab3660046128f0565b611198565b3480156104bc57600080fd5b506104e47f000000000000000000000000000000000000000000000000000000000000000081565b60405163ffffffff909116815260200161027d565b34801561050557600080fd5b506033546001600160a01b0316610485565b34801561052357600080fd5b506102cb6040518060400160405280600581526020017f352e382e3300000000000000000000000000000000000000000000000000000081525081565b34801561056c57600080fd5b506102cb6111a6565b34801561058157600080fd5b506104857f000000000000000000000000000000000000000000000000000000000000000081565b3480156105b557600080fd5b506102f86105c4366004612923565b611206565b3480156105d557600080fd5b506102f86105e4366004612641565b61127c565b3480156105f557600080fd5b5061062e610604366004612ad8565b7fbc197c810000000000000000000000000000000000000000000000000000000095945050505050565b6040516001600160e01b0319909116815260200161027d565b34801561065357600080fd5b506102736106623660046125b0565b61128e565b34801561067357600080fd5b506102f8610682366004612b8e565b61131e565b34801561069357600080fd5b506104857f000000000000000000000000000000000000000000000000000000000000000081565b3480156106c757600080fd5b50606654610485906001600160a01b031681565b3480156106e757600080fd5b506102f86106f6366004612bd1565b611443565b34801561070757600080fd5b506102f86107163660046125dd565b611508565b610273610729366004612c4d565b61151c565b34801561073a57600080fd5b5061062e610749366004612c9a565b7ff23a6e610000000000000000000000000000000000000000000000000000000095945050505050565b34801561077f57600080fd5b5061027361078e3660046125dd565b611604565b34801561079f57600080fd5b506102f86107ae366004612595565b61162e565b604051627eeac760e11b81526001600160a01b038381166004830152602482018390526000917f00000000000000000000000000000000000000000000000000000000000000009091169062fdd58e90604401602060405180830381865afa158015610823573d6000803e3d6000fd5b505050506040513d601f19601f820116820180604052508101906108479190612cf3565b90505b92915050565b60006001600160e01b031982167f4e2312e000000000000000000000000000000000000000000000000000000000148061084a57507f01ffc9a7000000000000000000000000000000000000000000000000000000006001600160e01b031983161461084a565b60607f00000000000000000000000000000000000000000000000000000000000000006001600160a01b03166306fdde036040518163ffffffff1660e01b8152600401600060405180830381865afa158015610917573d6000803e3d6000fd5b505050506040513d6000823e601f3d908101601f1916820160405261093f9190810190612d0c565b905090565b806001600160a01b0381163b15158061096457506001600160a01b038116155b6109c55760405162461bcd60e51b815260206004820152602760248201527f4d61696c626f78436c69656e743a20696e76616c696420636f6e74726163742060448201526673657474696e6760c81b60648201526084015b60405180910390fd5b6109cd6116bb565b6066805473ffffffffffffffffffffffffffffffffffffffff19166001600160a01b0384169081179091556040519081527fc47cbcc588c67679e52261c45cc315e56562f8d0ccaba16facb9093ff9498799906020015b60405180910390a15050565b6040517f0e89341c000000000000000000000000000000000000000000000000000000008152600481018290526060907f00000000000000000000000000000000000000000000000000000000000000006001600160a01b031690630e89341c90602401600060405180830381865afa158015610ab1573d6000803e3d6000fd5b505050506040513d6000823e601f3d908101601f1916820160405261084a9190810190612d0c565b600080610af0609763ffffffff8086169061171516565b949350505050565b806001600160a01b0381163b151580610b1857506001600160a01b038116155b610b745760405162461bcd60e51b815260206004820152602760248201527f4d61696c626f78436c69656e743a20696e76616c696420636f6e74726163742060448201526673657474696e6760c81b60648201526084016109bc565b610b7c6116bb565b6065805473ffffffffffffffffffffffffffffffffffffffff19166001600160a01b0384169081179091556040519081527f4eab7b127c764308788622363ad3e9532de3dfba7845bd4f84c125a22544255a90602001610a24565b606061093f609761172e565b610beb6116bb565b610bf582826117df565b5050565b6000610c408787873488888080601f0160208091040260200160405190810160405280939291908181526020018383808284376000920191909152508a925061182d915050565b979650505050505050565b336001600160a01b037f00000000000000000000000000000000000000000000000000000000000000001614610ce95760405162461bcd60e51b815260206004820152602160248201527f4d61696c626f78436c69656e743a2073656e646572206e6f74206d61696c626f60448201527f780000000000000000000000000000000000000000000000000000000000000060648201526084016109bc565b6000610cf4856118a6565b9050838114610d6b5760405162461bcd60e51b815260206004820152602560248201527f456e726f6c6c656420726f7574657220646f6573206e6f74206d61746368207360448201527f656e64657200000000000000000000000000000000000000000000000000000060648201526084016109bc565b610d77858585856118f1565b5050505050565b606080841580610d8c575082155b15610dc3576040517fa600c81d00000000000000000000000000000000000000000000000000000000815260040160405180910390fd5b848314610e0f576040517f19608e390000000000000000000000000000000000000000000000000000000081526001600160801b038087166004830152841660248201526044016109bc565b60005b6001600160801b0381168611156110cf57306381b4e8b48a8a610e9c8b8b6001600160801b038816818110610e4957610e49612d7a565b9050602002016020810190610e5e9190612d90565b8a8a886001600160801b0316818110610e7957610e79612d7a565b9050602002016020810190610e8e9190612d90565b6001600160801b0316919050565b6040516001600160e01b031960e086901b16815263ffffffff939093166004840152602483019190915260448201526064016020604051808303816000875af1925050508015610f09575060408051601f3d908101601f19168201909252610f0691810190612cf3565b60015b6110bc576000610f198288612dc1565b9050806001600160801b031667ffffffffffffffff811115610f3d57610f3d61299a565b604051908082528060200260200182016040528015610f66578160200160208202803683370190505b509350806001600160801b031667ffffffffffffffff811115610f8b57610f8b61299a565b604051908082528060200260200182016040528015610fb4578160200160208202803683370190505b50925060005b816001600160801b0316816001600160801b031610156110b4578888610fe08386612de0565b6001600160801b0316818110610ff857610ff8612d7a565b905060200201602081019061100d9190612d90565b85826001600160801b03168151811061102857611028612d7a565b6001600160801b0390921660209283029190910190910152868661104c8386612de0565b6001600160801b031681811061106457611064612d7a565b90506020020160208101906110799190612d90565b84826001600160801b03168151811061109457611094612d7a565b6001600160801b0390921660209283029190910190910152600101610fba565b5050506110ea565b50806110c781612dff565b915050610e12565b50506040805160008082526020820190815281830190925291505b965096945050505050565b60006040517facab90bc00000000000000000000000000000000000000000000000000000000815260040160405180910390fd5b6111316116bb565b61113b600061197d565b565b6111456116bb565b8060005b818110156111925761118084848381811061116657611166612d7a565b905060200201602081019061117b91906125dd565b6119dc565b61118b600182612e2a565b9050611149565b50505050565b6000610af084848434611a17565b60607f00000000000000000000000000000000000000000000000000000000000000006001600160a01b03166395d89b416040518163ffffffff1660e01b8152600401600060405180830381865afa158015610917573d6000803e3d6000fd5b61120e6116bb565b60005b818110156112775761126583838381811061122e5761122e612d7a565b61124492602060409092020190810191506125dd565b84848481811061125657611256612d7a565b905060400201602001356117df565b611270600182612e2a565b9050611211565b505050565b6112846116bb565b610bf58282611a43565b604051627eeac760e11b8152306004820152602481018290526000907f00000000000000000000000000000000000000000000000000000000000000006001600160a01b03169062fdd58e90604401602060405180830381865afa1580156112fa573d6000803e3d6000fd5b505050506040513d601f19601f8201168201806040525081019061084a9190612cf3565b600054610100900460ff161580801561133e5750600054600160ff909116105b806113585750303b158015611358575060005460ff166001145b6113ca5760405162461bcd60e51b815260206004820152602e60248201527f496e697469616c697a61626c653a20636f6e747261637420697320616c72656160448201527f647920696e697469616c697a656400000000000000000000000000000000000060648201526084016109bc565b6000805460ff1916600117905580156113ed576000805461ff0019166101001790555b6113f8848484611a59565b8015611192576000805461ff0019169055604051600181527f7f26b83ff96e1f2b6a682f133852f6798a09c465da95921460cefb38474024989060200160405180910390a150505050565b61144b6116bb565b82811461149a5760405162461bcd60e51b815260206004820152600760248201527f216c656e6774680000000000000000000000000000000000000000000000000060448201526064016109bc565b8260005b81811015611500576114ee8686838181106114bb576114bb612d7a565b90506020020160208101906114d091906125dd565b8585848181106114e2576114e2612d7a565b90506020020135611a43565b6114f9600182612e2a565b905061149e565b505050505050565b6115106116bb565b611519816119dc565b50565b6040516001600160801b038281168083526000929091851690869063ffffffff8916907fe8c45fe7cd61890330c3bb96c75ffe3977a4502c8d2e1e1f02297db018aa087a9060200160405180910390a46040517f81b4e8b400000000000000000000000000000000000000000000000000000000815263ffffffff87166004820152602481018690526044810182905230906381b4e8b4906064016020604051808303816000875af11580156115d6573d6000803e3d6000fd5b505050506040513d601f19601f820116820180604052508101906115fa9190612cf3565b9695505050505050565b60408051602081019091526000808252606554909161084a918491906001600160a01b0316611ae7565b6116366116bb565b6001600160a01b0381166116b25760405162461bcd60e51b815260206004820152602660248201527f4f776e61626c653a206e6577206f776e657220697320746865207a65726f206160448201527f646472657373000000000000000000000000000000000000000000000000000060648201526084016109bc565b6115198161197d565b6033546001600160a01b0316331461113b5760405162461bcd60e51b815260206004820181905260248201527f4f776e61626c653a2063616c6c6572206973206e6f7420746865206f776e657260448201526064016109bc565b6000806117228484611afd565b915091505b9250929050565b6060600061173b83611b37565b9050805167ffffffffffffffff8111156117575761175761299a565b604051908082528060200260200182016040528015611780578160200160208202803683370190505b50915060005b81518110156117d8578181815181106117a1576117a1612d7a565b60200260200101518382815181106117bb576117bb612d7a565b63ffffffff90921660209283029190910190910152600101611786565b5050919050565b63ffffffff8216600081815260ca6020908152604091829020849055815192835282018390527fc3de732a98b24a2b5c6f67e8a7fb057ffc14046b83968a2c73e4148d2fba978b9101610a24565b60008061183986611bc8565b90506000611848888884611c9c565b90506118578987838888611ccb565b9250878963ffffffff167fd229aacb94204188fe8042965fa6b269c62dc5818b21238779ab64bdd17efeec8960405161189291815260200190565b60405180910390a350509695505050505050565b600080806118be609763ffffffff8087169061171516565b9150915081156118cf579392505050565b6118d884611d71565b60405162461bcd60e51b81526004016109bc9190612582565b60006118fd8383611da8565b9050600061190b8484611dc0565b905036600061191a8686611dd0565b9150915061193261192a85611de0565b848484611e62565b838863ffffffff167fba20947a325f450d232530e5f5fce293e7963499d5309a07cee84a269f2f15a68560405161196b91815260200190565b60405180910390a35050505050505050565b603380546001600160a01b0383811673ffffffffffffffffffffffffffffffffffffffff19831681179093556040519116919082907f8be0079c531659141344cd1fd0a4f28419497f9722a3daafe3b4186f6b6457e090600090a35050565b6119f0609763ffffffff80841690611f2a16565b6119f982611d71565b90610bf55760405162461bcd60e51b81526004016109bc9190612582565b6000611a3a85858585611a298a611f36565b6065546001600160a01b031661182d565b95945050505050565b610bf5609763ffffffff808516908490611f5816565b600054610100900460ff16611ac45760405162461bcd60e51b815260206004820152602b60248201527f496e697469616c697a61626c653a20636f6e7472616374206973206e6f74206960448201526a6e697469616c697a696e6760a81b60648201526084016109bc565b611acc611f63565b611ad583610af8565b611ade82610944565b6112778161197d565b6000610af08484611af787611f36565b85611fd6565b6000818152600283016020526040812054819080611b2c57611b1f858561206f565b9250600091506117279050565b600192509050611727565b60606000611b448361207b565b90508067ffffffffffffffff811115611b5f57611b5f61299a565b604051908082528060200260200182016040528015611b88578160200160208202803683370190505b50915060005b818110156117d857611ba08482612086565b60001c838281518110611bb557611bb5612d7a565b6020908102919091010152600101611b8e565b6060600080608084901c6001600160801b038516604051637921219560e11b81523360048201523060248201526001600160801b0380841660448301528216606482015260a06084820152600060a482015291935091507f00000000000000000000000000000000000000000000000000000000000000006001600160a01b03169063f242432a9060c401600060405180830381600087803b158015611c6d57600080fd5b505af1158015611c81573d6000803e3d6000fd5b50506040805160208101909152600081529695505050505050565b6060838383604051602001611cb393929190612e3d565b60405160208183030381529060405290509392505050565b600080611cd7876118a6565b90507f00000000000000000000000000000000000000000000000000000000000000006001600160a01b03166310b83dc08789848989896040518763ffffffff1660e01b8152600401611d2e959493929190612e6a565b60206040518083038185885af1158015611d4c573d6000803e3d6000fd5b50505050506040513d601f19601f82011682018060405250810190610c409190612cf3565b6060611d828263ffffffff16612092565b604051602001611d929190612ebd565b6040516020818303038152906040529050919050565b6000611db76020828486612f02565b61084791612f2c565b6000611db7604060208486612f02565b3660006117228360408187612f02565b60006001600160a01b03821115611e5e5760405162461bcd60e51b8152602060048201526024808201527f5479706543617374733a2062797465733332546f41646472657373206f76657260448201527f666c6f770000000000000000000000000000000000000000000000000000000060648201526084016109bc565b5090565b600080608085901c6001600160801b038616604051637921219560e11b81523060048201526001600160a01b0389811660248301526001600160801b0380851660448401528316606483015260a06084830152600060a48301529294509092507f00000000000000000000000000000000000000000000000000000000000000009091169063f242432a9060c401600060405180830381600087803b158015611f0a57600080fd5b505af1158015611f1e573d6000803e3d6000fd5b50505050505050505050565b60006108478383612132565b63ffffffff8116600090815260ca602052604090205460609061084a9061214f565b61119283838361216d565b600054610100900460ff16611fce5760405162461bcd60e51b815260206004820152602b60248201527f496e697469616c697a61626c653a20636f6e7472616374206973206e6f74206960448201526a6e697469616c697a696e6760a81b60648201526084016109bc565b61113b61218a565b600080611fe2866118a6565b6040517f81d2ea950000000000000000000000000000000000000000000000000000000081529091506001600160a01b037f000000000000000000000000000000000000000000000000000000000000000016906381d2ea959061205290899085908a908a908a90600401612e6a565b602060405180830381865afa1580156115d6573d6000803e3d6000fd5b600061084783836121fe565b600061084a82612216565b60006108478383612220565b6060600061209f8361224a565b600101905060008167ffffffffffffffff8111156120bf576120bf61299a565b6040519080825280601f01601f1916602001820160405280156120e9576020820181803683370190505b5090508181016020015b600019017f3031323334353637383961626364656600000000000000000000000000000000600a86061a8153600a85049450846120f357509392505050565b60008181526002830160205260408120819055610847838361232c565b606061084a6000833360405180602001604052806000815250612338565b60008281526002840160205260408120829055610af0848461236d565b600054610100900460ff166121f55760405162461bcd60e51b815260206004820152602b60248201527f496e697469616c697a61626c653a20636f6e7472616374206973206e6f74206960448201526a6e697469616c697a696e6760a81b60648201526084016109bc565b61113b3361197d565b60008181526001830160205260408120541515610847565b600061084a825490565b600082600001828154811061223757612237612d7a565b9060005260206000200154905092915050565b6000807a184f03e93ff9f4daa797ed6e38ed64bf6a1f0100000000000000008310612293577a184f03e93ff9f4daa797ed6e38ed64bf6a1f010000000000000000830492506040015b6d04ee2d6d415b85acef810000000083106122bf576d04ee2d6d415b85acef8100000000830492506020015b662386f26fc1000083106122dd57662386f26fc10000830492506010015b6305f5e10083106122f5576305f5e100830492506008015b612710831061230957612710830492506004015b6064831061231b576064830492506002015b600a831061084a5760010192915050565b60006108478383612379565b6060600185858585604051602001612354959493929190612f4a565b6040516020818303038152906040529050949350505050565b6000610847838361246c565b6000818152600183016020526040812054801561246257600061239d600183612fbc565b85549091506000906123b190600190612fbc565b90508181146124165760008660000182815481106123d1576123d1612d7a565b90600052602060002001549050808760000184815481106123f4576123f4612d7a565b6000918252602080832090910192909255918252600188019052604090208390555b855486908061242757612427612fcf565b60019003818190600052602060002001600090559055856001016000868152602001908152602001600020600090556001935050505061084a565b600091505061084a565b60008181526001830160205260408120546124b35750815460018181018455600084815260208082209093018490558454848252828601909352604090209190915561084a565b50600061084a565b80356001600160a01b03811681146124d257600080fd5b919050565b600080604083850312156124ea57600080fd5b6124f3836124bb565b946020939093013593505050565b60006020828403121561251357600080fd5b81356001600160e01b03198116811461252b57600080fd5b9392505050565b60005b8381101561254d578181015183820152602001612535565b50506000910152565b6000815180845261256e816020860160208601612532565b601f01601f19169290920160200192915050565b6020815260006108476020830184612556565b6000602082840312156125a757600080fd5b610847826124bb565b6000602082840312156125c257600080fd5b5035919050565b803563ffffffff811681146124d257600080fd5b6000602082840312156125ef57600080fd5b610847826125c9565b602080825282518282018190526000918401906040840190835b8181101561263657835163ffffffff16835260209384019390920191600101612612565b509095945050505050565b6000806040838503121561265457600080fd5b6124f3836125c9565b60008083601f84011261266f57600080fd5b50813567ffffffffffffffff81111561268757600080fd5b60208301915083602082850101111561172757600080fd5b60008060008060008060a087890312156126b857600080fd5b6126c1876125c9565b95506020870135945060408701359350606087013567ffffffffffffffff8111156126eb57600080fd5b6126f789828a0161265d565b909450925061270a9050608088016124bb565b90509295509295509295565b6000806000806060858703121561272c57600080fd5b612735856125c9565b935060208501359250604085013567ffffffffffffffff81111561275857600080fd5b6127648782880161265d565b95989497509550505050565b60008083601f84011261278257600080fd5b50813567ffffffffffffffff81111561279a57600080fd5b6020830191508360208260051b850101111561172757600080fd5b600080600080600080608087890312156127ce57600080fd5b6127d7876125c9565b955060208701359450604087013567ffffffffffffffff8111156127fa57600080fd5b61280689828a01612770565b909550935050606087013567ffffffffffffffff81111561282657600080fd5b61283289828a01612770565b979a9699509497509295939492505050565b600081518084526020840193506020830160005b8281101561287f5781516001600160801b0316865260209586019590910190600101612858565b5093949350505050565b60408152600061289c6040830185612844565b8281036020840152611a3a8185612844565b600080602083850312156128c157600080fd5b823567ffffffffffffffff8111156128d857600080fd5b6128e485828601612770565b90969095509350505050565b60008060006060848603121561290557600080fd5b61290e846125c9565b95602085013595506040909401359392505050565b6000806020838503121561293657600080fd5b823567ffffffffffffffff81111561294d57600080fd5b8301601f8101851361295e57600080fd5b803567ffffffffffffffff81111561297557600080fd5b8560208260061b840101111561298a57600080fd5b6020919091019590945092505050565b634e487b7160e01b600052604160045260246000fd5b604051601f8201601f1916810167ffffffffffffffff811182821017156129d9576129d961299a565b604052919050565b600082601f8301126129f257600080fd5b813567ffffffffffffffff811115612a0c57612a0c61299a565b8060051b612a1c602082016129b0565b91825260208185018101929081019086841115612a3857600080fd5b6020860192505b838310156115fa578235825260209283019290910190612a3f565b600067ffffffffffffffff821115612a7457612a7461299a565b50601f01601f191660200190565b600082601f830112612a9357600080fd5b8135612aa6612aa182612a5a565b6129b0565b818152846020838601011115612abb57600080fd5b816020850160208301376000918101602001919091529392505050565b600080600080600060a08688031215612af057600080fd5b612af9866124bb565b9450612b07602087016124bb565b9350604086013567ffffffffffffffff811115612b2357600080fd5b612b2f888289016129e1565b935050606086013567ffffffffffffffff811115612b4c57600080fd5b612b58888289016129e1565b925050608086013567ffffffffffffffff811115612b7557600080fd5b612b8188828901612a82565b9150509295509295909350565b600080600060608486031215612ba357600080fd5b612bac846124bb565b9250612bba602085016124bb565b9150612bc8604085016124bb565b90509250925092565b60008060008060408587031215612be757600080fd5b843567ffffffffffffffff811115612bfe57600080fd5b612c0a87828801612770565b909550935050602085013567ffffffffffffffff811115612c2a57600080fd5b61276487828801612770565b80356001600160801b03811681146124d257600080fd5b60008060008060808587031215612c6357600080fd5b612c6c856125c9565b935060208501359250612c8160408601612c36565b9150612c8f60608601612c36565b905092959194509250565b600080600080600060a08688031215612cb257600080fd5b612cbb866124bb565b9450612cc9602087016124bb565b93506040860135925060608601359150608086013567ffffffffffffffff811115612b7557600080fd5b600060208284031215612d0557600080fd5b5051919050565b600060208284031215612d1e57600080fd5b815167ffffffffffffffff811115612d3557600080fd5b8201601f81018413612d4657600080fd5b8051612d54612aa182612a5a565b818152856020838501011115612d6957600080fd5b611a3a826020830160208601612532565b634e487b7160e01b600052603260045260246000fd5b600060208284031215612da257600080fd5b61084782612c36565b634e487b7160e01b600052601160045260246000fd5b6001600160801b03828116828216039081111561084a5761084a612dab565b6001600160801b03818116838216019081111561084a5761084a612dab565b60006001600160801b0382166001600160801b038103612e2157612e21612dab565b60010192915050565b8082018082111561084a5761084a612dab565b83815282602082015260008251612e5b816040850160208701612532565b91909101604001949350505050565b63ffffffff8616815284602082015260a060408201526000612e8f60a0830186612556565b8281036060840152612ea18186612556565b9150506001600160a01b03831660808301529695505050505050565b7f4e6f20726f7574657220656e726f6c6c656420666f7220646f6d61696e3a2000815260008251612ef581601f850160208701612532565b91909101601f0192915050565b60008085851115612f1257600080fd5b83861115612f1f57600080fd5b5050820193919092039150565b8035602083101561084a57600019602084900360031b1b1692915050565b7fffff0000000000000000000000000000000000000000000000000000000000008660f01b1681528460028201528360228201526bffffffffffffffffffffffff198360601b16604282015260008251612fab816056850160208701612532565b919091016056019695505050505050565b8181038181111561084a5761084a612dab565b634e487b7160e01b600052603160045260246000fdfea264697066735822122020f00454fc711725179d055182c78513578f35a5eb1969804836be2196756aa264736f6c634300081c0033",
  "devdoc": {
    "events": {
      "Initialized(uint8)": {
        "details": "Triggered when the contract has been initialized or reinitialized."
      },
      "ReceivedTransferRemote(uint32,bytes32,uint256)": {
        "details": "Emitted on `_handle` when a transfer message is processed.",
        "params": {
          "amount": "The amount of tokens minted on the destination chain.",
          "origin": "The identifier of the origin chain.",
          "recipient": "The address of the recipient on the destination chain."
        }
      },
      "SentTransferRemote(uint32,bytes32,uint256)": {
        "details": "Emitted on `transferRemote` when a transfer message is dispatched.",
        "params": {
          "amount": "The amount of tokens burnt on the origin chain.",
          "destination": "The identifier of the destination chain.",
          "recipient": "The address of the recipient on the destination chain."
        }
      }
    },
    "kind": "dev",
    "methods": {
      "enrollRemoteRouter(uint32,bytes32)": {
        "params": {
          "_domain": "The domain of the remote Application Router",
          "_router": "The address of the remote Application Router"
        }
      },
      "enrollRemoteRouters(uint32[],bytes32[])": {
        "params": {
          "_addresses": "The addresses of the remote Application Routers",
          "_domains": "The domains of the remote Application Routers"
        }
      },
      "handle(uint32,bytes32,bytes)": {
        "params": {
          "_message": "The message",
          "_origin": "The origin domain",
          "_sender": "The sender address"
        }
      },
      "owner()": {
        "details": "Returns the address of the current owner."
      },
      "quoteGasPayment(uint32)": {
        "params": {
          "_destinationDomain": "The domain of the router."
        },
        "returns": {
          "_0": "_gasPayment Payment computed by the registered InterchainGasPaymaster."
        }
      },
      "renounceOwnership()": {
        "details": "Leaves the contract without owner. It will not be possible to call `onlyOwner` functions. Can only be called by the current owner. NOTE: Renouncing ownership will leave the contract without an owner, thereby disabling any functionality that is only available to the owner."
      },
      "routers(uint32)": {
        "details": "Returns 0 address if no router is enrolled for the given domain",
        "params": {
          "_domain": "The remote domain ID."
        },
        "returns": {
          "_0": "router The address of the Router contract for the given domain"
        }
      },
      "setDestinationGas((uint32,uint256)[])": {
        "params": {
          "gasConfigs": "The array of GasRouterConfig structs"
        }
      },
      "setDestinationGas(uint32,uint256)": {
        "params": {
          "domain": "The destination domain ID",
          "gas": "The gas limit"
        }
      },
      "setHook(address)": {
        "params": {
          "_hook": "The address of the hook contract."
        }
      },
      "setInterchainSecurityModule(address)": {
        "params": {
          "_module": "The address of the interchain security module contract."
        }
      },
      "supportsInterface(bytes4)": {
        "details": "See {IERC165-supportsInterface}."
      },
      "transferOwnership(address)": {
        "details": "Transfers ownership of the contract to a new account (`newOwner`). Can only be called by the current owner."
      },
      "transferRemote(uint32,bytes32,uint256)": {
        "details": "Delegates transfer logic to `_transferFromSender` implementation.Emits `SentTransferRemote` event on the origin chain.",
        "params": {
          "_amountOrId": "The amount or identifier of tokens to be sent to the remote recipient.",
          "_destination": "The identifier of the destination chain.",
          "_recipient": "The address of the recipient on the destination chain."
        },
        "returns": {
          "messageId": "The identifier of the dispatched message."
        }
      },
      "transferRemote(uint32,bytes32,uint256,bytes,address)": {
        "details": "Delegates transfer logic to `_transferFromSender` implementation.The metadata is the token metadata, and is DIFFERENT than the hook metadata.Emits `SentTransferRemote` event on the origin chain.",
        "params": {
          "_amountOrId": "The amount or identifier of tokens to be sent to the remote recipient.",
          "_destination": "The identifier of the destination chain.",
          "_hook": "The post dispatch hook to be called by the Mailbox",
          "_hookMetadata": "The metadata passed into the hook",
          "_recipient": "The address of the recipient on the destination chain."
        },
        "returns": {
          "messageId": "The identifier of the dispatched message."
        }
      },
      "unenrollRemoteRouter(uint32)": {
        "params": {
          "_domain": "The domain of the remote Application Router"
        }
      },
      "unenrollRemoteRouters(uint32[])": {
        "params": {
          "_domains": "The domains of the remote Application Routers"
        }
      }
    },
    "version": 1
  },
  "userdoc": {
    "kind": "user",
    "methods": {
      "enrollRemoteRouter(uint32,bytes32)": {
        "notice": "Register the address of a Router contract for the same Application on a remote chain"
      },
      "enrollRemoteRouters(uint32[],bytes32[])": {
        "notice": "Batch version of `enrollRemoteRouter`"
      },
      "handle(uint32,bytes32,bytes)": {
        "notice": "Handles an incoming message"
      },
      "quoteGasPayment(uint32)": {
        "notice": "Returns the gas payment required to dispatch a message to the given domain's router."
      },
      "routers(uint32)": {
        "notice": "Returns the address of the Router contract for the given domain"
      },
      "setDestinationGas((uint32,uint256)[])": {
        "notice": "Sets the gas amount dispatched for each configured domain."
      },
      "setDestinationGas(uint32,uint256)": {
        "notice": "Sets the gas amount dispatched for each configured domain."
      },
      "setHook(address)": {
        "notice": "Sets the address of the application's custom hook."
      },
      "setInterchainSecurityModule(address)": {
        "notice": "Sets the address of the application's custom interchain security module."
      },
      "transferRemote(uint32,bytes32,uint256)": {
        "notice": "Transfers `_amountOrId` token to `_recipient` on `_destination` domain."
      },
      "transferRemote(uint32,bytes32,uint256,bytes,address)": {
        "notice": "Transfers `_amountOrId` token to `_recipient` on `_destination` domain with a specified hook"
      },
      "unenrollRemoteRouter(uint32)": {
        "notice": "Unregister the domain"
      },
      "unenrollRemoteRouters(uint32[])": {
        "notice": "Batch version of `unenrollRemoteRouter`"
      }
    },
    "version": 1
  },
  "storageLayout": {
    "storage": [
      {
        "astId": 2935,
        "contract": "contracts/ExampleHypERC1155Collateral.sol:HypERC1155Collateral",
        "label": "_initialized",
        "offset": 0,
        "slot": "0",
        "type": "t_uint8"
      },
      {
        "astId": 2938,
        "contract": "contracts/ExampleHypERC1155Collateral.sol:HypERC1155Collateral",
        "label": "_initializing",
        "offset": 1,
        "slot": "0",
        "type": "t_bool"
      },
      {
        "astId": 7315,
        "contract": "contracts/ExampleHypERC1155Collateral.sol:HypERC1155Collateral",
        "label": "__gap",
        "offset": 0,
        "slot": "1",
        "type": "t_array(t_uint256)50_storage"
      },
      {
        "astId": 2807,
        "contract": "contracts/ExampleHypERC1155Collateral.sol:HypERC1155Collateral",
        "label": "_owner",
        "offset": 0,
        "slot": "51",
        "type": "t_address"
      },
      {
        "astId": 2927,
        "contract": "contracts/ExampleHypERC1155Collateral.sol:HypERC1155Collateral",
        "label": "__gap",
        "offset": 0,
        "slot": "52",
        "type": "t_array(t_uint256)49_storage"
      },
      {
        "astId": 227,
        "contract": "contracts/ExampleHypERC1155Collateral.sol:HypERC1155Collateral",
        "label": "hook",
        "offset": 0,
        "slot": "101",
        "type": "t_contract(IPostDispatchHook)1378"
      },
      {
        "astId": 230,
        "contract": "contracts/ExampleHypERC1155Collateral.sol:HypERC1155Collateral",
        "label": "interchainSecurityModule",
        "offset": 0,
        "slot": "102",
        "type": "t_contract(IInterchainSecurityModule)1143"
      },
      {
        "astId": 234,
        "contract": "contracts/ExampleHypERC1155Collateral.sol:HypERC1155Collateral",
        "label": "__GAP",
        "offset": 0,
        "slot": "103",
        "type": "t_array(t_uint256)48_storage"
      },
      {
        "astId": 438,
        "contract": "contracts/ExampleHypERC1155Collateral.sol:HypERC1155Collateral",
        "label": "_routers",
        "offset": 0,
        "slot": "151",
        "type": "t_struct(UintToBytes32Map)1394_storage"
      },
      {
        "astId": 442,
        "contract": "contracts/ExampleHypERC1155Collateral.sol:HypERC1155Collateral",
        "label": "__GAP",
        "offset": 0,
        "slot": "154",
        "type": "t_array(t_uint256)48_storage"
      },
      {
        "astId": 24,
        "contract": "contracts/ExampleHypERC1155Collateral.sol:HypERC1155Collateral",
        "label": "destinationGas",
        "offset": 0,
        "slot": "202",
        "type": "t_mapping(t_uint32,t_uint256)"
      }
    ],
    "types": {
      "t_address": {
        "encoding": "inplace",
        "label": "address",
        "numberOfBytes": "20"
      },
      "t_array(t_bytes32)dyn_storage": {
        "base": "t_bytes32",
        "encoding": "dynamic_array",
        "label": "bytes32[]",
        "numberOfBytes": "32"
      },
      "t_array(t_uint256)48_storage": {
        "base": "t_uint256",
        "encoding": "inplace",
        "label": "uint256[48]",
        "numberOfBytes": "1536"
      },
      "t_array(t_uint256)49_storage": {
        "base": "t_uint256",
        "encoding": "inplace",
        "label": "uint256[49]",
        "numberOfBytes": "1568"
      },
      "t_array(t_uint256)50_storage": {
        "base": "t_uint256",
        "encoding": "inplace",
        "label": "uint256[50]",
        "numberOfBytes": "1600"
      },
      "t_bool": {
        "encoding": "inplace",
        "label": "bool",
        "numberOfBytes": "1"
      },
      "t_bytes32": {
        "encoding": "inplace",
        "label": "bytes32",
        "numberOfBytes": "32"
      },
      "t_contract(IInterchainSecurityModule)1143": {
        "encoding": "inplace",
        "label": "contract IInterchainSecurityModule",
        "numberOfBytes": "20"
      },
      "t_contract(IPostDispatchHook)1378": {
        "encoding": "inplace",
        "label": "contract IPostDispatchHook",
        "numberOfBytes": "20"
      },
      "t_mapping(t_bytes32,t_bytes32)": {
        "encoding": "mapping",
        "key": "t_bytes32",
        "label": "mapping(bytes32 => bytes32)",
        "numberOfBytes": "32",
        "value": "t_bytes32"
      },
      "t_mapping(t_bytes32,t_uint256)": {
        "encoding": "mapping",
        "key": "t_bytes32",
        "label": "mapping(bytes32 => uint256)",
        "numberOfBytes": "32",
        "value": "t_uint256"
      },
      "t_mapping(t_uint32,t_uint256)": {
        "encoding": "mapping",
        "key": "t_uint32",
        "label": "mapping(uint32 => uint256)",
        "numberOfBytes": "32",
        "value": "t_uint256"
      },
      "t_struct(Bytes32Set)17089_storage": {
        "encoding": "inplace",
        "label": "struct EnumerableSet.Bytes32Set",
        "members": [
          {
            "astId": 17088,
            "contract": "contracts/ExampleHypERC1155Collateral.sol:HypERC1155Collateral",
            "label": "_inner",
            "offset": 0,
            "slot": "0",
            "type": "t_struct(Set)16895_storage"
          }
        ],
        "numberOfBytes": "64"
      },
      "t_struct(Bytes32ToBytes32Map)15642_storage": {
        "encoding": "inplace",
        "label": "struct EnumerableMap.Bytes32ToBytes32Map",
        "members": [
          {
            "astId": 15637,
            "contract": "contracts/ExampleHypERC1155Collateral.sol:HypERC1155Collateral",
            "label": "_keys",
            "offset": 0,
            "slot": "0",
            "type": "t_struct(Bytes32Set)17089_storage"
          },
          {
            "astId": 15641,
            "contract": "contracts/ExampleHypERC1155Collateral.sol:HypERC1155Collateral",
            "label": "_values",
            "offset": 0,
            "slot": "2",
            "type": "t_mapping(t_bytes32,t_bytes32)"
          }
        ],
        "numberOfBytes": "96"
      },
      "t_struct(Set)16895_storage": {
        "encoding": "inplace",
        "label": "struct EnumerableSet.Set",
        "members": [
          {
            "astId": 16890,
            "contract": "contracts/ExampleHypERC1155Collateral.sol:HypERC1155Collateral",
            "label": "_values",
            "offset": 0,
            "slot": "0",
            "type": "t_array(t_bytes32)dyn_storage"
          },
          {
            "astId": 16894,
            "contract": "contracts/ExampleHypERC1155Collateral.sol:HypERC1155Collateral",
            "label": "_indexes",
            "offset": 0,
            "slot": "1",
            "type": "t_mapping(t_bytes32,t_uint256)"
          }
        ],
        "numberOfBytes": "64"
      },
      "t_struct(UintToBytes32Map)1394_storage": {
        "encoding": "inplace",
        "label": "struct EnumerableMapExtended.UintToBytes32Map",
        "members": [
          {
            "astId": 1393,
            "contract": "contracts/ExampleHypERC1155Collateral.sol:HypERC1155Collateral",
            "label": "_inner",
            "offset": 0,
            "slot": "0",
            "type": "t_struct(Bytes32ToBytes32Map)15642_storage"
          }
        ],
        "numberOfBytes": "96"
      },
      "t_uint256": {
        "encoding": "inplace",
        "label": "uint256",
        "numberOfBytes": "32"
      },
      "t_uint32": {
        "encoding": "inplace",
        "label": "uint32",
        "numberOfBytes": "4"
      },
      "t_uint8": {
        "encoding": "inplace",
        "label": "uint8",
        "numberOfBytes": "1"
      }
    }
  }
}