{
  "address": "0x209Cd0164C0a61E1afe49563579d0caAd7E1Fda7",
  "abi": [
    {
      "inputs": [
        {
          "internalType": "address",
          "name": "erc20",
          "type": "address"
        },
        {
          "internalType": "address",
          "name": "_mailbox",
          "type": "address"
        }
      ],
      "stateMutability": "nonpayable",
      "type": "constructor"
    },
    {
      "anonymous": false,
      "inputs": [
        {
          "indexed": false,
          "internalType": "uint32",
          "name": "domain",
          "type": "uint32"
        },
        {
          "indexed": false,
          "internalType": "uint256",
          "name": "gas",
          "type": "uint256"
        }
      ],
      "name": "GasSet",
      "type": "event"
    },
    {
      "anonymous": false,
      "inputs": [
        {
          "indexed": false,
          "internalType": "address",
          "name": "_hook",
          "type": "address"
        }
      ],
      "name": "HookSet",
      "type": "event"
    },
    {
      "anonymous": false,
      "inputs": [
        {
          "indexed": false,
          "internalType": "uint8",
          "name": "version",
          "type": "uint8"
        }
      ],
      "name": "Initialized",
      "type": "event"
    },
    {
      "anonymous": false,
      "inputs": [
        {
          "indexed": false,
          "internalType": "address",
          "name": "_ism",
          "type": "address"
        }
      ],
      "name": "IsmSet",
      "type": "event"
    },
    {
      "anonymous": false,
      "inputs": [
        {
          "indexed": true,
          "internalType": "address",
          "name": "previousOwner",
          "type": "address"
        },
        {
          "indexed": true,
          "internalType": "address",
          "name": "newOwner",
          "type": "address"
        }
      ],
      "name": "OwnershipTransferred",
      "type": "event"
    },
    {
      "anonymous": false,
      "inputs": [
        {
          "indexed": true,
          "internalType": "uint32",
          "name": "origin",
          "type": "uint32"
        },
        {
          "indexed": true,
          "internalType": "bytes32",
          "name": "recipient",
          "type": "bytes32"
        },
        {
          "indexed": false,
          "internalType": "uint256",
          "name": "amount",
          "type": "uint256"
        }
      ],
      "name": "ReceivedTransferRemote",
      "type": "event"
    },
    {
      "anonymous": false,
      "inputs": [
        {
          "indexed": true,
          "internalType": "uint32",
          "name": "destination",
          "type": "uint32"
        },
        {
          "indexed": true,
          "internalType": "bytes32",
          "name": "recipient",
          "type": "bytes32"
        },
        {
          "indexed": false,
          "internalType": "uint256",
          "name": "amount",
          "type": "uint256"
        }
      ],
      "name": "SentTransferRemote",
      "type": "event"
    },
    {
      "inputs": [],
      "name": "PACKAGE_VERSION",
      "outputs": [
        {
          "internalType": "string",
          "name": "",
          "type": "string"
        }
      ],
      "stateMutability": "view",
      "type": "function"
    },
    {
      "inputs": [
        {
          "internalType": "address",
          "name": "_account",
          "type": "address"
        }
      ],
      "name": "balanceOf",
      "outputs": [
        {
          "internalType": "uint256",
          "name": "",
          "type": "uint256"
        }
      ],
      "stateMutability": "view",
      "type": "function"
    },
    {
      "inputs": [
        {
          "internalType": "uint32",
          "name": "",
          "type": "uint32"
        }
      ],
      "name": "destinationGas",
      "outputs": [
        {
          "internalType": "uint256",
          "name": "",
          "type": "uint256"
        }
      ],
      "stateMutability": "view",
      "type": "function"
    },
    {
      "inputs": [],
      "name": "domains",
      "outputs": [
        {
          "internalType": "uint32[]",
          "name": "",
          "type": "uint32[]"
        }
      ],
      "stateMutability": "view",
      "type": "function"
    },
    {
      "inputs": [
        {
          "internalType": "uint32",
          "name": "_domain",
          "type": "uint32"
        },
        {
          "internalType": "bytes32",
          "name": "_router",
          "type": "bytes32"
        }
      ],
      "name": "enrollRemoteRouter",
      "outputs": [],
      "stateMutability": "nonpayable",
      "type": "function"
    },
    {
      "inputs": [
        {
          "internalType": "uint32[]",
          "name": "_domains",
          "type": "uint32[]"
        },
        {
          "internalType": "bytes32[]",
          "name": "_addresses",
          "type": "bytes32[]"
        }
      ],
      "name": "enrollRemoteRouters",
      "outputs": [],
      "stateMutability": "nonpayable",
      "type": "function"
    },
    {
      "inputs": [
        {
          "internalType": "uint32",
          "name": "_origin",
          "type": "uint32"
        },
        {
          "internalType": "bytes32",
          "name": "_sender",
          "type": "bytes32"
        },
        {
          "internalType": "bytes",
          "name": "_message",
          "type": "bytes"
        }
      ],
      "name": "handle",
      "outputs": [],
      "stateMutability": "payable",
      "type": "function"
    },
    {
      "inputs": [],
      "name": "hook",
      "outputs": [
        {
          "internalType": "contract IPostDispatchHook",
          "name": "",
          "type": "address"
        }
      ],
      "stateMutability": "view",
      "type": "function"
    },
    {
      "inputs": [
        {
          "internalType": "address",
          "name": "_hook",
          "type": "address"
        },
        {
          "internalType": "address",
          "name": "_interchainSecurityModule",
          "type": "address"
        },
        {
          "internalType": "address",
          "name": "_owner",
          "type": "address"
        }
      ],
      "name": "initialize",
      "outputs": [],
      "stateMutability": "nonpayable",
      "type": "function"
    },
    {
      "inputs": [],
      "name": "interchainSecurityModule",
      "outputs": [
        {
          "internalType": "contract IInterchainSecurityModule",
          "name": "",
          "type": "address"
        }
      ],
      "stateMutability": "view",
      "type": "function"
    },
    {
      "inputs": [],
      "name": "localDomain",
      "outputs": [
        {
          "internalType": "uint32",
          "name": "",
          "type": "uint32"
        }
      ],
      "stateMutability": "view",
      "type": "function"
    },
    {
      "inputs": [],
      "name": "mailbox",
      "outputs": [
        {
          "internalType": "contract IMailbox",
          "name": "",
          "type": "address"
        }
      ],
      "stateMutability": "view",
      "type": "function"
    },
    {
      "inputs": [],
      "name": "owner",
      "outputs": [
        {
          "internalType": "address",
          "name": "",
          "type": "address"
        }
      ],
      "stateMutability": "view",
      "type": "function"
    },
    {
      "inputs": [
        {
          "internalType": "uint32",
          "name": "_destinationDomain",
          "type": "uint32"
        }
      ],
      "name": "quoteGasPayment",
      "outputs": [
        {
          "internalType": "uint256",
          "name": "",
          "type": "uint256"
        }
      ],
      "stateMutability": "view",
      "type": "function"
    },
    {
      "inputs": [],
      "name": "renounceOwnership",
      "outputs": [],
      "stateMutability": "nonpayable",
      "type": "function"
    },
    {
      "inputs": [
        {
          "internalType": "uint32",
          "name": "_domain",
          "type": "uint32"
        }
      ],
      "name": "routers",
      "outputs": [
        {
          "internalType": "bytes32",
          "name": "",
          "type": "bytes32"
        }
      ],
      "stateMutability": "view",
      "type": "function"
    },
    {
      "inputs": [
        {
          "internalType": "uint32",
          "name": "domain",
          "type": "uint32"
        },
        {
          "internalType": "uint256",
          "name": "gas",
          "type": "uint256"
        }
      ],
      "name": "setDestinationGas",
      "outputs": [],
      "stateMutability": "nonpayable",
      "type": "function"
    },
    {
      "inputs": [
        {
          "components": [
            {
              "internalType": "uint32",
              "name": "domain",
              "type": "uint32"
            },
            {
              "internalType": "uint256",
              "name": "gas",
              "type": "uint256"
            }
          ],
          "internalType": "struct GasRouter.GasRouterConfig[]",
          "name": "gasConfigs",
          "type": "tuple[]"
        }
      ],
      "name": "setDestinationGas",
      "outputs": [],
      "stateMutability": "nonpayable",
      "type": "function"
    },
    {
      "inputs": [
        {
          "internalType": "address",
          "name": "_hook",
          "type": "address"
        }
      ],
      "name": "setHook",
      "outputs": [],
      "stateMutability": "nonpayable",
      "type": "function"
    },
    {
      "inputs": [
        {
          "internalType": "address",
          "name": "_module",
          "type": "address"
        }
      ],
      "name": "setInterchainSecurityModule",
      "outputs": [],
      "stateMutability": "nonpayable",
      "type": "function"
    },
    {
      "inputs": [
        {
          "internalType": "address",
          "name": "newOwner",
          "type": "address"
        }
      ],
      "name": "transferOwnership",
      "outputs": [],
      "stateMutability": "nonpayable",
      "type": "function"
    },
    {
      "inputs": [
        {
          "internalType": "uint32",
          "name": "_destination",
          "type": "uint32"
        },
        {
          "internalType": "bytes32",
          "name": "_recipient",
          "type": "bytes32"
        },
        {
          "internalType": "uint256",
          "name": "_amountOrId",
          "type": "uint256"
        },
        {
          "internalType": "bytes",
          "name": "_hookMetadata",
          "type": "bytes"
        },
        {
          "internalType": "address",
          "name": "_hook",
          "type": "address"
        }
      ],
      "name": "transferRemote",
      "outputs": [
        {
          "internalType": "bytes32",
          "name": "messageId",
          "type": "bytes32"
        }
      ],
      "stateMutability": "payable",
      "type": "function"
    },
    {
      "inputs": [
        {
          "internalType": "uint32",
          "name": "_destination",
          "type": "uint32"
        },
        {
          "internalType": "bytes32",
          "name": "_recipient",
          "type": "bytes32"
        },
        {
          "internalType": "uint256",
          "name": "_amountOrId",
          "type": "uint256"
        }
      ],
      "name": "transferRemote",
      "outputs": [
        {
          "internalType": "bytes32",
          "name": "messageId",
          "type": "bytes32"
        }
      ],
      "stateMutability": "payable",
      "type": "function"
    },
    {
      "inputs": [
        {
          "internalType": "uint32",
          "name": "_domain",
          "type": "uint32"
        }
      ],
      "name": "unenrollRemoteRouter",
      "outputs": [],
      "stateMutability": "nonpayable",
      "type": "function"
    },
    {
      "inputs": [
        {
          "internalType": "uint32[]",
          "name": "_domains",
          "type": "uint32[]"
        }
      ],
      "name": "unenrollRemoteRouters",
      "outputs": [],
      "stateMutability": "nonpayable",
      "type": "function"
    },
    {
      "inputs": [],
      "name": "wrappedToken",
      "outputs": [
        {
          "internalType": "contract IERC20",
          "name": "",
          "type": "address"
        }
      ],
      "stateMutability": "view",
      "type": "function"
    }
  ],
  "transactionHash": "0x8763beb1d534aff24ecb4d1589e8362b66fdca5f1d0174685f198ad8f73a267f",
  "args": [
    "0xAd266dfE47D030C315f93b384B309f24824cB174",
    "0x598facE78a4302f11E3de0bee1894Da0b2Cb71F8"
  ],
  "numDeployments": 1,
  "solcInputHash": "c591ad0f41755411d91c7c85bd4b1b87",
  "bytecode": "0x60e060405234801561001057600080fd5b5060405161277538038061277583398101604081905261002f9161020e565b818180808080806001600160a01b0381163b6100925760405162461bcd60e51b815260206004820152601e60248201527f4d61696c626f78436c69656e743a20696e76616c6964206d61696c626f78000060448201526064015b60405180910390fd5b6001600160a01b03821660808190526040805163234d8e3d60e21b81529051638d3638f4916004808201926020929091908290030181865afa1580156100dc573d6000803e3d6000fd5b505050506040513d601f19601f820116820180604052508101906101009190610241565b63ffffffff1660a052610112336101a0565b50505050506101268261019160201b60201c565b61017c5760405162461bcd60e51b815260206004820152602160248201527f4879704552433230436f6c6c61746572616c3a20696e76616c696420746f6b656044820152603760f91b6064820152608401610089565b506001600160a01b031660c0525061026e9050565b6001600160a01b03163b151590565b603380546001600160a01b038381166001600160a01b0319831681179093556040519116919082907f8be0079c531659141344cd1fd0a4f28419497f9722a3daafe3b4186f6b6457e090600090a35050565b80516001600160a01b038116811461020957600080fd5b919050565b6000806040838503121561022157600080fd5b61022a836101f2565b9150610238602084016101f2565b90509250929050565b60006020828403121561025357600080fd5b815163ffffffff8116811461026757600080fd5b9392505050565b60805160a05160c0516124ae6102c76000396000818161041f015281816109460152818161128f01526114a5015260006103620152600081816104b3015281816107e30152818161130a01526115b701526124ae6000f3fe6080604052600436106101a15760003560e01c80638d3638f4116100e1578063c0c53b8b1161008a578063e9198bf911610064578063e9198bf9146104f5578063efae508a14610515578063f2ed8c5314610535578063f2fde38b1461055557600080fd5b8063c0c53b8b14610481578063d5438eae146104a1578063de523cf3146104d557600080fd5b8063996c6cc3116100bb578063996c6cc31461040d578063b1bd643614610441578063b49c53a71461046157600080fd5b80638d3638f4146103505780638da5cb5b1461039957806393c44847146103b757600080fd5b806356d5d4751161014e57806371a15b381161012857806371a15b38146102b8578063775313a1146102d85780637f5a7c7b1461030557806381b4e8b41461033d57600080fd5b806356d5d4751461027057806370a0823114610283578063715018a6146102a357600080fd5b8063440df4f41161017f578063440df4f41461021b57806349d462ef1461023d57806351debffc1461025d57600080fd5b80630e72cc06146101a65780632ead72f6146101c85780633dfd3873146101fb575b600080fd5b3480156101b257600080fd5b506101c66101c1366004611e18565b610575565b005b3480156101d457600080fd5b506101e86101e3366004611e47565b610661565b6040519081526020015b60405180910390f35b34801561020757600080fd5b506101c6610216366004611e18565b610680565b34801561022757600080fd5b5061023061075f565b6040516101f29190611e62565b34801561024957600080fd5b506101c6610258366004611eab565b610770565b6101e861026b366004611f17565b610786565b6101c661027e366004611f8e565b6107d8565b34801561028f57600080fd5b506101e861029e366004611e18565b61090b565b3480156102af57600080fd5b506101c66109b9565b3480156102c457600080fd5b506101c66102d336600461202d565b6109cd565b3480156102e457600080fd5b506101e86102f3366004611e47565b60ca6020526000908152604090205481565b34801561031157600080fd5b50606554610325906001600160a01b031681565b6040516001600160a01b0390911681526020016101f2565b6101e861034b36600461206f565b610a28565b34801561035c57600080fd5b506103847f000000000000000000000000000000000000000000000000000000000000000081565b60405163ffffffff90911681526020016101f2565b3480156103a557600080fd5b506033546001600160a01b0316610325565b3480156103c357600080fd5b506104006040518060400160405280600581526020017f352e382e3300000000000000000000000000000000000000000000000000000081525081565b6040516101f291906120f2565b34801561041957600080fd5b506103257f000000000000000000000000000000000000000000000000000000000000000081565b34801561044d57600080fd5b506101c661045c366004612105565b610a36565b34801561046d57600080fd5b506101c661047c366004611eab565b610aac565b34801561048d57600080fd5b506101c661049c36600461217c565b610abe565b3480156104ad57600080fd5b506103257f000000000000000000000000000000000000000000000000000000000000000081565b3480156104e157600080fd5b50606654610325906001600160a01b031681565b34801561050157600080fd5b506101c66105103660046121bf565b610be3565b34801561052157600080fd5b506101c6610530366004611e47565b610ca8565b34801561054157600080fd5b506101e8610550366004611e47565b610cbc565b34801561056157600080fd5b506101c6610570366004611e18565b610ce6565b806001600160a01b0381163b15158061059557506001600160a01b038116155b6105f65760405162461bcd60e51b815260206004820152602760248201527f4d61696c626f78436c69656e743a20696e76616c696420636f6e74726163742060448201526673657474696e6760c81b60648201526084015b60405180910390fd5b6105fe610d73565b6066805473ffffffffffffffffffffffffffffffffffffffff19166001600160a01b0384169081179091556040519081527fc47cbcc588c67679e52261c45cc315e56562f8d0ccaba16facb9093ff9498799906020015b60405180910390a15050565b600080610678609763ffffffff80861690610dcd16565b949350505050565b806001600160a01b0381163b1515806106a057506001600160a01b038116155b6106fc5760405162461bcd60e51b815260206004820152602760248201527f4d61696c626f78436c69656e743a20696e76616c696420636f6e74726163742060448201526673657474696e6760c81b60648201526084016105ed565b610704610d73565b6065805473ffffffffffffffffffffffffffffffffffffffff19166001600160a01b0384169081179091556040519081527f4eab7b127c764308788622363ad3e9532de3dfba7845bd4f84c125a22544255a90602001610655565b606061076b6097610de6565b905090565b610778610d73565b6107828282610e97565b5050565b60006107cd8787873488888080601f0160208091040260200160405190810160405280939291908181526020018383808284376000920191909152508a9250610ee5915050565b979650505050505050565b336001600160a01b037f000000000000000000000000000000000000000000000000000000000000000016146108765760405162461bcd60e51b815260206004820152602160248201527f4d61696c626f78436c69656e743a2073656e646572206e6f74206d61696c626f60448201527f780000000000000000000000000000000000000000000000000000000000000060648201526084016105ed565b600061088185610f5e565b90508381146108f85760405162461bcd60e51b815260206004820152602560248201527f456e726f6c6c656420726f7574657220646f6573206e6f74206d61746368207360448201527f656e64657200000000000000000000000000000000000000000000000000000060648201526084016105ed565b61090485858585610fa9565b5050505050565b6040517f70a082310000000000000000000000000000000000000000000000000000000081526001600160a01b0382811660048301526000917f0000000000000000000000000000000000000000000000000000000000000000909116906370a0823190602401602060405180830381865afa15801561098f573d6000803e3d6000fd5b505050506040513d601f19601f820116820180604052508101906109b39190612224565b92915050565b6109c1610d73565b6109cb6000611035565b565b6109d5610d73565b8060005b81811015610a2257610a108484838181106109f6576109f661223d565b9050602002016020810190610a0b9190611e47565b611094565b610a1b600182612269565b90506109d9565b50505050565b6000610678848484346110cf565b610a3e610d73565b60005b81811015610aa757610a95838383818110610a5e57610a5e61223d565b610a749260206040909202019081019150611e47565b848484818110610a8657610a8661223d565b90506040020160200135610e97565b610aa0600182612269565b9050610a41565b505050565b610ab4610d73565b61078282826110fb565b600054610100900460ff1615808015610ade5750600054600160ff909116105b80610af85750303b158015610af8575060005460ff166001145b610b6a5760405162461bcd60e51b815260206004820152602e60248201527f496e697469616c697a61626c653a20636f6e747261637420697320616c72656160448201527f647920696e697469616c697a656400000000000000000000000000000000000060648201526084016105ed565b6000805460ff191660011790558015610b8d576000805461ff0019166101001790555b610b98848484611111565b8015610a22576000805461ff0019169055604051600181527f7f26b83ff96e1f2b6a682f133852f6798a09c465da95921460cefb38474024989060200160405180910390a150505050565b610beb610d73565b828114610c3a5760405162461bcd60e51b815260206004820152600760248201527f216c656e6774680000000000000000000000000000000000000000000000000060448201526064016105ed565b8260005b81811015610ca057610c8e868683818110610c5b57610c5b61223d565b9050602002016020810190610c709190611e47565b858584818110610c8257610c8261223d565b905060200201356110fb565b610c99600182612269565b9050610c3e565b505050505050565b610cb0610d73565b610cb981611094565b50565b6040805160208101909152600080825260655490916109b3918491906001600160a01b031661119f565b610cee610d73565b6001600160a01b038116610d6a5760405162461bcd60e51b815260206004820152602660248201527f4f776e61626c653a206e6577206f776e657220697320746865207a65726f206160448201527f646472657373000000000000000000000000000000000000000000000000000060648201526084016105ed565b610cb981611035565b6033546001600160a01b031633146109cb5760405162461bcd60e51b815260206004820181905260248201527f4f776e61626c653a2063616c6c6572206973206e6f7420746865206f776e657260448201526064016105ed565b600080610dda84846111b5565b915091505b9250929050565b60606000610df3836111ef565b9050805167ffffffffffffffff811115610e0f57610e0f61227c565b604051908082528060200260200182016040528015610e38578160200160208202803683370190505b50915060005b8151811015610e9057818181518110610e5957610e5961223d565b6020026020010151838281518110610e7357610e7361223d565b63ffffffff90921660209283029190910190910152600101610e3e565b5050919050565b63ffffffff8216600081815260ca6020908152604091829020849055815192835282018390527fc3de732a98b24a2b5c6f67e8a7fb057ffc14046b83968a2c73e4148d2fba978b9101610655565b600080610ef186611280565b90506000610f008888846112cb565b9050610f0f89878388886112fa565b9250878963ffffffff167fd229aacb94204188fe8042965fa6b269c62dc5818b21238779ab64bdd17efeec89604051610f4a91815260200190565b60405180910390a350509695505050505050565b60008080610f76609763ffffffff80871690610dcd16565b915091508115610f87579392505050565b610f90846113a0565b60405162461bcd60e51b81526004016105ed91906120f2565b6000610fb583836113d7565b90506000610fc384846113f6565b9050366000610fd28686611406565b91509150610fea610fe285611416565b848484611498565b838863ffffffff167fba20947a325f450d232530e5f5fce293e7963499d5309a07cee84a269f2f15a68560405161102391815260200190565b60405180910390a35050505050505050565b603380546001600160a01b0383811673ffffffffffffffffffffffffffffffffffffffff19831681179093556040519116919082907f8be0079c531659141344cd1fd0a4f28419497f9722a3daafe3b4186f6b6457e090600090a35050565b6110a8609763ffffffff808416906114cc16565b6110b1826113a0565b906107825760405162461bcd60e51b81526004016105ed91906120f2565b60006110f2858585856110e18a6114d8565b6065546001600160a01b0316610ee5565b95945050505050565b610782609763ffffffff8085169084906114fa16565b600054610100900460ff1661117c5760405162461bcd60e51b815260206004820152602b60248201527f496e697469616c697a61626c653a20636f6e7472616374206973206e6f74206960448201526a6e697469616c697a696e6760a81b60648201526084016105ed565b611184611505565b61118d83610680565b61119682610575565b610aa781611035565b600061067884846111af876114d8565b85611578565b60008181526002830160205260408120548190806111e4576111d7858561163f565b925060009150610ddf9050565b600192509050610ddf565b606060006111fc8361164b565b90508067ffffffffffffffff8111156112175761121761227c565b604051908082528060200260200182016040528015611240578160200160208202803683370190505b50915060005b81811015610e90576112588482611656565b60001c83828151811061126d5761126d61223d565b6020908102919091010152600101611246565b60606112b76001600160a01b037f000000000000000000000000000000000000000000000000000000000000000016333085611662565b505060408051602081019091526000815290565b60608383836040516020016112e293929190612292565b60405160208183030381529060405290509392505050565b60008061130687610f5e565b90507f00000000000000000000000000000000000000000000000000000000000000006001600160a01b03166310b83dc08789848989896040518763ffffffff1660e01b815260040161135d9594939291906122bf565b60206040518083038185885af115801561137b573d6000803e3d6000fd5b50505050506040513d601f19601f820116820180604052508101906107cd9190612224565b60606113b18263ffffffff16611713565b6040516020016113c19190612312565b6040516020818303038152906040529050919050565b60006113e66020828486612357565b6113ef91612381565b9392505050565b60006113e6604060208486612357565b366000610dda8360408187612357565b60006001600160a01b038211156114945760405162461bcd60e51b8152602060048201526024808201527f5479706543617374733a2062797465733332546f41646472657373206f76657260448201527f666c6f770000000000000000000000000000000000000000000000000000000060648201526084016105ed565b5090565b610a226001600160a01b037f00000000000000000000000000000000000000000000000000000000000000001685856117b3565b60006113ef83836117fc565b63ffffffff8116600090815260ca60205260409020546060906109b390611819565b610a22838383611837565b600054610100900460ff166115705760405162461bcd60e51b815260206004820152602b60248201527f496e697469616c697a61626c653a20636f6e7472616374206973206e6f74206960448201526a6e697469616c697a696e6760a81b60648201526084016105ed565b6109cb611854565b60008061158486610f5e565b6040517f81d2ea950000000000000000000000000000000000000000000000000000000081529091506001600160a01b037f000000000000000000000000000000000000000000000000000000000000000016906381d2ea95906115f490899085908a908a908a906004016122bf565b602060405180830381865afa158015611611573d6000803e3d6000fd5b505050506040513d601f19601f820116820180604052508101906116359190612224565b9695505050505050565b60006113ef83836118c8565b60006109b3826118e0565b60006113ef83836118ea565b6040516001600160a01b0380851660248301528316604482015260648101829052610a229085907f23b872dd00000000000000000000000000000000000000000000000000000000906084015b60408051601f198184030181529190526020810180517bffffffffffffffffffffffffffffffffffffffffffffffffffffffff167fffffffff0000000000000000000000000000000000000000000000000000000090931692909217909152611914565b60606000611720836119fc565b600101905060008167ffffffffffffffff8111156117405761174061227c565b6040519080825280601f01601f19166020018201604052801561176a576020820181803683370190505b5090508181016020015b600019017f3031323334353637383961626364656600000000000000000000000000000000600a86061a8153600a850494508461177457509392505050565b6040516001600160a01b038316602482015260448101829052610aa79084907fa9059cbb00000000000000000000000000000000000000000000000000000000906064016116af565b600081815260028301602052604081208190556113ef8383611ade565b60606109b36000833360405180602001604052806000815250611aea565b600082815260028401602052604081208290556106788484611b1f565b600054610100900460ff166118bf5760405162461bcd60e51b815260206004820152602b60248201527f496e697469616c697a61626c653a20636f6e7472616374206973206e6f74206960448201526a6e697469616c697a696e6760a81b60648201526084016105ed565b6109cb33611035565b600081815260018301602052604081205415156113ef565b60006109b3825490565b60008260000182815481106119015761190161223d565b9060005260206000200154905092915050565b6000611969826040518060400160405280602081526020017f5361666545524332303a206c6f772d6c6576656c2063616c6c206661696c6564815250856001600160a01b0316611b2b9092919063ffffffff16565b905080516000148061198a57508080602001905181019061198a919061239f565b610aa75760405162461bcd60e51b815260206004820152602a60248201527f5361666545524332303a204552433230206f7065726174696f6e20646964206e60448201527f6f7420737563636565640000000000000000000000000000000000000000000060648201526084016105ed565b6000807a184f03e93ff9f4daa797ed6e38ed64bf6a1f0100000000000000008310611a45577a184f03e93ff9f4daa797ed6e38ed64bf6a1f010000000000000000830492506040015b6d04ee2d6d415b85acef81000000008310611a71576d04ee2d6d415b85acef8100000000830492506020015b662386f26fc100008310611a8f57662386f26fc10000830492506010015b6305f5e1008310611aa7576305f5e100830492506008015b6127108310611abb57612710830492506004015b60648310611acd576064830492506002015b600a83106109b35760010192915050565b60006113ef8383611b3a565b6060600185858585604051602001611b069594939291906123c1565b6040516020818303038152906040529050949350505050565b60006113ef8383611c2d565b60606106788484600085611c7c565b60008181526001830160205260408120548015611c23576000611b5e600183612433565b8554909150600090611b7290600190612433565b9050818114611bd7576000866000018281548110611b9257611b9261223d565b9060005260206000200154905080876000018481548110611bb557611bb561223d565b6000918252602080832090910192909255918252600188019052604090208390555b8554869080611be857611be8612446565b6001900381819060005260206000200160009055905585600101600086815260200190815260200160002060009055600193505050506109b3565b60009150506109b3565b6000818152600183016020526040812054611c74575081546001818101845560008481526020808220909301849055845484825282860190935260409020919091556109b3565b5060006109b3565b606082471015611cf45760405162461bcd60e51b815260206004820152602660248201527f416464726573733a20696e73756666696369656e742062616c616e636520666f60448201527f722063616c6c000000000000000000000000000000000000000000000000000060648201526084016105ed565b600080866001600160a01b03168587604051611d10919061245c565b60006040518083038185875af1925050503d8060008114611d4d576040519150601f19603f3d011682016040523d82523d6000602084013e611d52565b606091505b50915091506107cd8783838760608315611dcd578251600003611dc6576001600160a01b0385163b611dc65760405162461bcd60e51b815260206004820152601d60248201527f416464726573733a2063616c6c20746f206e6f6e2d636f6e747261637400000060448201526064016105ed565b5081610678565b6106788383815115611de25781518083602001fd5b8060405162461bcd60e51b81526004016105ed91906120f2565b80356001600160a01b0381168114611e1357600080fd5b919050565b600060208284031215611e2a57600080fd5b6113ef82611dfc565b803563ffffffff81168114611e1357600080fd5b600060208284031215611e5957600080fd5b6113ef82611e33565b602080825282518282018190526000918401906040840190835b81811015611ea057835163ffffffff16835260209384019390920191600101611e7c565b509095945050505050565b60008060408385031215611ebe57600080fd5b611ec783611e33565b946020939093013593505050565b60008083601f840112611ee757600080fd5b50813567ffffffffffffffff811115611eff57600080fd5b602083019150836020828501011115610ddf57600080fd5b60008060008060008060a08789031215611f3057600080fd5b611f3987611e33565b95506020870135945060408701359350606087013567ffffffffffffffff811115611f6357600080fd5b611f6f89828a01611ed5565b9094509250611f82905060808801611dfc565b90509295509295509295565b60008060008060608587031215611fa457600080fd5b611fad85611e33565b935060208501359250604085013567ffffffffffffffff811115611fd057600080fd5b611fdc87828801611ed5565b95989497509550505050565b60008083601f840112611ffa57600080fd5b50813567ffffffffffffffff81111561201257600080fd5b6020830191508360208260051b8501011115610ddf57600080fd5b6000806020838503121561204057600080fd5b823567ffffffffffffffff81111561205757600080fd5b61206385828601611fe8565b90969095509350505050565b60008060006060848603121561208457600080fd5b61208d84611e33565b95602085013595506040909401359392505050565b60005b838110156120bd5781810151838201526020016120a5565b50506000910152565b600081518084526120de8160208601602086016120a2565b601f01601f19169290920160200192915050565b6020815260006113ef60208301846120c6565b6000806020838503121561211857600080fd5b823567ffffffffffffffff81111561212f57600080fd5b8301601f8101851361214057600080fd5b803567ffffffffffffffff81111561215757600080fd5b8560208260061b840101111561216c57600080fd5b6020919091019590945092505050565b60008060006060848603121561219157600080fd5b61219a84611dfc565b92506121a860208501611dfc565b91506121b660408501611dfc565b90509250925092565b600080600080604085870312156121d557600080fd5b843567ffffffffffffffff8111156121ec57600080fd5b6121f887828801611fe8565b909550935050602085013567ffffffffffffffff81111561221857600080fd5b611fdc87828801611fe8565b60006020828403121561223657600080fd5b5051919050565b634e487b7160e01b600052603260045260246000fd5b634e487b7160e01b600052601160045260246000fd5b808201808211156109b3576109b3612253565b634e487b7160e01b600052604160045260246000fd5b838152826020820152600082516122b08160408501602087016120a2565b91909101604001949350505050565b63ffffffff8616815284602082015260a0604082015260006122e460a08301866120c6565b82810360608401526122f681866120c6565b9150506001600160a01b03831660808301529695505050505050565b7f4e6f20726f7574657220656e726f6c6c656420666f7220646f6d61696e3a200081526000825161234a81601f8501602087016120a2565b91909101601f0192915050565b6000808585111561236757600080fd5b8386111561237457600080fd5b5050820193919092039150565b803560208310156109b357600019602084900360031b1b1692915050565b6000602082840312156123b157600080fd5b815180151581146113ef57600080fd5b7fffff0000000000000000000000000000000000000000000000000000000000008660f01b1681528460028201528360228201526bffffffffffffffffffffffff198360601b166042820152600082516124228160568501602087016120a2565b919091016056019695505050505050565b818103818111156109b3576109b3612253565b634e487b7160e01b600052603160045260246000fd5b6000825161246e8184602087016120a2565b919091019291505056fea264697066735822122059c695db2b9b5d6a319ff335e1997772410228608d6081d0cc58ee0e9e05ddbc64736f6c634300081c0033",
  "devdoc": {
    "events": {
      "Initialized(uint8)": {
        "details": "Triggered when the contract has been initialized or reinitialized."
      },
      "ReceivedTransferRemote(uint32,bytes32,uint256)": {
        "details": "Emitted on `_handle` when a transfer message is processed.",
        "params": {
          "amount": "The amount of tokens minted on the destination chain.",
          "origin": "The identifier of the origin chain.",
          "recipient": "The address of the recipient on the destination chain."
        }
      },
      "SentTransferRemote(uint32,bytes32,uint256)": {
        "details": "Emitted on `transferRemote` when a transfer message is dispatched.",
        "params": {
          "amount": "The amount of tokens burnt on the origin chain.",
          "destination": "The identifier of the destination chain.",
          "recipient": "The address of the recipient on the destination chain."
        }
      }
    },
    "kind": "dev",
    "methods": {
      "enrollRemoteRouter(uint32,bytes32)": {
        "params": {
          "_domain": "The domain of the remote Application Router",
          "_router": "The address of the remote Application Router"
        }
      },
      "enrollRemoteRouters(uint32[],bytes32[])": {
        "params": {
          "_addresses": "The addresses of the remote Application Routers",
          "_domains": "The domains of the remote Application Routers"
        }
      },
      "handle(uint32,bytes32,bytes)": {
        "params": {
          "_message": "The message",
          "_origin": "The origin domain",
          "_sender": "The sender address"
        }
      },
      "owner()": {
        "details": "Returns the address of the current owner."
      },
      "quoteGasPayment(uint32)": {
        "params": {
          "_destinationDomain": "The domain of the router."
        },
        "returns": {
          "_0": "_gasPayment Payment computed by the registered InterchainGasPaymaster."
        }
      },
      "renounceOwnership()": {
        "details": "Leaves the contract without owner. It will not be possible to call `onlyOwner` functions. Can only be called by the current owner. NOTE: Renouncing ownership will leave the contract without an owner, thereby disabling any functionality that is only available to the owner."
      },
      "routers(uint32)": {
        "details": "Returns 0 address if no router is enrolled for the given domain",
        "params": {
          "_domain": "The remote domain ID."
        },
        "returns": {
          "_0": "router The address of the Router contract for the given domain"
        }
      },
      "setDestinationGas((uint32,uint256)[])": {
        "params": {
          "gasConfigs": "The array of GasRouterConfig structs"
        }
      },
      "setDestinationGas(uint32,uint256)": {
        "params": {
          "domain": "The destination domain ID",
          "gas": "The gas limit"
        }
      },
      "setHook(address)": {
        "params": {
          "_hook": "The address of the hook contract."
        }
      },
      "setInterchainSecurityModule(address)": {
        "params": {
          "_module": "The address of the interchain security module contract."
        }
      },
      "transferOwnership(address)": {
        "details": "Transfers ownership of the contract to a new account (`newOwner`). Can only be called by the current owner."
      },
      "transferRemote(uint32,bytes32,uint256)": {
        "details": "Delegates transfer logic to `_transferFromSender` implementation.Emits `SentTransferRemote` event on the origin chain.",
        "params": {
          "_amountOrId": "The amount or identifier of tokens to be sent to the remote recipient.",
          "_destination": "The identifier of the destination chain.",
          "_recipient": "The address of the recipient on the destination chain."
        },
        "returns": {
          "messageId": "The identifier of the dispatched message."
        }
      },
      "transferRemote(uint32,bytes32,uint256,bytes,address)": {
        "details": "Delegates transfer logic to `_transferFromSender` implementation.The metadata is the token metadata, and is DIFFERENT than the hook metadata.Emits `SentTransferRemote` event on the origin chain.",
        "params": {
          "_amountOrId": "The amount or identifier of tokens to be sent to the remote recipient.",
          "_destination": "The identifier of the destination chain.",
          "_hook": "The post dispatch hook to be called by the Mailbox",
          "_hookMetadata": "The metadata passed into the hook",
          "_recipient": "The address of the recipient on the destination chain."
        },
        "returns": {
          "messageId": "The identifier of the dispatched message."
        }
      },
      "unenrollRemoteRouter(uint32)": {
        "params": {
          "_domain": "The domain of the remote Application Router"
        }
      },
      "unenrollRemoteRouters(uint32[])": {
        "params": {
          "_domains": "The domains of the remote Application Routers"
        }
      }
    },
    "version": 1
  },
  "userdoc": {
    "kind": "user",
    "methods": {
      "enrollRemoteRouter(uint32,bytes32)": {
        "notice": "Register the address of a Router contract for the same Application on a remote chain"
      },
      "enrollRemoteRouters(uint32[],bytes32[])": {
        "notice": "Batch version of `enrollRemoteRouter`"
      },
      "handle(uint32,bytes32,bytes)": {
        "notice": "Handles an incoming message"
      },
      "quoteGasPayment(uint32)": {
        "notice": "Returns the gas payment required to dispatch a message to the given domain's router."
      },
      "routers(uint32)": {
        "notice": "Returns the address of the Router contract for the given domain"
      },
      "setDestinationGas((uint32,uint256)[])": {
        "notice": "Sets the gas amount dispatched for each configured domain."
      },
      "setDestinationGas(uint32,uint256)": {
        "notice": "Sets the gas amount dispatched for each configured domain."
      },
      "setHook(address)": {
        "notice": "Sets the address of the application's custom hook."
      },
      "setInterchainSecurityModule(address)": {
        "notice": "Sets the address of the application's custom interchain security module."
      },
      "transferRemote(uint32,bytes32,uint256)": {
        "notice": "Transfers `_amountOrId` token to `_recipient` on `_destination` domain."
      },
      "transferRemote(uint32,bytes32,uint256,bytes,address)": {
        "notice": "Transfers `_amountOrId` token to `_recipient` on `_destination` domain with a specified hook"
      },
      "unenrollRemoteRouter(uint32)": {
        "notice": "Unregister the domain"
      },
      "unenrollRemoteRouters(uint32[])": {
        "notice": "Batch version of `unenrollRemoteRouter`"
      }
    },
    "version": 1
  },
  "storageLayout": {
    "storage": [
      {
        "astId": 2935,
        "contract": "contracts/MyCustomHypERC20Collateral.sol:MyCustomHypERC20Collateral",
        "label": "_initialized",
        "offset": 0,
        "slot": "0",
        "type": "t_uint8"
      },
      {
        "astId": 2938,
        "contract": "contracts/MyCustomHypERC20Collateral.sol:MyCustomHypERC20Collateral",
        "label": "_initializing",
        "offset": 1,
        "slot": "0",
        "type": "t_bool"
      },
      {
        "astId": 7315,
        "contract": "contracts/MyCustomHypERC20Collateral.sol:MyCustomHypERC20Collateral",
        "label": "__gap",
        "offset": 0,
        "slot": "1",
        "type": "t_array(t_uint256)50_storage"
      },
      {
        "astId": 2807,
        "contract": "contracts/MyCustomHypERC20Collateral.sol:MyCustomHypERC20Collateral",
        "label": "_owner",
        "offset": 0,
        "slot": "51",
        "type": "t_address"
      },
      {
        "astId": 2927,
        "contract": "contracts/MyCustomHypERC20Collateral.sol:MyCustomHypERC20Collateral",
        "label": "__gap",
        "offset": 0,
        "slot": "52",
        "type": "t_array(t_uint256)49_storage"
      },
      {
        "astId": 227,
        "contract": "contracts/MyCustomHypERC20Collateral.sol:MyCustomHypERC20Collateral",
        "label": "hook",
        "offset": 0,
        "slot": "101",
        "type": "t_contract(IPostDispatchHook)1378"
      },
      {
        "astId": 230,
        "contract": "contracts/MyCustomHypERC20Collateral.sol:MyCustomHypERC20Collateral",
        "label": "interchainSecurityModule",
        "offset": 0,
        "slot": "102",
        "type": "t_contract(IInterchainSecurityModule)1143"
      },
      {
        "astId": 234,
        "contract": "contracts/MyCustomHypERC20Collateral.sol:MyCustomHypERC20Collateral",
        "label": "__GAP",
        "offset": 0,
        "slot": "103",
        "type": "t_array(t_uint256)48_storage"
      },
      {
        "astId": 438,
        "contract": "contracts/MyCustomHypERC20Collateral.sol:MyCustomHypERC20Collateral",
        "label": "_routers",
        "offset": 0,
        "slot": "151",
        "type": "t_struct(UintToBytes32Map)1394_storage"
      },
      {
        "astId": 442,
        "contract": "contracts/MyCustomHypERC20Collateral.sol:MyCustomHypERC20Collateral",
        "label": "__GAP",
        "offset": 0,
        "slot": "154",
        "type": "t_array(t_uint256)48_storage"
      },
      {
        "astId": 24,
        "contract": "contracts/MyCustomHypERC20Collateral.sol:MyCustomHypERC20Collateral",
        "label": "destinationGas",
        "offset": 0,
        "slot": "202",
        "type": "t_mapping(t_uint32,t_uint256)"
      }
    ],
    "types": {
      "t_address": {
        "encoding": "inplace",
        "label": "address",
        "numberOfBytes": "20"
      },
      "t_array(t_bytes32)dyn_storage": {
        "base": "t_bytes32",
        "encoding": "dynamic_array",
        "label": "bytes32[]",
        "numberOfBytes": "32"
      },
      "t_array(t_uint256)48_storage": {
        "base": "t_uint256",
        "encoding": "inplace",
        "label": "uint256[48]",
        "numberOfBytes": "1536"
      },
      "t_array(t_uint256)49_storage": {
        "base": "t_uint256",
        "encoding": "inplace",
        "label": "uint256[49]",
        "numberOfBytes": "1568"
      },
      "t_array(t_uint256)50_storage": {
        "base": "t_uint256",
        "encoding": "inplace",
        "label": "uint256[50]",
        "numberOfBytes": "1600"
      },
      "t_bool": {
        "encoding": "inplace",
        "label": "bool",
        "numberOfBytes": "1"
      },
      "t_bytes32": {
        "encoding": "inplace",
        "label": "bytes32",
        "numberOfBytes": "32"
      },
      "t_contract(IInterchainSecurityModule)1143": {
        "encoding": "inplace",
        "label": "contract IInterchainSecurityModule",
        "numberOfBytes": "20"
      },
      "t_contract(IPostDispatchHook)1378": {
        "encoding": "inplace",
        "label": "contract IPostDispatchHook",
        "numberOfBytes": "20"
      },
      "t_mapping(t_bytes32,t_bytes32)": {
        "encoding": "mapping",
        "key": "t_bytes32",
        "label": "mapping(bytes32 => bytes32)",
        "numberOfBytes": "32",
        "value": "t_bytes32"
      },
      "t_mapping(t_bytes32,t_uint256)": {
        "encoding": "mapping",
        "key": "t_bytes32",
        "label": "mapping(bytes32 => uint256)",
        "numberOfBytes": "32",
        "value": "t_uint256"
      },
      "t_mapping(t_uint32,t_uint256)": {
        "encoding": "mapping",
        "key": "t_uint32",
        "label": "mapping(uint32 => uint256)",
        "numberOfBytes": "32",
        "value": "t_uint256"
      },
      "t_struct(Bytes32Set)16916_storage": {
        "encoding": "inplace",
        "label": "struct EnumerableSet.Bytes32Set",
        "members": [
          {
            "astId": 16915,
            "contract": "contracts/MyCustomHypERC20Collateral.sol:MyCustomHypERC20Collateral",
            "label": "_inner",
            "offset": 0,
            "slot": "0",
            "type": "t_struct(Set)16722_storage"
          }
        ],
        "numberOfBytes": "64"
      },
      "t_struct(Bytes32ToBytes32Map)15469_storage": {
        "encoding": "inplace",
        "label": "struct EnumerableMap.Bytes32ToBytes32Map",
        "members": [
          {
            "astId": 15464,
            "contract": "contracts/MyCustomHypERC20Collateral.sol:MyCustomHypERC20Collateral",
            "label": "_keys",
            "offset": 0,
            "slot": "0",
            "type": "t_struct(Bytes32Set)16916_storage"
          },
          {
            "astId": 15468,
            "contract": "contracts/MyCustomHypERC20Collateral.sol:MyCustomHypERC20Collateral",
            "label": "_values",
            "offset": 0,
            "slot": "2",
            "type": "t_mapping(t_bytes32,t_bytes32)"
          }
        ],
        "numberOfBytes": "96"
      },
      "t_struct(Set)16722_storage": {
        "encoding": "inplace",
        "label": "struct EnumerableSet.Set",
        "members": [
          {
            "astId": 16717,
            "contract": "contracts/MyCustomHypERC20Collateral.sol:MyCustomHypERC20Collateral",
            "label": "_values",
            "offset": 0,
            "slot": "0",
            "type": "t_array(t_bytes32)dyn_storage"
          },
          {
            "astId": 16721,
            "contract": "contracts/MyCustomHypERC20Collateral.sol:MyCustomHypERC20Collateral",
            "label": "_indexes",
            "offset": 0,
            "slot": "1",
            "type": "t_mapping(t_bytes32,t_uint256)"
          }
        ],
        "numberOfBytes": "64"
      },
      "t_struct(UintToBytes32Map)1394_storage": {
        "encoding": "inplace",
        "label": "struct EnumerableMapExtended.UintToBytes32Map",
        "members": [
          {
            "astId": 1393,
            "contract": "contracts/MyCustomHypERC20Collateral.sol:MyCustomHypERC20Collateral",
            "label": "_inner",
            "offset": 0,
            "slot": "0",
            "type": "t_struct(Bytes32ToBytes32Map)15469_storage"
          }
        ],
        "numberOfBytes": "96"
      },
      "t_uint256": {
        "encoding": "inplace",
        "label": "uint256",
        "numberOfBytes": "32"
      },
      "t_uint32": {
        "encoding": "inplace",
        "label": "uint32",
        "numberOfBytes": "4"
      },
      "t_uint8": {
        "encoding": "inplace",
        "label": "uint8",
        "numberOfBytes": "1"
      }
    }
  }
}