{
  "address": "0xE8f2968358F742c19508C3811e011a3b43Aab6E6",
  "abi": [
    {
      "inputs": [
        {
          "internalType": "string",
          "name": "_name",
          "type": "string"
        },
        {
          "internalType": "string",
          "name": "_symbol",
          "type": "string"
        },
        {
          "internalType": "string",
          "name": "_uri",
          "type": "string"
        }
      ],
      "stateMutability": "nonpayable",
      "type": "constructor"
    },
    {
      "anonymous": false,
      "inputs": [
        {
          "indexed": true,
          "internalType": "address",
          "name": "account",
          "type": "address"
        },
        {
          "indexed": true,
          "internalType": "address",
          "name": "operator",
          "type": "address"
        },
        {
          "indexed": false,
          "internalType": "bool",
          "name": "approved",
          "type": "bool"
        }
      ],
      "name": "ApprovalForAll",
      "type": "event"
    },
    {
      "anonymous": false,
      "inputs": [
        {
          "indexed": true,
          "internalType": "address",
          "name": "previousOwner",
          "type": "address"
        },
        {
          "indexed": true,
          "internalType": "address",
          "name": "newOwner",
          "type": "address"
        }
      ],
      "name": "OwnershipTransferred",
      "type": "event"
    },
    {
      "anonymous": false,
      "inputs": [
        {
          "indexed": true,
          "internalType": "address",
          "name": "operator",
          "type": "address"
        },
        {
          "indexed": true,
          "internalType": "address",
          "name": "from",
          "type": "address"
        },
        {
          "indexed": true,
          "internalType": "address",
          "name": "to",
          "type": "address"
        },
        {
          "indexed": false,
          "internalType": "uint256[]",
          "name": "ids",
          "type": "uint256[]"
        },
        {
          "indexed": false,
          "internalType": "uint256[]",
          "name": "values",
          "type": "uint256[]"
        }
      ],
      "name": "TransferBatch",
      "type": "event"
    },
    {
      "anonymous": false,
      "inputs": [
        {
          "indexed": true,
          "internalType": "address",
          "name": "operator",
          "type": "address"
        },
        {
          "indexed": true,
          "internalType": "address",
          "name": "from",
          "type": "address"
        },
        {
          "indexed": true,
          "internalType": "address",
          "name": "to",
          "type": "address"
        },
        {
          "indexed": false,
          "internalType": "uint256",
          "name": "id",
          "type": "uint256"
        },
        {
          "indexed": false,
          "internalType": "uint256",
          "name": "value",
          "type": "uint256"
        }
      ],
      "name": "TransferSingle",
      "type": "event"
    },
    {
      "anonymous": false,
      "inputs": [
        {
          "indexed": false,
          "internalType": "string",
          "name": "value",
          "type": "string"
        },
        {
          "indexed": true,
          "internalType": "uint256",
          "name": "id",
          "type": "uint256"
        }
      ],
      "name": "URI",
      "type": "event"
    },
    {
      "inputs": [
        {
          "internalType": "address",
          "name": "account",
          "type": "address"
        },
        {
          "internalType": "uint256",
          "name": "id",
          "type": "uint256"
        }
      ],
      "name": "balanceOf",
      "outputs": [
        {
          "internalType": "uint256",
          "name": "",
          "type": "uint256"
        }
      ],
      "stateMutability": "view",
      "type": "function"
    },
    {
      "inputs": [
        {
          "internalType": "address[]",
          "name": "accounts",
          "type": "address[]"
        },
        {
          "internalType": "uint256[]",
          "name": "ids",
          "type": "uint256[]"
        }
      ],
      "name": "balanceOfBatch",
      "outputs": [
        {
          "internalType": "uint256[]",
          "name": "",
          "type": "uint256[]"
        }
      ],
      "stateMutability": "view",
      "type": "function"
    },
    {
      "inputs": [
        {
          "internalType": "address",
          "name": "account",
          "type": "address"
        },
        {
          "internalType": "uint256",
          "name": "id",
          "type": "uint256"
        },
        {
          "internalType": "uint256",
          "name": "value",
          "type": "uint256"
        }
      ],
      "name": "burn",
      "outputs": [],
      "stateMutability": "nonpayable",
      "type": "function"
    },
    {
      "inputs": [
        {
          "internalType": "address",
          "name": "account",
          "type": "address"
        },
        {
          "internalType": "uint256[]",
          "name": "ids",
          "type": "uint256[]"
        },
        {
          "internalType": "uint256[]",
          "name": "values",
          "type": "uint256[]"
        }
      ],
      "name": "burnBatch",
      "outputs": [],
      "stateMutability": "nonpayable",
      "type": "function"
    },
    {
      "inputs": [
        {
          "internalType": "uint256",
          "name": "id",
          "type": "uint256"
        }
      ],
      "name": "exists",
      "outputs": [
        {
          "internalType": "bool",
          "name": "",
          "type": "bool"
        }
      ],
      "stateMutability": "view",
      "type": "function"
    },
    {
      "inputs": [
        {
          "internalType": "address",
          "name": "account",
          "type": "address"
        },
        {
          "internalType": "address",
          "name": "operator",
          "type": "address"
        }
      ],
      "name": "isApprovedForAll",
      "outputs": [
        {
          "internalType": "bool",
          "name": "",
          "type": "bool"
        }
      ],
      "stateMutability": "view",
      "type": "function"
    },
    {
      "inputs": [
        {
          "internalType": "address",
          "name": "account",
          "type": "address"
        },
        {
          "internalType": "uint256",
          "name": "id",
          "type": "uint256"
        },
        {
          "internalType": "uint256",
          "name": "amount",
          "type": "uint256"
        },
        {
          "internalType": "bytes",
          "name": "data",
          "type": "bytes"
        }
      ],
      "name": "mint",
      "outputs": [],
      "stateMutability": "nonpayable",
      "type": "function"
    },
    {
      "inputs": [
        {
          "internalType": "address",
          "name": "to",
          "type": "address"
        },
        {
          "internalType": "uint256[]",
          "name": "ids",
          "type": "uint256[]"
        },
        {
          "internalType": "uint256[]",
          "name": "amounts",
          "type": "uint256[]"
        },
        {
          "internalType": "bytes",
          "name": "data",
          "type": "bytes"
        }
      ],
      "name": "mintBatch",
      "outputs": [],
      "stateMutability": "nonpayable",
      "type": "function"
    },
    {
      "inputs": [],
      "name": "name",
      "outputs": [
        {
          "internalType": "string",
          "name": "",
          "type": "string"
        }
      ],
      "stateMutability": "view",
      "type": "function"
    },
    {
      "inputs": [],
      "name": "owner",
      "outputs": [
        {
          "internalType": "address",
          "name": "",
          "type": "address"
        }
      ],
      "stateMutability": "view",
      "type": "function"
    },
    {
      "inputs": [],
      "name": "renounceOwnership",
      "outputs": [],
      "stateMutability": "nonpayable",
      "type": "function"
    },
    {
      "inputs": [
        {
          "internalType": "address",
          "name": "from",
          "type": "address"
        },
        {
          "internalType": "address",
          "name": "to",
          "type": "address"
        },
        {
          "internalType": "uint256[]",
          "name": "ids",
          "type": "uint256[]"
        },
        {
          "internalType": "uint256[]",
          "name": "amounts",
          "type": "uint256[]"
        },
        {
          "internalType": "bytes",
          "name": "data",
          "type": "bytes"
        }
      ],
      "name": "safeBatchTransferFrom",
      "outputs": [],
      "stateMutability": "nonpayable",
      "type": "function"
    },
    {
      "inputs": [
        {
          "internalType": "address",
          "name": "from",
          "type": "address"
        },
        {
          "internalType": "address",
          "name": "to",
          "type": "address"
        },
        {
          "internalType": "uint256",
          "name": "id",
          "type": "uint256"
        },
        {
          "internalType": "uint256",
          "name": "amount",
          "type": "uint256"
        },
        {
          "internalType": "bytes",
          "name": "data",
          "type": "bytes"
        }
      ],
      "name": "safeTransferFrom",
      "outputs": [],
      "stateMutability": "nonpayable",
      "type": "function"
    },
    {
      "inputs": [
        {
          "internalType": "address",
          "name": "operator",
          "type": "address"
        },
        {
          "internalType": "bool",
          "name": "approved",
          "type": "bool"
        }
      ],
      "name": "setApprovalForAll",
      "outputs": [],
      "stateMutability": "nonpayable",
      "type": "function"
    },
    {
      "inputs": [
        {
          "internalType": "string",
          "name": "newuri",
          "type": "string"
        }
      ],
      "name": "setURI",
      "outputs": [],
      "stateMutability": "nonpayable",
      "type": "function"
    },
    {
      "inputs": [
        {
          "internalType": "bytes4",
          "name": "interfaceId",
          "type": "bytes4"
        }
      ],
      "name": "supportsInterface",
      "outputs": [
        {
          "internalType": "bool",
          "name": "",
          "type": "bool"
        }
      ],
      "stateMutability": "view",
      "type": "function"
    },
    {
      "inputs": [],
      "name": "symbol",
      "outputs": [
        {
          "internalType": "string",
          "name": "",
          "type": "string"
        }
      ],
      "stateMutability": "view",
      "type": "function"
    },
    {
      "inputs": [
        {
          "internalType": "uint256",
          "name": "id",
          "type": "uint256"
        }
      ],
      "name": "totalSupply",
      "outputs": [
        {
          "internalType": "uint256",
          "name": "",
          "type": "uint256"
        }
      ],
      "stateMutability": "view",
      "type": "function"
    },
    {
      "inputs": [
        {
          "internalType": "address",
          "name": "newOwner",
          "type": "address"
        }
      ],
      "name": "transferOwnership",
      "outputs": [],
      "stateMutability": "nonpayable",
      "type": "function"
    },
    {
      "inputs": [
        {
          "internalType": "uint256",
          "name": "",
          "type": "uint256"
        }
      ],
      "name": "uri",
      "outputs": [
        {
          "internalType": "string",
          "name": "",
          "type": "string"
        }
      ],
      "stateMutability": "view",
      "type": "function"
    }
  ],
  "transactionHash": "0xd457540e8493b5171486928dfc0fbeaf78c880a8efd11dceeb093ba9d7def156",
  "args": [
    "My NFT Collection",
    "MNFT",
    "ipfs://YOUR_IPFS_CID/"
  ],
  "numDeployments": 1,
  "solcInputHash": "c591ad0f41755411d91c7c85bd4b1b87",
  "bytecode": "0x608060405234801561001057600080fd5b506040516128ed3803806128ed83398101604081905261002f91610180565b8061003981610065565b5061004333610075565b600561004f848261029e565b50600661005c838261029e565b5050505061035c565b6002610071828261029e565b5050565b600380546001600160a01b038381166001600160a01b0319831681179093556040519116919082907f8be0079c531659141344cd1fd0a4f28419497f9722a3daafe3b4186f6b6457e090600090a35050565b634e487b7160e01b600052604160045260246000fd5b600082601f8301126100ee57600080fd5b81516001600160401b03811115610107576101076100c7565b604051601f8201601f19908116603f011681016001600160401b0381118282101715610135576101356100c7565b60405281815283820160200185101561014d57600080fd5b60005b8281101561016c57602081860181015183830182015201610150565b506000918101602001919091529392505050565b60008060006060848603121561019557600080fd5b83516001600160401b038111156101ab57600080fd5b6101b7868287016100dd565b602086015190945090506001600160401b038111156101d557600080fd5b6101e1868287016100dd565b604086015190935090506001600160401b038111156101ff57600080fd5b61020b868287016100dd565b9150509250925092565b600181811c9082168061022957607f821691505b60208210810361024957634e487b7160e01b600052602260045260246000fd5b50919050565b601f82111561029957806000526020600020601f840160051c810160208510156102765750805b601f840160051c820191505b818110156102965760008155600101610282565b50505b505050565b81516001600160401b038111156102b7576102b76100c7565b6102cb816102c58454610215565b8461024f565b6020601f8211600181146102ff57600083156102e75750848201515b600019600385901b1c1916600184901b178455610296565b600084815260208120601f198516915b8281101561032f578785015182556020948501946001909201910161030f565b508482101561034d5786840151600019600387901b60f8161c191681555b50505050600190811b01905550565b6125828061036b6000396000f3fe608060405234801561001057600080fd5b506004361061016b5760003560e01c8063715018a6116100cd578063bd85b03911610081578063f242432a11610066578063f242432a1461031e578063f2fde38b14610331578063f5298aca1461034457600080fd5b8063bd85b039146102c2578063e985e9c5146102e257600080fd5b80638da5cb5b116100b25780638da5cb5b1461028c57806395d89b41146102a7578063a22cb465146102af57600080fd5b8063715018a614610271578063731133e91461027957600080fd5b80631f7fdffa116101245780634e1273f4116101095780634e1273f41461021c5780634f558e791461023c5780636b20c4541461025e57600080fd5b80631f7fdffa146101f65780632eb2c2d61461020957600080fd5b806302fe53051161015557806302fe5305146101b957806306fdde03146101ce5780630e89341c146101e357600080fd5b8062fdd58e1461017057806301ffc9a714610196575b600080fd5b61018361017e366004611b6a565b610357565b6040519081526020015b60405180910390f35b6101a96101a4366004611baa565b610403565b604051901515815260200161018d565b6101cc6101c7366004611c74565b61049e565b005b6101d66104b2565b60405161018d9190611d0b565b6101d66101f1366004611d1e565b610540565b6101cc610204366004611def565b6105d4565b6101cc610217366004611e94565b6105ee565b61022f61022a366004611f4a565b610681565b60405161018d919061205b565b6101a961024a366004611d1e565b600090815260046020526040902054151590565b6101cc61026c36600461206e565b6107b7565b6101cc610846565b6101cc6102873660046120e7565b61085a565b6003546040516001600160a01b03909116815260200161018d565b6101d661086e565b6101cc6102bd366004612130565b61087b565b6101836102d0366004611d1e565b60009081526004602052604090205490565b6101a96102f036600461216c565b6001600160a01b03918216600090815260016020908152604080832093909416825291909152205460ff1690565b6101cc61032c36600461219f565b61088a565b6101cc61033f3660046121f8565b610916565b6101cc610352366004612213565b6109a3565b60006001600160a01b0383166103da5760405162461bcd60e51b815260206004820152602a60248201527f455243313135353a2061646472657373207a65726f206973206e6f742061207660448201527f616c6964206f776e65720000000000000000000000000000000000000000000060648201526084015b60405180910390fd5b506000818152602081815260408083206001600160a01b03861684529091529020545b92915050565b60006001600160e01b031982167fd9b67a2600000000000000000000000000000000000000000000000000000000148061046657506001600160e01b031982167f0e89341c00000000000000000000000000000000000000000000000000000000145b806103fd57507f01ffc9a7000000000000000000000000000000000000000000000000000000006001600160e01b03198316146103fd565b6104a6610a2d565b6104af81610a87565b50565b600580546104bf90612246565b80601f01602080910402602001604051908101604052809291908181526020018280546104eb90612246565b80156105385780601f1061050d57610100808354040283529160200191610538565b820191906000526020600020905b81548152906001019060200180831161051b57829003601f168201915b505050505081565b60606002805461054f90612246565b80601f016020809104026020016040519081016040528092919081815260200182805461057b90612246565b80156105c85780601f1061059d576101008083540402835291602001916105c8565b820191906000526020600020905b8154815290600101906020018083116105ab57829003601f168201915b50505050509050919050565b6105dc610a2d565b6105e884848484610a93565b50505050565b6001600160a01b03851633148061060a575061060a85336102f0565b61066d5760405162461bcd60e51b815260206004820152602e60248201527f455243313135353a2063616c6c6572206973206e6f7420746f6b656e206f776e60448201526d195c881bdc88185c1c1c9bdd995960921b60648201526084016103d1565b61067a8585858585610c5d565b5050505050565b606081518351146106fa5760405162461bcd60e51b815260206004820152602960248201527f455243313135353a206163636f756e747320616e6420696473206c656e67746860448201527f206d69736d61746368000000000000000000000000000000000000000000000060648201526084016103d1565b6000835167ffffffffffffffff81111561071657610716611bce565b60405190808252806020026020018201604052801561073f578160200160208202803683370190505b50905060005b84518110156107af5761078a85828151811061076357610763612280565b602002602001015185838151811061077d5761077d612280565b6020026020010151610357565b82828151811061079c5761079c612280565b6020908102919091010152600101610745565b509392505050565b6001600160a01b0383163314806107d357506107d383336102f0565b6108365760405162461bcd60e51b815260206004820152602e60248201527f455243313135353a2063616c6c6572206973206e6f7420746f6b656e206f776e60448201526d195c881bdc88185c1c1c9bdd995960921b60648201526084016103d1565b610841838383610ec2565b505050565b61084e610a2d565b610858600061110d565b565b610862610a2d565b6105e884848484611177565b600680546104bf90612246565b61088633838361129a565b5050565b6001600160a01b0385163314806108a657506108a685336102f0565b6109095760405162461bcd60e51b815260206004820152602e60248201527f455243313135353a2063616c6c6572206973206e6f7420746f6b656e206f776e60448201526d195c881bdc88185c1c1c9bdd995960921b60648201526084016103d1565b61067a858585858561138e565b61091e610a2d565b6001600160a01b03811661099a5760405162461bcd60e51b815260206004820152602660248201527f4f776e61626c653a206e6577206f776e657220697320746865207a65726f206160448201527f646472657373000000000000000000000000000000000000000000000000000060648201526084016103d1565b6104af8161110d565b6001600160a01b0383163314806109bf57506109bf83336102f0565b610a225760405162461bcd60e51b815260206004820152602e60248201527f455243313135353a2063616c6c6572206973206e6f7420746f6b656e206f776e60448201526d195c881bdc88185c1c1c9bdd995960921b60648201526084016103d1565b610841838383611547565b6003546001600160a01b031633146108585760405162461bcd60e51b815260206004820181905260248201527f4f776e61626c653a2063616c6c6572206973206e6f7420746865206f776e657260448201526064016103d1565b600261088682826122dd565b6001600160a01b038416610af35760405162461bcd60e51b815260206004820152602160248201527f455243313135353a206d696e7420746f20746865207a65726f206164647265736044820152607360f81b60648201526084016103d1565b8151835114610b555760405162461bcd60e51b815260206004820152602860248201527f455243313135353a2069647320616e6420616d6f756e7473206c656e677468206044820152670dad2e6dac2e8c6d60c31b60648201526084016103d1565b33610b65816000878787876116d7565b60005b8451811015610bf557838181518110610b8357610b83612280565b6020026020010151600080878481518110610ba057610ba0612280565b602002602001015181526020019081526020016000206000886001600160a01b03166001600160a01b031681526020019081526020016000206000828254610be8919061239c565b9091555050600101610b68565b50846001600160a01b031660006001600160a01b0316826001600160a01b03167f4a39dc06d4c0dbc64b70af90fd698a233a518aa5d07e595d983b8c0526c8f7fb8787604051610c469291906123bd565b60405180910390a461067a816000878787876116e5565b8151835114610cbf5760405162461bcd60e51b815260206004820152602860248201527f455243313135353a2069647320616e6420616d6f756e7473206c656e677468206044820152670dad2e6dac2e8c6d60c31b60648201526084016103d1565b6001600160a01b038416610d235760405162461bcd60e51b815260206004820152602560248201527f455243313135353a207472616e7366657220746f20746865207a65726f206164604482015264647265737360d81b60648201526084016103d1565b33610d328187878787876116d7565b60005b8451811015610e54576000858281518110610d5257610d52612280565b602002602001015190506000858381518110610d7057610d70612280565b602090810291909101810151600084815280835260408082206001600160a01b038e168352909352919091205490915081811015610e035760405162461bcd60e51b815260206004820152602a60248201527f455243313135353a20696e73756666696369656e742062616c616e636520666f60448201526939103a3930b739b332b960b11b60648201526084016103d1565b6000838152602081815260408083206001600160a01b038e8116855292528083208585039055908b16825281208054849290610e4090849061239c565b909155505060019093019250610d35915050565b50846001600160a01b0316866001600160a01b0316826001600160a01b03167f4a39dc06d4c0dbc64b70af90fd698a233a518aa5d07e595d983b8c0526c8f7fb8787604051610ea49291906123bd565b60405180910390a4610eba8187878787876116e5565b505050505050565b6001600160a01b038316610f245760405162461bcd60e51b815260206004820152602360248201527f455243313135353a206275726e2066726f6d20746865207a65726f206164647260448201526265737360e81b60648201526084016103d1565b8051825114610f865760405162461bcd60e51b815260206004820152602860248201527f455243313135353a2069647320616e6420616d6f756e7473206c656e677468206044820152670dad2e6dac2e8c6d60c31b60648201526084016103d1565b6000339050610fa9818560008686604051806020016040528060008152506116d7565b60005b83518110156110a0576000848281518110610fc957610fc9612280565b602002602001015190506000848381518110610fe757610fe7612280565b602090810291909101810151600084815280835260408082206001600160a01b038c1683529093529190912054909150818110156110735760405162461bcd60e51b8152602060048201526024808201527f455243313135353a206275726e20616d6f756e7420657863656564732062616c604482015263616e636560e01b60648201526084016103d1565b6000928352602083815260408085206001600160a01b038b16865290915290922091039055600101610fac565b5060006001600160a01b0316846001600160a01b0316826001600160a01b03167f4a39dc06d4c0dbc64b70af90fd698a233a518aa5d07e595d983b8c0526c8f7fb86866040516110f19291906123bd565b60405180910390a46040805160208101909152600090526105e8565b600380546001600160a01b038381167fffffffffffffffffffffffff0000000000000000000000000000000000000000831681179093556040519116919082907f8be0079c531659141344cd1fd0a4f28419497f9722a3daafe3b4186f6b6457e090600090a35050565b6001600160a01b0384166111d75760405162461bcd60e51b815260206004820152602160248201527f455243313135353a206d696e7420746f20746865207a65726f206164647265736044820152607360f81b60648201526084016103d1565b3360006111e38561188a565b905060006111f08561188a565b9050611201836000898585896116d7565b6000868152602081815260408083206001600160a01b038b1684529091528120805487929061123190849061239c565b909155505060408051878152602081018790526001600160a01b03808a1692600092918716917fc3d58168c5ae7397731d063d5bbf3d657854427343f4c083240f7aacaa2d0f62910160405180910390a4611291836000898989896118d5565b50505050505050565b816001600160a01b0316836001600160a01b0316036113215760405162461bcd60e51b815260206004820152602960248201527f455243313135353a2073657474696e6720617070726f76616c2073746174757360448201527f20666f722073656c66000000000000000000000000000000000000000000000060648201526084016103d1565b6001600160a01b03838116600081815260016020908152604080832094871680845294825291829020805460ff191686151590811790915591519182527f17307eab39ab6107e8899845ad3d59bd9653f200f220920489ca2b5937696c31910160405180910390a3505050565b6001600160a01b0384166113f25760405162461bcd60e51b815260206004820152602560248201527f455243313135353a207472616e7366657220746f20746865207a65726f206164604482015264647265737360d81b60648201526084016103d1565b3360006113fe8561188a565b9050600061140b8561188a565b905061141b8389898585896116d7565b6000868152602081815260408083206001600160a01b038c1684529091529020548581101561149f5760405162461bcd60e51b815260206004820152602a60248201527f455243313135353a20696e73756666696369656e742062616c616e636520666f60448201526939103a3930b739b332b960b11b60648201526084016103d1565b6000878152602081815260408083206001600160a01b038d8116855292528083208985039055908a168252812080548892906114dc90849061239c565b909155505060408051888152602081018890526001600160a01b03808b16928c821692918816917fc3d58168c5ae7397731d063d5bbf3d657854427343f4c083240f7aacaa2d0f62910160405180910390a461153c848a8a8a8a8a6118d5565b505050505050505050565b6001600160a01b0383166115a95760405162461bcd60e51b815260206004820152602360248201527f455243313135353a206275726e2066726f6d20746865207a65726f206164647260448201526265737360e81b60648201526084016103d1565b3360006115b58461188a565b905060006115c28461188a565b90506115e2838760008585604051806020016040528060008152506116d7565b6000858152602081815260408083206001600160a01b038a1684529091529020548481101561165f5760405162461bcd60e51b8152602060048201526024808201527f455243313135353a206275726e20616d6f756e7420657863656564732062616c604482015263616e636560e01b60648201526084016103d1565b6000868152602081815260408083206001600160a01b038b81168086529184528285208a8703905582518b81529384018a90529092908816917fc3d58168c5ae7397731d063d5bbf3d657854427343f4c083240f7aacaa2d0f62910160405180910390a4604080516020810190915260009052611291565b610eba8686868686866119d1565b6001600160a01b0384163b15610eba5760405163bc197c8160e01b81526001600160a01b0385169063bc197c819061172990899089908890889088906004016123eb565b6020604051808303816000875af1925050508015611764575060408051601f3d908101601f191682019092526117619181019061244e565b60015b6118195761177061246b565b806308c379a0036117a95750611784612487565b8061178f57506117ab565b8060405162461bcd60e51b81526004016103d19190611d0b565b505b60405162461bcd60e51b815260206004820152603460248201527f455243313135353a207472616e7366657220746f206e6f6e2d4552433131353560448201527f526563656976657220696d706c656d656e74657200000000000000000000000060648201526084016103d1565b6001600160e01b0319811663bc197c8160e01b146112915760405162461bcd60e51b815260206004820152602860248201527f455243313135353a204552433131353552656365697665722072656a656374656044820152676420746f6b656e7360c01b60648201526084016103d1565b604080516001808252818301909252606091600091906020808301908036833701905050905082816000815181106118c4576118c4612280565b602090810291909101015292915050565b6001600160a01b0384163b15610eba5760405163f23a6e6160e01b81526001600160a01b0385169063f23a6e61906119199089908990889088908890600401612504565b6020604051808303816000875af1925050508015611954575060408051601f3d908101601f191682019092526119519181019061244e565b60015b6119605761177061246b565b6001600160e01b0319811663f23a6e6160e01b146112915760405162461bcd60e51b815260206004820152602860248201527f455243313135353a204552433131353552656365697665722072656a656374656044820152676420746f6b656e7360c01b60648201526084016103d1565b6001600160a01b038516611a4f5760005b8351811015611a4d578281815181106119fd576119fd612280565b602002602001015160046000868481518110611a1b57611a1b612280565b602002602001015181526020019081526020016000206000828254611a40919061239c565b90915550506001016119e2565b505b6001600160a01b038416610eba5760005b8351811015611291576000848281518110611a7d57611a7d612280565b602002602001015190506000848381518110611a9b57611a9b612280565b6020026020010151905060006004600084815260200190815260200160002054905081811015611b335760405162461bcd60e51b815260206004820152602860248201527f455243313135353a206275726e20616d6f756e74206578636565647320746f7460448201527f616c537570706c7900000000000000000000000000000000000000000000000060648201526084016103d1565b60009283526004602052604090922091039055600101611a60565b80356001600160a01b0381168114611b6557600080fd5b919050565b60008060408385031215611b7d57600080fd5b611b8683611b4e565b946020939093013593505050565b6001600160e01b0319811681146104af57600080fd5b600060208284031215611bbc57600080fd5b8135611bc781611b94565b9392505050565b634e487b7160e01b600052604160045260246000fd5b601f8201601f1916810167ffffffffffffffff81118282101715611c0a57611c0a611bce565b6040525050565b60008067ffffffffffffffff841115611c2c57611c2c611bce565b50604051601f8401601f191660200190611c468282611be4565b809250848152858585011115611c5b57600080fd5b8484602083013760006020868301015250509392505050565b600060208284031215611c8657600080fd5b813567ffffffffffffffff811115611c9d57600080fd5b8201601f81018413611cae57600080fd5b611cbd84823560208401611c11565b949350505050565b6000815180845260005b81811015611ceb57602081850181015186830182015201611ccf565b506000602082860101526020601f19601f83011685010191505092915050565b602081526000611bc76020830184611cc5565b600060208284031215611d3057600080fd5b5035919050565b600067ffffffffffffffff821115611d5157611d51611bce565b5060051b60200190565b600082601f830112611d6c57600080fd5b8135611d7781611d37565b604051611d848282611be4565b80915082815260208101915060208360051b860101925085831115611da857600080fd5b602085015b83811015611dc5578035835260209283019201611dad565b5095945050505050565b600082601f830112611de057600080fd5b611bc783833560208501611c11565b60008060008060808587031215611e0557600080fd5b611e0e85611b4e565b9350602085013567ffffffffffffffff811115611e2a57600080fd5b611e3687828801611d5b565b935050604085013567ffffffffffffffff811115611e5357600080fd5b611e5f87828801611d5b565b925050606085013567ffffffffffffffff811115611e7c57600080fd5b611e8887828801611dcf565b91505092959194509250565b600080600080600060a08688031215611eac57600080fd5b611eb586611b4e565b9450611ec360208701611b4e565b9350604086013567ffffffffffffffff811115611edf57600080fd5b611eeb88828901611d5b565b935050606086013567ffffffffffffffff811115611f0857600080fd5b611f1488828901611d5b565b925050608086013567ffffffffffffffff811115611f3157600080fd5b611f3d88828901611dcf565b9150509295509295909350565b60008060408385031215611f5d57600080fd5b823567ffffffffffffffff811115611f7457600080fd5b8301601f81018513611f8557600080fd5b8035611f9081611d37565b604051611f9d8282611be4565b80915082815260208101915060208360051b850101925087831115611fc157600080fd5b6020840193505b82841015611fea57611fd984611b4e565b825260209384019390910190611fc8565b9450505050602083013567ffffffffffffffff81111561200957600080fd5b61201585828601611d5b565b9150509250929050565b600081518084526020840193506020830160005b82811015612051578151865260209586019590910190600101612033565b5093949350505050565b602081526000611bc7602083018461201f565b60008060006060848603121561208357600080fd5b61208c84611b4e565b9250602084013567ffffffffffffffff8111156120a857600080fd5b6120b486828701611d5b565b925050604084013567ffffffffffffffff8111156120d157600080fd5b6120dd86828701611d5b565b9150509250925092565b600080600080608085870312156120fd57600080fd5b61210685611b4e565b93506020850135925060408501359150606085013567ffffffffffffffff811115611e7c57600080fd5b6000806040838503121561214357600080fd5b61214c83611b4e565b91506020830135801515811461216157600080fd5b809150509250929050565b6000806040838503121561217f57600080fd5b61218883611b4e565b915061219660208401611b4e565b90509250929050565b600080600080600060a086880312156121b757600080fd5b6121c086611b4e565b94506121ce60208701611b4e565b93506040860135925060608601359150608086013567ffffffffffffffff811115611f3157600080fd5b60006020828403121561220a57600080fd5b611bc782611b4e565b60008060006060848603121561222857600080fd5b61223184611b4e565b95602085013595506040909401359392505050565b600181811c9082168061225a57607f821691505b60208210810361227a57634e487b7160e01b600052602260045260246000fd5b50919050565b634e487b7160e01b600052603260045260246000fd5b601f82111561084157806000526020600020601f840160051c810160208510156122bd5750805b601f840160051c820191505b8181101561067a57600081556001016122c9565b815167ffffffffffffffff8111156122f7576122f7611bce565b61230b816123058454612246565b84612296565b6020601f82116001811461233f57600083156123275750848201515b600019600385901b1c1916600184901b17845561067a565b600084815260208120601f198516915b8281101561236f578785015182556020948501946001909201910161234f565b508482101561238d5786840151600019600387901b60f8161c191681555b50505050600190811b01905550565b808201808211156103fd57634e487b7160e01b600052601160045260246000fd5b6040815260006123d0604083018561201f565b82810360208401526123e2818561201f565b95945050505050565b6001600160a01b03861681526001600160a01b038516602082015260a06040820152600061241c60a083018661201f565b828103606084015261242e818661201f565b905082810360808401526124428185611cc5565b98975050505050505050565b60006020828403121561246057600080fd5b8151611bc781611b94565b600060033d11156124845760046000803e5060005160e01c5b90565b600060443d10156124955790565b6040513d600319016004823e80513d602482011167ffffffffffffffff821117156124bf57505090565b808201805167ffffffffffffffff8111156124db575050505090565b3d84016003190182820160200111156124f5575050505090565b6107af60208285010185611be4565b6001600160a01b03861681526001600160a01b038516602082015283604082015282606082015260a06080820152600061254160a0830184611cc5565b97965050505050505056fea264697066735822122026d5e8e510bc853ae5ecdfe52d84f2209580cca67c847096d041a3bc5870e0f564736f6c634300081c0033",
  "devdoc": {
    "events": {
      "ApprovalForAll(address,address,bool)": {
        "details": "Emitted when `account` grants or revokes permission to `operator` to transfer their tokens, according to `approved`."
      },
      "TransferBatch(address,address,address,uint256[],uint256[])": {
        "details": "Equivalent to multiple {TransferSingle} events, where `operator`, `from` and `to` are the same for all transfers."
      },
      "TransferSingle(address,address,address,uint256,uint256)": {
        "details": "Emitted when `value` tokens of token type `id` are transferred from `from` to `to` by `operator`."
      },
      "URI(string,uint256)": {
        "details": "Emitted when the URI for token type `id` changes to `value`, if it is a non-programmatic URI. If an {URI} event was emitted for `id`, the standard https://eips.ethereum.org/EIPS/eip-1155#metadata-extensions[guarantees] that `value` will equal the value returned by {IERC1155MetadataURI-uri}."
      }
    },
    "kind": "dev",
    "methods": {
      "balanceOf(address,uint256)": {
        "details": "See {IERC1155-balanceOf}. Requirements: - `account` cannot be the zero address."
      },
      "balanceOfBatch(address[],uint256[])": {
        "details": "See {IERC1155-balanceOfBatch}. Requirements: - `accounts` and `ids` must have the same length."
      },
      "exists(uint256)": {
        "details": "Indicates whether any token exist with a given id, or not."
      },
      "isApprovedForAll(address,address)": {
        "details": "See {IERC1155-isApprovedForAll}."
      },
      "owner()": {
        "details": "Returns the address of the current owner."
      },
      "renounceOwnership()": {
        "details": "Leaves the contract without owner. It will not be possible to call `onlyOwner` functions. Can only be called by the current owner. NOTE: Renouncing ownership will leave the contract without an owner, thereby disabling any functionality that is only available to the owner."
      },
      "safeBatchTransferFrom(address,address,uint256[],uint256[],bytes)": {
        "details": "See {IERC1155-safeBatchTransferFrom}."
      },
      "safeTransferFrom(address,address,uint256,uint256,bytes)": {
        "details": "See {IERC1155-safeTransferFrom}."
      },
      "setApprovalForAll(address,bool)": {
        "details": "See {IERC1155-setApprovalForAll}."
      },
      "supportsInterface(bytes4)": {
        "details": "See {IERC165-supportsInterface}."
      },
      "totalSupply(uint256)": {
        "details": "Total amount of tokens in with a given id."
      },
      "transferOwnership(address)": {
        "details": "Transfers ownership of the contract to a new account (`newOwner`). Can only be called by the current owner."
      },
      "uri(uint256)": {
        "details": "See {IERC1155MetadataURI-uri}. This implementation returns the same URI for *all* token types. It relies on the token type ID substitution mechanism https://eips.ethereum.org/EIPS/eip-1155#metadata[defined in the EIP]. Clients calling this function must replace the `\\{id\\}` substring with the actual token type ID."
      }
    },
    "version": 1
  },
  "userdoc": {
    "kind": "user",
    "methods": {},
    "version": 1
  },
  "storageLayout": {
    "storage": [
      {
        "astId": 8765,
        "contract": "contracts/mocks/ERC1155.sol:MyERC1155",
        "label": "_balances",
        "offset": 0,
        "slot": "0",
        "type": "t_mapping(t_uint256,t_mapping(t_address,t_uint256))"
      },
      {
        "astId": 8771,
        "contract": "contracts/mocks/ERC1155.sol:MyERC1155",
        "label": "_operatorApprovals",
        "offset": 0,
        "slot": "1",
        "type": "t_mapping(t_address,t_mapping(t_address,t_bool))"
      },
      {
        "astId": 8773,
        "contract": "contracts/mocks/ERC1155.sol:MyERC1155",
        "label": "_uri",
        "offset": 0,
        "slot": "2",
        "type": "t_string_storage"
      },
      {
        "astId": 8581,
        "contract": "contracts/mocks/ERC1155.sol:MyERC1155",
        "label": "_owner",
        "offset": 0,
        "slot": "3",
        "type": "t_address"
      },
      {
        "astId": 10204,
        "contract": "contracts/mocks/ERC1155.sol:MyERC1155",
        "label": "_totalSupply",
        "offset": 0,
        "slot": "4",
        "type": "t_mapping(t_uint256,t_uint256)"
      },
      {
        "astId": 17769,
        "contract": "contracts/mocks/ERC1155.sol:MyERC1155",
        "label": "name",
        "offset": 0,
        "slot": "5",
        "type": "t_string_storage"
      },
      {
        "astId": 17771,
        "contract": "contracts/mocks/ERC1155.sol:MyERC1155",
        "label": "symbol",
        "offset": 0,
        "slot": "6",
        "type": "t_string_storage"
      }
    ],
    "types": {
      "t_address": {
        "encoding": "inplace",
        "label": "address",
        "numberOfBytes": "20"
      },
      "t_bool": {
        "encoding": "inplace",
        "label": "bool",
        "numberOfBytes": "1"
      },
      "t_mapping(t_address,t_bool)": {
        "encoding": "mapping",
        "key": "t_address",
        "label": "mapping(address => bool)",
        "numberOfBytes": "32",
        "value": "t_bool"
      },
      "t_mapping(t_address,t_mapping(t_address,t_bool))": {
        "encoding": "mapping",
        "key": "t_address",
        "label": "mapping(address => mapping(address => bool))",
        "numberOfBytes": "32",
        "value": "t_mapping(t_address,t_bool)"
      },
      "t_mapping(t_address,t_uint256)": {
        "encoding": "mapping",
        "key": "t_address",
        "label": "mapping(address => uint256)",
        "numberOfBytes": "32",
        "value": "t_uint256"
      },
      "t_mapping(t_uint256,t_mapping(t_address,t_uint256))": {
        "encoding": "mapping",
        "key": "t_uint256",
        "label": "mapping(uint256 => mapping(address => uint256))",
        "numberOfBytes": "32",
        "value": "t_mapping(t_address,t_uint256)"
      },
      "t_mapping(t_uint256,t_uint256)": {
        "encoding": "mapping",
        "key": "t_uint256",
        "label": "mapping(uint256 => uint256)",
        "numberOfBytes": "32",
        "value": "t_uint256"
      },
      "t_string_storage": {
        "encoding": "bytes",
        "label": "string",
        "numberOfBytes": "32"
      },
      "t_uint256": {
        "encoding": "inplace",
        "label": "uint256",
        "numberOfBytes": "32"
      }
    }
  }
}