{
  "address": "0xb2B4bCEF2094c7a56f4C6BDaE3c555ADC7199F3E",
  "abi": [
    {
      "inputs": [
        {
          "internalType": "address",
          "name": "_mailbox",
          "type": "address"
        }
      ],
      "stateMutability": "nonpayable",
      "type": "constructor"
    },
    {
      "inputs": [],
      "name": "EmptyArrays",
      "type": "error"
    },
    {
      "inputs": [
        {
          "internalType": "address",
          "name": "from",
          "type": "address"
        },
        {
          "internalType": "uint128",
          "name": "tokenId",
          "type": "uint128"
        },
        {
          "internalType": "uint128",
          "name": "amount",
          "type": "uint128"
        }
      ],
      "name": "InsufficientBalance",
      "type": "error"
    },
    {
      "inputs": [
        {
          "internalType": "uint128",
          "name": "tokenIdLength",
          "type": "uint128"
        },
        {
          "internalType": "uint128",
          "name": "amountLength",
          "type": "uint128"
        }
      ],
      "name": "TokenTransferLengthMismatch",
      "type": "error"
    },
    {
      "inputs": [
        {
          "internalType": "uint256",
          "name": "value",
          "type": "uint256"
        }
      ],
      "name": "TokenTransferValueTooLarge",
      "type": "error"
    },
    {
      "inputs": [],
      "name": "UseERC1155BalanceOf",
      "type": "error"
    },
    {
      "inputs": [],
      "name": "ZeroAmount",
      "type": "error"
    },
    {
      "anonymous": false,
      "inputs": [
        {
          "indexed": true,
          "internalType": "address",
          "name": "account",
          "type": "address"
        },
        {
          "indexed": true,
          "internalType": "address",
          "name": "operator",
          "type": "address"
        },
        {
          "indexed": false,
          "internalType": "bool",
          "name": "approved",
          "type": "bool"
        }
      ],
      "name": "ApprovalForAll",
      "type": "event"
    },
    {
      "anonymous": false,
      "inputs": [
        {
          "indexed": false,
          "internalType": "uint32",
          "name": "domain",
          "type": "uint32"
        },
        {
          "indexed": false,
          "internalType": "uint256",
          "name": "gas",
          "type": "uint256"
        }
      ],
      "name": "GasSet",
      "type": "event"
    },
    {
      "anonymous": false,
      "inputs": [
        {
          "indexed": false,
          "internalType": "address",
          "name": "_hook",
          "type": "address"
        }
      ],
      "name": "HookSet",
      "type": "event"
    },
    {
      "anonymous": false,
      "inputs": [
        {
          "indexed": false,
          "internalType": "uint8",
          "name": "version",
          "type": "uint8"
        }
      ],
      "name": "Initialized",
      "type": "event"
    },
    {
      "anonymous": false,
      "inputs": [
        {
          "indexed": false,
          "internalType": "address",
          "name": "_ism",
          "type": "address"
        }
      ],
      "name": "IsmSet",
      "type": "event"
    },
    {
      "anonymous": false,
      "inputs": [
        {
          "indexed": true,
          "internalType": "address",
          "name": "previousOwner",
          "type": "address"
        },
        {
          "indexed": true,
          "internalType": "address",
          "name": "newOwner",
          "type": "address"
        }
      ],
      "name": "OwnershipTransferred",
      "type": "event"
    },
    {
      "anonymous": false,
      "inputs": [
        {
          "indexed": true,
          "internalType": "uint32",
          "name": "origin",
          "type": "uint32"
        },
        {
          "indexed": true,
          "internalType": "bytes32",
          "name": "recipient",
          "type": "bytes32"
        },
        {
          "indexed": false,
          "internalType": "uint256",
          "name": "amount",
          "type": "uint256"
        }
      ],
      "name": "ReceivedTransferRemote",
      "type": "event"
    },
    {
      "anonymous": false,
      "inputs": [
        {
          "indexed": true,
          "internalType": "uint32",
          "name": "destination",
          "type": "uint32"
        },
        {
          "indexed": true,
          "internalType": "bytes32",
          "name": "recipient",
          "type": "bytes32"
        },
        {
          "indexed": false,
          "internalType": "uint256",
          "name": "amount",
          "type": "uint256"
        }
      ],
      "name": "SentTransferRemote",
      "type": "event"
    },
    {
      "anonymous": false,
      "inputs": [
        {
          "indexed": true,
          "internalType": "address",
          "name": "operator",
          "type": "address"
        },
        {
          "indexed": true,
          "internalType": "address",
          "name": "from",
          "type": "address"
        },
        {
          "indexed": true,
          "internalType": "address",
          "name": "to",
          "type": "address"
        },
        {
          "indexed": false,
          "internalType": "uint256[]",
          "name": "ids",
          "type": "uint256[]"
        },
        {
          "indexed": false,
          "internalType": "uint256[]",
          "name": "values",
          "type": "uint256[]"
        }
      ],
      "name": "TransferBatch",
      "type": "event"
    },
    {
      "anonymous": false,
      "inputs": [
        {
          "indexed": true,
          "internalType": "address",
          "name": "operator",
          "type": "address"
        },
        {
          "indexed": true,
          "internalType": "address",
          "name": "from",
          "type": "address"
        },
        {
          "indexed": true,
          "internalType": "address",
          "name": "to",
          "type": "address"
        },
        {
          "indexed": false,
          "internalType": "uint256",
          "name": "id",
          "type": "uint256"
        },
        {
          "indexed": false,
          "internalType": "uint256",
          "name": "value",
          "type": "uint256"
        }
      ],
      "name": "TransferSingle",
      "type": "event"
    },
    {
      "anonymous": false,
      "inputs": [
        {
          "indexed": false,
          "internalType": "string",
          "name": "value",
          "type": "string"
        },
        {
          "indexed": true,
          "internalType": "uint256",
          "name": "id",
          "type": "uint256"
        }
      ],
      "name": "URI",
      "type": "event"
    },
    {
      "inputs": [],
      "name": "PACKAGE_VERSION",
      "outputs": [
        {
          "internalType": "string",
          "name": "",
          "type": "string"
        }
      ],
      "stateMutability": "view",
      "type": "function"
    },
    {
      "inputs": [
        {
          "internalType": "address",
          "name": "account",
          "type": "address"
        },
        {
          "internalType": "uint256",
          "name": "id",
          "type": "uint256"
        }
      ],
      "name": "balanceOf",
      "outputs": [
        {
          "internalType": "uint256",
          "name": "",
          "type": "uint256"
        }
      ],
      "stateMutability": "view",
      "type": "function"
    },
    {
      "inputs": [
        {
          "internalType": "address",
          "name": "",
          "type": "address"
        }
      ],
      "name": "balanceOf",
      "outputs": [
        {
          "internalType": "uint256",
          "name": "",
          "type": "uint256"
        }
      ],
      "stateMutability": "pure",
      "type": "function"
    },
    {
      "inputs": [
        {
          "internalType": "address[]",
          "name": "accounts",
          "type": "address[]"
        },
        {
          "internalType": "uint256[]",
          "name": "ids",
          "type": "uint256[]"
        }
      ],
      "name": "balanceOfBatch",
      "outputs": [
        {
          "internalType": "uint256[]",
          "name": "",
          "type": "uint256[]"
        }
      ],
      "stateMutability": "view",
      "type": "function"
    },
    {
      "inputs": [
        {
          "internalType": "uint32",
          "name": "",
          "type": "uint32"
        }
      ],
      "name": "destinationGas",
      "outputs": [
        {
          "internalType": "uint256",
          "name": "",
          "type": "uint256"
        }
      ],
      "stateMutability": "view",
      "type": "function"
    },
    {
      "inputs": [],
      "name": "domains",
      "outputs": [
        {
          "internalType": "uint32[]",
          "name": "",
          "type": "uint32[]"
        }
      ],
      "stateMutability": "view",
      "type": "function"
    },
    {
      "inputs": [
        {
          "internalType": "uint32",
          "name": "_domain",
          "type": "uint32"
        },
        {
          "internalType": "bytes32",
          "name": "_router",
          "type": "bytes32"
        }
      ],
      "name": "enrollRemoteRouter",
      "outputs": [],
      "stateMutability": "nonpayable",
      "type": "function"
    },
    {
      "inputs": [
        {
          "internalType": "uint32[]",
          "name": "_domains",
          "type": "uint32[]"
        },
        {
          "internalType": "bytes32[]",
          "name": "_addresses",
          "type": "bytes32[]"
        }
      ],
      "name": "enrollRemoteRouters",
      "outputs": [],
      "stateMutability": "nonpayable",
      "type": "function"
    },
    {
      "inputs": [
        {
          "internalType": "uint256",
          "name": "id",
          "type": "uint256"
        }
      ],
      "name": "exists",
      "outputs": [
        {
          "internalType": "bool",
          "name": "",
          "type": "bool"
        }
      ],
      "stateMutability": "view",
      "type": "function"
    },
    {
      "inputs": [
        {
          "internalType": "uint32",
          "name": "_origin",
          "type": "uint32"
        },
        {
          "internalType": "bytes32",
          "name": "_sender",
          "type": "bytes32"
        },
        {
          "internalType": "bytes",
          "name": "_message",
          "type": "bytes"
        }
      ],
      "name": "handle",
      "outputs": [],
      "stateMutability": "payable",
      "type": "function"
    },
    {
      "inputs": [],
      "name": "hook",
      "outputs": [
        {
          "internalType": "contract IPostDispatchHook",
          "name": "",
          "type": "address"
        }
      ],
      "stateMutability": "view",
      "type": "function"
    },
    {
      "inputs": [
        {
          "internalType": "string",
          "name": "_uri",
          "type": "string"
        },
        {
          "internalType": "string",
          "name": "tokenName",
          "type": "string"
        },
        {
          "internalType": "string",
          "name": "tokenSymbol",
          "type": "string"
        },
        {
          "internalType": "address",
          "name": "_hook",
          "type": "address"
        },
        {
          "internalType": "address",
          "name": "_interchainSecurityModule",
          "type": "address"
        },
        {
          "internalType": "address",
          "name": "_owner",
          "type": "address"
        }
      ],
      "name": "initialize",
      "outputs": [],
      "stateMutability": "nonpayable",
      "type": "function"
    },
    {
      "inputs": [],
      "name": "interchainSecurityModule",
      "outputs": [
        {
          "internalType": "contract IInterchainSecurityModule",
          "name": "",
          "type": "address"
        }
      ],
      "stateMutability": "view",
      "type": "function"
    },
    {
      "inputs": [
        {
          "internalType": "address",
          "name": "account",
          "type": "address"
        },
        {
          "internalType": "address",
          "name": "operator",
          "type": "address"
        }
      ],
      "name": "isApprovedForAll",
      "outputs": [
        {
          "internalType": "bool",
          "name": "",
          "type": "bool"
        }
      ],
      "stateMutability": "view",
      "type": "function"
    },
    {
      "inputs": [],
      "name": "localDomain",
      "outputs": [
        {
          "internalType": "uint32",
          "name": "",
          "type": "uint32"
        }
      ],
      "stateMutability": "view",
      "type": "function"
    },
    {
      "inputs": [],
      "name": "mailbox",
      "outputs": [
        {
          "internalType": "contract IMailbox",
          "name": "",
          "type": "address"
        }
      ],
      "stateMutability": "view",
      "type": "function"
    },
    {
      "inputs": [
        {
          "internalType": "address",
          "name": "to",
          "type": "address"
        },
        {
          "internalType": "uint256",
          "name": "id",
          "type": "uint256"
        },
        {
          "internalType": "uint256",
          "name": "amount",
          "type": "uint256"
        }
      ],
      "name": "mint",
      "outputs": [],
      "stateMutability": "nonpayable",
      "type": "function"
    },
    {
      "inputs": [],
      "name": "name",
      "outputs": [
        {
          "internalType": "string",
          "name": "",
          "type": "string"
        }
      ],
      "stateMutability": "view",
      "type": "function"
    },
    {
      "inputs": [],
      "name": "owner",
      "outputs": [
        {
          "internalType": "address",
          "name": "",
          "type": "address"
        }
      ],
      "stateMutability": "view",
      "type": "function"
    },
    {
      "inputs": [
        {
          "internalType": "uint32",
          "name": "_destinationDomain",
          "type": "uint32"
        }
      ],
      "name": "quoteGasPayment",
      "outputs": [
        {
          "internalType": "uint256",
          "name": "",
          "type": "uint256"
        }
      ],
      "stateMutability": "view",
      "type": "function"
    },
    {
      "inputs": [],
      "name": "renounceOwnership",
      "outputs": [],
      "stateMutability": "nonpayable",
      "type": "function"
    },
    {
      "inputs": [
        {
          "internalType": "uint32",
          "name": "_domain",
          "type": "uint32"
        }
      ],
      "name": "routers",
      "outputs": [
        {
          "internalType": "bytes32",
          "name": "",
          "type": "bytes32"
        }
      ],
      "stateMutability": "view",
      "type": "function"
    },
    {
      "inputs": [
        {
          "internalType": "address",
          "name": "from",
          "type": "address"
        },
        {
          "internalType": "address",
          "name": "to",
          "type": "address"
        },
        {
          "internalType": "uint256[]",
          "name": "ids",
          "type": "uint256[]"
        },
        {
          "internalType": "uint256[]",
          "name": "amounts",
          "type": "uint256[]"
        },
        {
          "internalType": "bytes",
          "name": "data",
          "type": "bytes"
        }
      ],
      "name": "safeBatchTransferFrom",
      "outputs": [],
      "stateMutability": "nonpayable",
      "type": "function"
    },
    {
      "inputs": [
        {
          "internalType": "address",
          "name": "from",
          "type": "address"
        },
        {
          "internalType": "address",
          "name": "to",
          "type": "address"
        },
        {
          "internalType": "uint256",
          "name": "id",
          "type": "uint256"
        },
        {
          "internalType": "uint256",
          "name": "amount",
          "type": "uint256"
        },
        {
          "internalType": "bytes",
          "name": "data",
          "type": "bytes"
        }
      ],
      "name": "safeTransferFrom",
      "outputs": [],
      "stateMutability": "nonpayable",
      "type": "function"
    },
    {
      "inputs": [
        {
          "internalType": "address",
          "name": "operator",
          "type": "address"
        },
        {
          "internalType": "bool",
          "name": "approved",
          "type": "bool"
        }
      ],
      "name": "setApprovalForAll",
      "outputs": [],
      "stateMutability": "nonpayable",
      "type": "function"
    },
    {
      "inputs": [
        {
          "internalType": "uint32",
          "name": "domain",
          "type": "uint32"
        },
        {
          "internalType": "uint256",
          "name": "gas",
          "type": "uint256"
        }
      ],
      "name": "setDestinationGas",
      "outputs": [],
      "stateMutability": "nonpayable",
      "type": "function"
    },
    {
      "inputs": [
        {
          "components": [
            {
              "internalType": "uint32",
              "name": "domain",
              "type": "uint32"
            },
            {
              "internalType": "uint256",
              "name": "gas",
              "type": "uint256"
            }
          ],
          "internalType": "struct GasRouter.GasRouterConfig[]",
          "name": "gasConfigs",
          "type": "tuple[]"
        }
      ],
      "name": "setDestinationGas",
      "outputs": [],
      "stateMutability": "nonpayable",
      "type": "function"
    },
    {
      "inputs": [
        {
          "internalType": "address",
          "name": "_hook",
          "type": "address"
        }
      ],
      "name": "setHook",
      "outputs": [],
      "stateMutability": "nonpayable",
      "type": "function"
    },
    {
      "inputs": [
        {
          "internalType": "address",
          "name": "_module",
          "type": "address"
        }
      ],
      "name": "setInterchainSecurityModule",
      "outputs": [],
      "stateMutability": "nonpayable",
      "type": "function"
    },
    {
      "inputs": [
        {
          "internalType": "uint128",
          "name": "tokenId",
          "type": "uint128"
        },
        {
          "internalType": "string",
          "name": "newuri",
          "type": "string"
        }
      ],
      "name": "setURI",
      "outputs": [],
      "stateMutability": "nonpayable",
      "type": "function"
    },
    {
      "inputs": [
        {
          "internalType": "bytes4",
          "name": "interfaceId",
          "type": "bytes4"
        }
      ],
      "name": "supportsInterface",
      "outputs": [
        {
          "internalType": "bool",
          "name": "",
          "type": "bool"
        }
      ],
      "stateMutability": "view",
      "type": "function"
    },
    {
      "inputs": [],
      "name": "symbol",
      "outputs": [
        {
          "internalType": "string",
          "name": "",
          "type": "string"
        }
      ],
      "stateMutability": "view",
      "type": "function"
    },
    {
      "inputs": [
        {
          "internalType": "uint256",
          "name": "id",
          "type": "uint256"
        }
      ],
      "name": "totalSupply",
      "outputs": [
        {
          "internalType": "uint256",
          "name": "",
          "type": "uint256"
        }
      ],
      "stateMutability": "view",
      "type": "function"
    },
    {
      "inputs": [
        {
          "internalType": "address",
          "name": "newOwner",
          "type": "address"
        }
      ],
      "name": "transferOwnership",
      "outputs": [],
      "stateMutability": "nonpayable",
      "type": "function"
    },
    {
      "inputs": [
        {
          "internalType": "uint32",
          "name": "_destination",
          "type": "uint32"
        },
        {
          "internalType": "bytes32",
          "name": "_recipient",
          "type": "bytes32"
        },
        {
          "internalType": "uint256",
          "name": "_amountOrId",
          "type": "uint256"
        },
        {
          "internalType": "bytes",
          "name": "_hookMetadata",
          "type": "bytes"
        },
        {
          "internalType": "address",
          "name": "_hook",
          "type": "address"
        }
      ],
      "name": "transferRemote",
      "outputs": [
        {
          "internalType": "bytes32",
          "name": "messageId",
          "type": "bytes32"
        }
      ],
      "stateMutability": "payable",
      "type": "function"
    },
    {
      "inputs": [
        {
          "internalType": "uint32",
          "name": "_destination",
          "type": "uint32"
        },
        {
          "internalType": "bytes32",
          "name": "_recipient",
          "type": "bytes32"
        },
        {
          "internalType": "uint256",
          "name": "_amountOrId",
          "type": "uint256"
        }
      ],
      "name": "transferRemote",
      "outputs": [
        {
          "internalType": "bytes32",
          "name": "messageId",
          "type": "bytes32"
        }
      ],
      "stateMutability": "payable",
      "type": "function"
    },
    {
      "inputs": [
        {
          "internalType": "uint32",
          "name": "destination",
          "type": "uint32"
        },
        {
          "internalType": "bytes32",
          "name": "recipient",
          "type": "bytes32"
        },
        {
          "internalType": "uint128",
          "name": "tokenId",
          "type": "uint128"
        },
        {
          "internalType": "uint128",
          "name": "amount",
          "type": "uint128"
        }
      ],
      "name": "transferRemote",
      "outputs": [
        {
          "internalType": "bytes32",
          "name": "",
          "type": "bytes32"
        }
      ],
      "stateMutability": "payable",
      "type": "function"
    },
    {
      "inputs": [
        {
          "internalType": "uint32",
          "name": "destination",
          "type": "uint32"
        },
        {
          "internalType": "bytes32",
          "name": "recipient",
          "type": "bytes32"
        },
        {
          "internalType": "uint128[]",
          "name": "tokenIds",
          "type": "uint128[]"
        },
        {
          "internalType": "uint128[]",
          "name": "amounts",
          "type": "uint128[]"
        }
      ],
      "name": "transferRemoteBatch",
      "outputs": [
        {
          "internalType": "uint128[]",
          "name": "remainingIds",
          "type": "uint128[]"
        },
        {
          "internalType": "uint128[]",
          "name": "remainingAmounts",
          "type": "uint128[]"
        }
      ],
      "stateMutability": "payable",
      "type": "function"
    },
    {
      "inputs": [
        {
          "internalType": "uint32",
          "name": "_domain",
          "type": "uint32"
        }
      ],
      "name": "unenrollRemoteRouter",
      "outputs": [],
      "stateMutability": "nonpayable",
      "type": "function"
    },
    {
      "inputs": [
        {
          "internalType": "uint32[]",
          "name": "_domains",
          "type": "uint32[]"
        }
      ],
      "name": "unenrollRemoteRouters",
      "outputs": [],
      "stateMutability": "nonpayable",
      "type": "function"
    },
    {
      "inputs": [
        {
          "internalType": "uint256",
          "name": "tokenId",
          "type": "uint256"
        }
      ],
      "name": "uri",
      "outputs": [
        {
          "internalType": "string",
          "name": "",
          "type": "string"
        }
      ],
      "stateMutability": "view",
      "type": "function"
    }
  ],
  "transactionHash": "0x5eeb6f6b07556e28a963331912aba47b1a8ef17389b6e4d9d90aebfd7d84db4e",
  "args": [
    "0xfFAEF09B3cd11D9b20d1a19bECca54EEC2884766"
  ],
  "numDeployments": 1,
  "solcInputHash": "80a19a1af2ed25e82a416c974ae8c229",
  "bytecode": "0x60c060405234801561001057600080fd5b506040516148e33803806148e383398101604081905261002f9161016c565b80808080806001600160a01b0381163b61008f5760405162461bcd60e51b815260206004820152601e60248201527f4d61696c626f78436c69656e743a20696e76616c6964206d61696c626f780000604482015260640160405180910390fd5b6001600160a01b03821660808190526040805163234d8e3d60e21b81529051638d3638f4916004808201926020929091908290030181865afa1580156100d9573d6000803e3d6000fd5b505050506040513d601f19601f820116820180604052508101906100fd919061019c565b63ffffffff1660a05261010f3361011a565b5050505050506101c2565b60c980546001600160a01b038381166001600160a01b0319831681179093556040519116919082907f8be0079c531659141344cd1fd0a4f28419497f9722a3daafe3b4186f6b6457e090600090a35050565b60006020828403121561017e57600080fd5b81516001600160a01b038116811461019557600080fd5b9392505050565b6000602082840312156101ae57600080fd5b815163ffffffff8116811461019557600080fd5b60805160a0516146e76101fc60003960006105d601526000818161074801528181610f1c01528181612baf0152612ec501526146e76000f3fe6080604052600436106102c55760003560e01c80637f5a7c7b11610179578063bd85b039116100d6578063efae508a1161008a578063f2ed8c5311610064578063f2ed8c5314610846578063f2fde38b14610866578063f857e60b1461088657600080fd5b8063efae508a146107f3578063f158133f14610813578063f242432a1461082657600080fd5b8063de523cf3116100bb578063de523cf31461076a578063e9198bf91461078a578063e985e9c5146107aa57600080fd5b8063bd85b03914610709578063d5438eae1461073657600080fd5b806395d89b411161012d578063a22cb46511610112578063a22cb465146106a9578063b1bd6436146106c9578063b49c53a7146106e957600080fd5b806395d89b41146106745780639630c8ac1461068957600080fd5b80638d3638f41161015e5780638d3638f4146105c45780638da5cb5b1461060d57806393c448471461062b57600080fd5b80637f5a7c7b1461057957806381b4e8b4146105b157600080fd5b806349d462ef11610227578063657e1fe2116101db578063715018a6116101c0578063715018a61461051657806371a15b381461052b578063775313a11461054b57600080fd5b8063657e1fe2146104d557806370a08231146104f657600080fd5b80634f558e791161020c5780634f558e791461048057806351debffc146104af57806356d5d475146104c257600080fd5b806349d462ef146104335780634e1273f41461045357600080fd5b8063156e29f61161027e5780632eb2c2d6116102635780632eb2c2d6146103d15780633dfd3873146103f1578063440df4f41461041157600080fd5b8063156e29f6146103915780632ead72f6146103b157600080fd5b806306fdde03116102af57806306fdde031461032d5780630e72cc061461034f5780630e89341c1461037157600080fd5b8062fdd58e146102ca57806301ffc9a7146102fd575b600080fd5b3480156102d657600080fd5b506102ea6102e53660046136d7565b6108a6565b6040519081526020015b60405180910390f35b34801561030957600080fd5b5061031d610318366004613717565b610954565b60405190151581526020016102f4565b34801561033957600080fd5b5061034261095f565b6040516102f49190613784565b34801561035b57600080fd5b5061036f61036a366004613797565b6109f2565b005b34801561037d57600080fd5b5061034261038c3660046137b2565b610ad9565b34801561039d57600080fd5b5061036f6103ac3660046137cb565b610b98565b3480156103bd57600080fd5b506102ea6103cc366004613812565b610bc0565b3480156103dd57600080fd5b5061036f6103ec366004613987565b610be0565b3480156103fd57600080fd5b5061036f61040c366004613797565b610c82565b34801561041d57600080fd5b50610426610d61565b6040516102f49190613a3d565b34801561043f57600080fd5b5061036f61044e366004613a86565b610d73565b34801561045f57600080fd5b5061047361046e366004613aa2565b610d89565b6040516102f49190613bb3565b34801561048c57600080fd5b5061031d61049b3660046137b2565b600090815260976020526040902054151590565b6102ea6104bd366004613c08565b610ebf565b61036f6104d0366004613c7f565b610f11565b6104e86104e3366004613d1e565b61103d565b6040516102f4929190613de8565b34801561050257600080fd5b506102ea610511366004613797565b6113b4565b34801561052257600080fd5b5061036f6113e8565b34801561053757600080fd5b5061036f610546366004613e0d565b6113fc565b34801561055757600080fd5b506102ea610566366004613812565b6101606020526000908152604090205481565b34801561058557600080fd5b5060fb54610599906001600160a01b031681565b6040516001600160a01b0390911681526020016102f4565b6102ea6105bf366004613e4f565b611457565b3480156105d057600080fd5b506105f87f000000000000000000000000000000000000000000000000000000000000000081565b60405163ffffffff90911681526020016102f4565b34801561061957600080fd5b5060c9546001600160a01b0316610599565b34801561063757600080fd5b506103426040518060400160405280600581526020017f352e382e3300000000000000000000000000000000000000000000000000000081525081565b34801561068057600080fd5b50610342611465565b34801561069557600080fd5b5061036f6106a4366004613e6d565b611475565b3480156106b557600080fd5b5061036f6106c4366004613f26565b6115cb565b3480156106d557600080fd5b5061036f6106e4366004613f62565b6115d6565b3480156106f557600080fd5b5061036f610704366004613a86565b611647565b34801561071557600080fd5b506102ea6107243660046137b2565b60009081526097602052604090205490565b34801561074257600080fd5b506105997f000000000000000000000000000000000000000000000000000000000000000081565b34801561077657600080fd5b5060fc54610599906001600160a01b031681565b34801561079657600080fd5b5061036f6107a5366004613fd9565b611659565b3480156107b657600080fd5b5061031d6107c536600461403e565b6001600160a01b03918216600090815260666020908152604080832093909416825291909152205460ff1690565b3480156107ff57600080fd5b5061036f61080e366004613812565b61171e565b6102ea610821366004614088565b611732565b34801561083257600080fd5b5061036f6108413660046140d5565b6117da565b34801561085257600080fd5b506102ea610861366004613812565b611875565b34801561087257600080fd5b5061036f610881366004613797565b61189f565b34801561089257600080fd5b5061036f6108a136600461412e565b61192c565b60006001600160a01b0383166109295760405162461bcd60e51b815260206004820152602a60248201527f455243313135353a2061646472657373207a65726f206973206e6f742061207660448201527f616c6964206f776e65720000000000000000000000000000000000000000000060648201526084015b60405180910390fd5b5060008181526065602090815260408083206001600160a01b03861684529091529020545b92915050565b600061094e82611957565b6060610161805461096f90614172565b80601f016020809104026020016040519081016040528092919081815260200182805461099b90614172565b80156109e85780601f106109bd576101008083540402835291602001916109e8565b820191906000526020600020905b8154815290600101906020018083116109cb57829003601f168201915b5050505050905090565b806001600160a01b0381163b151580610a1257506001600160a01b038116155b610a6e5760405162461bcd60e51b815260206004820152602760248201527f4d61696c626f78436c69656e743a20696e76616c696420636f6e74726163742060448201526673657474696e6760c81b6064820152608401610920565b610a766119f2565b60fc805473ffffffffffffffffffffffffffffffffffffffff19166001600160a01b0384169081179091556040519081527fc47cbcc588c67679e52261c45cc315e56562f8d0ccaba16facb9093ff9498799906020015b60405180910390a15050565b60008181526101636020526040812080546060929190610af890614172565b80601f0160208091040260200160405190810160405280929190818152602001828054610b2490614172565b8015610b715780601f10610b4657610100808354040283529160200191610b71565b820191906000526020600020905b815481529060010190602001808311610b5457829003601f168201915b50505050509050600081511115610b885792915050565b610b9183611a4c565b9392505050565b610ba06119f2565b610bbb83838360405180602001604052806000815250611ae0565b505050565b600080610bd861012d63ffffffff80861690611c1816565b949350505050565b6001600160a01b038516331480610bfc5750610bfc85336107c5565b610c6e5760405162461bcd60e51b815260206004820152602e60248201527f455243313135353a2063616c6c6572206973206e6f7420746f6b656e206f776e60448201527f6572206f7220617070726f7665640000000000000000000000000000000000006064820152608401610920565b610c7b8585858585611c31565b5050505050565b806001600160a01b0381163b151580610ca257506001600160a01b038116155b610cfe5760405162461bcd60e51b815260206004820152602760248201527f4d61696c626f78436c69656e743a20696e76616c696420636f6e74726163742060448201526673657474696e6760c81b6064820152608401610920565b610d066119f2565b60fb805473ffffffffffffffffffffffffffffffffffffffff19166001600160a01b0384169081179091556040519081527f4eab7b127c764308788622363ad3e9532de3dfba7845bd4f84c125a22544255a90602001610acd565b6060610d6e61012d611ea6565b905090565b610d7b6119f2565b610d858282611f57565b5050565b60608151835114610e025760405162461bcd60e51b815260206004820152602960248201527f455243313135353a206163636f756e747320616e6420696473206c656e67746860448201527f206d69736d6174636800000000000000000000000000000000000000000000006064820152608401610920565b6000835167ffffffffffffffff811115610e1e57610e1e61382d565b604051908082528060200260200182016040528015610e47578160200160208202803683370190505b50905060005b8451811015610eb757610e92858281518110610e6b57610e6b6141ac565b6020026020010151858381518110610e8557610e856141ac565b60200260200101516108a6565b828281518110610ea457610ea46141ac565b6020908102919091010152600101610e4d565b509392505050565b6000610f068787873488888080601f0160208091040260200160405190810160405280939291908181526020018383808284376000920191909152508a9250611fa6915050565b979650505050505050565b336001600160a01b037f00000000000000000000000000000000000000000000000000000000000000001614610faf5760405162461bcd60e51b815260206004820152602160248201527f4d61696c626f78436c69656e743a2073656e646572206e6f74206d61696c626f60448201527f78000000000000000000000000000000000000000000000000000000000000006064820152608401610920565b6000610fba8561201f565b90508381146110315760405162461bcd60e51b815260206004820152602560248201527f456e726f6c6c656420726f7574657220646f6573206e6f74206d61746368207360448201527f656e6465720000000000000000000000000000000000000000000000000000006064820152608401610920565b610c7b8585858561206b565b60608084158061104b575082155b15611082576040517fa600c81d00000000000000000000000000000000000000000000000000000000815260040160405180910390fd5b8483146110ce576040517f19608e390000000000000000000000000000000000000000000000000000000081526001600160801b03808716600483015284166024820152604401610920565b60005b6001600160801b03811686111561138e57306381b4e8b48a8a61115b8b8b6001600160801b038816818110611108576111086141ac565b905060200201602081019061111d91906141c2565b8a8a886001600160801b0316818110611138576111386141ac565b905060200201602081019061114d91906141c2565b6001600160801b0316919050565b6040516001600160e01b031960e086901b16815263ffffffff939093166004840152602483019190915260448201526064016020604051808303816000875af19250505080156111c8575060408051601f3d908101601f191682019092526111c5918101906141dd565b60015b61137b5760006111d8828861420c565b9050806001600160801b031667ffffffffffffffff8111156111fc576111fc61382d565b604051908082528060200260200182016040528015611225578160200160208202803683370190505b509350806001600160801b031667ffffffffffffffff81111561124a5761124a61382d565b604051908082528060200260200182016040528015611273578160200160208202803683370190505b50925060005b816001600160801b0316816001600160801b0316101561137357888861129f838661422b565b6001600160801b03168181106112b7576112b76141ac565b90506020020160208101906112cc91906141c2565b85826001600160801b0316815181106112e7576112e76141ac565b6001600160801b0390921660209283029190910190910152868661130b838661422b565b6001600160801b0316818110611323576113236141ac565b905060200201602081019061133891906141c2565b84826001600160801b031681518110611353576113536141ac565b6001600160801b0390921660209283029190910190910152600101611279565b5050506113a9565b50806113868161424a565b9150506110d1565b50506040805160008082526020820190815281830190925291505b965096945050505050565b60006040517facab90bc00000000000000000000000000000000000000000000000000000000815260040160405180910390fd5b6113f06119f2565b6113fa60006120f7565b565b6114046119f2565b8060005b818110156114515761143f848483818110611425576114256141ac565b905060200201602081019061143a9190613812565b612156565b61144a600182614275565b9050611408565b50505050565b6000610bd884848434612192565b6060610162805461096f90614172565b600054610100900460ff16158080156114955750600054600160ff909116105b806114af5750303b1580156114af575060005460ff166001145b6115215760405162461bcd60e51b815260206004820152602e60248201527f496e697469616c697a61626c653a20636f6e747261637420697320616c72656160448201527f647920696e697469616c697a65640000000000000000000000000000000000006064820152608401610920565b6000805460ff191660011790558015611544576000805461ff0019166101001790555b61154d876121be565b611555612232565b61156084848461229d565b61016161156d87826142cf565b5061016261157b86826142cf565b5080156115c2576000805461ff0019169055604051600181527f7f26b83ff96e1f2b6a682f133852f6798a09c465da95921460cefb38474024989060200160405180910390a15b50505050505050565b610d8533838361232b565b6115de6119f2565b60005b81811015610bbb576116358383838181106115fe576115fe6141ac565b6116149260206040909202019081019150613812565b848484818110611626576116266141ac565b90506040020160200135611f57565b611640600182614275565b90506115e1565b61164f6119f2565b610d85828261241f565b6116616119f2565b8281146116b05760405162461bcd60e51b815260206004820152600760248201527f216c656e677468000000000000000000000000000000000000000000000000006044820152606401610920565b8260005b81811015611716576117048686838181106116d1576116d16141ac565b90506020020160208101906116e69190613812565b8585848181106116f8576116f86141ac565b9050602002013561241f565b61170f600182614275565b90506116b4565b505050505050565b6117266119f2565b61172f81612156565b50565b6000806001600160801b0383166040517f81b4e8b400000000000000000000000000000000000000000000000000000000815263ffffffff88166004820152602481018790526044810182905290915030906381b4e8b4906064016020604051808303816000875af11580156117ac573d6000803e3d6000fd5b505050506040513d601f19601f820116820180604052508101906117d091906141dd565b9695505050505050565b6001600160a01b0385163314806117f657506117f685336107c5565b6118685760405162461bcd60e51b815260206004820152602e60248201527f455243313135353a2063616c6c6572206973206e6f7420746f6b656e206f776e60448201527f6572206f7220617070726f7665640000000000000000000000000000000000006064820152608401610920565b610c7b8585858585612436565b6040805160208101909152600080825260fb54909161094e918491906001600160a01b03166125f3565b6118a76119f2565b6001600160a01b0381166119235760405162461bcd60e51b815260206004820152602660248201527f4f776e61626c653a206e6577206f776e657220697320746865207a65726f206160448201527f64647265737300000000000000000000000000000000000000000000000000006064820152608401610920565b61172f816120f7565b6119346119f2565b6001600160801b038216600090815261016360205260409020610bbb82826142cf565b60006001600160e01b031982167fd9b67a260000000000000000000000000000000000000000000000000000000014806119ba57506001600160e01b031982167f0e89341c00000000000000000000000000000000000000000000000000000000145b8061094e57507f01ffc9a7000000000000000000000000000000000000000000000000000000006001600160e01b031983161461094e565b60c9546001600160a01b031633146113fa5760405162461bcd60e51b815260206004820181905260248201527f4f776e61626c653a2063616c6c6572206973206e6f7420746865206f776e65726044820152606401610920565b606060678054611a5b90614172565b80601f0160208091040260200160405190810160405280929190818152602001828054611a8790614172565b8015611ad45780601f10611aa957610100808354040283529160200191611ad4565b820191906000526020600020905b815481529060010190602001808311611ab757829003601f168201915b50505050509050919050565b6001600160a01b038416611b5c5760405162461bcd60e51b815260206004820152602160248201527f455243313135353a206d696e7420746f20746865207a65726f2061646472657360448201527f73000000000000000000000000000000000000000000000000000000000000006064820152608401610920565b336000611b6885612609565b90506000611b7585612609565b9050611b8683600089858589612654565b60008681526065602090815260408083206001600160a01b038b16845290915281208054879290611bb8908490614275565b909155505060408051878152602081018790526001600160a01b03808a1692600092918716917fc3d58168c5ae7397731d063d5bbf3d657854427343f4c083240f7aacaa2d0f62910160405180910390a46115c283600089898989612763565b600080611c258484612908565b915091505b9250929050565b8151835114611ca85760405162461bcd60e51b815260206004820152602860248201527f455243313135353a2069647320616e6420616d6f756e7473206c656e6774682060448201527f6d69736d617463680000000000000000000000000000000000000000000000006064820152608401610920565b6001600160a01b038416611d0c5760405162461bcd60e51b815260206004820152602560248201527f455243313135353a207472616e7366657220746f20746865207a65726f206164604482015264647265737360d81b6064820152608401610920565b33611d1b818787878787612654565b60005b8451811015611e40576000858281518110611d3b57611d3b6141ac565b602002602001015190506000858381518110611d5957611d596141ac565b60209081029190910181015160008481526065835260408082206001600160a01b038e168352909352919091205490915081811015611ded5760405162461bcd60e51b815260206004820152602a60248201527f455243313135353a20696e73756666696369656e742062616c616e636520666f60448201526939103a3930b739b332b960b11b6064820152608401610920565b60008381526065602090815260408083206001600160a01b038e8116855292528083208585039055908b16825281208054849290611e2c908490614275565b909155505060019093019250611d1e915050565b50846001600160a01b0316866001600160a01b0316826001600160a01b03167f4a39dc06d4c0dbc64b70af90fd698a233a518aa5d07e595d983b8c0526c8f7fb8787604051611e9092919061438e565b60405180910390a4611716818787878787612942565b60606000611eb383612a3e565b9050805167ffffffffffffffff811115611ecf57611ecf61382d565b604051908082528060200260200182016040528015611ef8578160200160208202803683370190505b50915060005b8151811015611f5057818181518110611f1957611f196141ac565b6020026020010151838281518110611f3357611f336141ac565b63ffffffff90921660209283029190910190910152600101611efe565b5050919050565b63ffffffff821660008181526101606020908152604091829020849055815192835282018390527fc3de732a98b24a2b5c6f67e8a7fb057ffc14046b83968a2c73e4148d2fba978b9101610acd565b600080611fb286612acf565b90506000611fc1888884612b70565b9050611fd08987838888612b9f565b9250878963ffffffff167fd229aacb94204188fe8042965fa6b269c62dc5818b21238779ab64bdd17efeec8960405161200b91815260200190565b60405180910390a350509695505050505050565b6000808061203861012d63ffffffff80871690611c1816565b915091508115612049579392505050565b61205284612c45565b60405162461bcd60e51b81526004016109209190613784565b60006120778383612c7c565b905060006120858484612c94565b90503660006120948686612ca4565b915091506120ac6120a485612cb4565b848484612d36565b838863ffffffff167fba20947a325f450d232530e5f5fce293e7963499d5309a07cee84a269f2f15a6856040516120e591815260200190565b60405180910390a35050505050505050565b60c980546001600160a01b0383811673ffffffffffffffffffffffffffffffffffffffff19831681179093556040519116919082907f8be0079c531659141344cd1fd0a4f28419497f9722a3daafe3b4186f6b6457e090600090a35050565b61216b61012d63ffffffff80841690612d6516565b61217482612c45565b90610d855760405162461bcd60e51b81526004016109209190613784565b60006121b5858585856121a48a612d71565b60fb546001600160a01b0316611fa6565b95945050505050565b600054610100900460ff166122295760405162461bcd60e51b815260206004820152602b60248201527f496e697469616c697a61626c653a20636f6e7472616374206973206e6f74206960448201526a6e697469616c697a696e6760a81b6064820152608401610920565b61172f81612d94565b600054610100900460ff166113fa5760405162461bcd60e51b815260206004820152602b60248201527f496e697469616c697a61626c653a20636f6e7472616374206973206e6f74206960448201526a6e697469616c697a696e6760a81b6064820152608401610920565b600054610100900460ff166123085760405162461bcd60e51b815260206004820152602b60248201527f496e697469616c697a61626c653a20636f6e7472616374206973206e6f74206960448201526a6e697469616c697a696e6760a81b6064820152608401610920565b612310612e08565b61231983610c82565b612322826109f2565b610bbb816120f7565b816001600160a01b0316836001600160a01b0316036123b25760405162461bcd60e51b815260206004820152602960248201527f455243313135353a2073657474696e6720617070726f76616c2073746174757360448201527f20666f722073656c6600000000000000000000000000000000000000000000006064820152608401610920565b6001600160a01b03838116600081815260666020908152604080832094871680845294825291829020805460ff191686151590811790915591519182527f17307eab39ab6107e8899845ad3d59bd9653f200f220920489ca2b5937696c31910160405180910390a3505050565b610d8561012d63ffffffff808516908490612e7b16565b6001600160a01b03841661249a5760405162461bcd60e51b815260206004820152602560248201527f455243313135353a207472616e7366657220746f20746865207a65726f206164604482015264647265737360d81b6064820152608401610920565b3360006124a685612609565b905060006124b385612609565b90506124c3838989858589612654565b60008681526065602090815260408083206001600160a01b038c168452909152902054858110156125495760405162461bcd60e51b815260206004820152602a60248201527f455243313135353a20696e73756666696369656e742062616c616e636520666f60448201526939103a3930b739b332b960b11b6064820152608401610920565b60008781526065602090815260408083206001600160a01b038d8116855292528083208985039055908a16825281208054889290612588908490614275565b909155505060408051888152602081018890526001600160a01b03808b16928c821692918816917fc3d58168c5ae7397731d063d5bbf3d657854427343f4c083240f7aacaa2d0f62910160405180910390a46125e8848a8a8a8a8a612763565b505050505050505050565b6000610bd8848461260387612d71565b85612e86565b60408051600180825281830190925260609160009190602080830190803683370190505090508281600081518110612643576126436141ac565b602090810291909101015292915050565b60005b8351816001600160801b03161015612754576001600160801b03801684826001600160801b03168151811061268e5761268e6141ac565b602002602001015111156126f45783816001600160801b0316815181106126b7576126b76141ac565b60200260200101516040517fcbaba7a300000000000000000000000000000000000000000000000000000000815260040161092091815260200190565b6001600160801b03801683826001600160801b031681518110612719576127196141ac565b602002602001015111156127425782816001600160801b0316815181106126b7576126b76141ac565b8061274c8161424a565b915050612657565b50611716868686868686612f1f565b6001600160a01b0384163b156117165760405163f23a6e6160e01b81526001600160a01b0385169063f23a6e61906127a790899089908890889088906004016143b3565b6020604051808303816000875af19250505080156127e2575060408051601f3d908101601f191682019092526127df918101906143f0565b60015b612897576127ee61440d565b806308c379a0036128275750612802614429565b8061280d5750612829565b8060405162461bcd60e51b81526004016109209190613784565b505b60405162461bcd60e51b815260206004820152603460248201527f455243313135353a207472616e7366657220746f206e6f6e2d4552433131353560448201527f526563656976657220696d706c656d656e7465720000000000000000000000006064820152608401610920565b6001600160e01b0319811663f23a6e6160e01b146115c25760405162461bcd60e51b815260206004820152602860248201527f455243313135353a204552433131353552656365697665722072656a656374656044820152676420746f6b656e7360c01b6064820152608401610920565b60008181526002830160205260408120548190806129375761292a858561309c565b925060009150611c2a9050565b600192509050611c2a565b6001600160a01b0384163b156117165760405163bc197c8160e01b81526001600160a01b0385169063bc197c819061298690899089908890889088906004016144a6565b6020604051808303816000875af19250505080156129c1575060408051601f3d908101601f191682019092526129be918101906143f0565b60015b6129cd576127ee61440d565b6001600160e01b0319811663bc197c8160e01b146115c25760405162461bcd60e51b815260206004820152602860248201527f455243313135353a204552433131353552656365697665722072656a656374656044820152676420746f6b656e7360c01b6064820152608401610920565b60606000612a4b836130a8565b90508067ffffffffffffffff811115612a6657612a6661382d565b604051908082528060200260200182016040528015612a8f578160200160208202803683370190505b50915060005b81811015611f5057612aa784826130b3565b60001c838281518110612abc57612abc6141ac565b6020908102919091010152600101612a95565b6060608082901c6001600160801b03831680612aeb33846108a6565b1015612b3c576040517f1f9843510000000000000000000000000000000000000000000000000000000081523360048201526001600160801b03808416602483015282166044820152606401610920565b612b5933836001600160801b0316836001600160801b03166130bf565b505060408051602081019091526000815292915050565b6060838383604051602001612b8793929190614509565b60405160208183030381529060405290509392505050565b600080612bab8761201f565b90507f00000000000000000000000000000000000000000000000000000000000000006001600160a01b03166310b83dc08789848989896040518763ffffffff1660e01b8152600401612c02959493929190614536565b60206040518083038185885af1158015612c20573d6000803e3d6000fd5b50505050506040513d601f19601f82011682018060405250810190610f0691906141dd565b6060612c568263ffffffff16613286565b604051602001612c669190614589565b6040516020818303038152906040529050919050565b6000612c8b60208284866145ce565b610b91916145f8565b6000612c8b6040602084866145ce565b366000611c2583604081876145ce565b60006001600160a01b03821115612d325760405162461bcd60e51b8152602060048201526024808201527f5479706543617374733a2062797465733332546f41646472657373206f76657260448201527f666c6f77000000000000000000000000000000000000000000000000000000006064820152608401610920565b5090565b604080516020810190915260008152608084901c906001600160801b0385169061171690879084908490611ae0565b6000610b918383613326565b63ffffffff81166000908152610160602052604090205460609061094e90613343565b600054610100900460ff16612dff5760405162461bcd60e51b815260206004820152602b60248201527f496e697469616c697a61626c653a20636f6e7472616374206973206e6f74206960448201526a6e697469616c697a696e6760a81b6064820152608401610920565b61172f81613361565b600054610100900460ff16612e735760405162461bcd60e51b815260206004820152602b60248201527f496e697469616c697a61626c653a20636f6e7472616374206973206e6f74206960448201526a6e697469616c697a696e6760a81b6064820152608401610920565b6113fa61336d565b6114518383836133e1565b600080612e928661201f565b6040517f81d2ea950000000000000000000000000000000000000000000000000000000081529091506001600160a01b037f000000000000000000000000000000000000000000000000000000000000000016906381d2ea9590612f0290899085908a908a908a90600401614536565b602060405180830381865afa1580156117ac573d6000803e3d6000fd5b6001600160a01b038516612f9d5760005b8351811015612f9b57828181518110612f4b57612f4b6141ac565b602002602001015160976000868481518110612f6957612f696141ac565b602002602001015181526020019081526020016000206000828254612f8e9190614275565b9091555050600101612f30565b505b6001600160a01b0384166117165760005b83518110156115c2576000848281518110612fcb57612fcb6141ac565b602002602001015190506000848381518110612fe957612fe96141ac565b60200260200101519050600060976000848152602001908152602001600020549050818110156130815760405162461bcd60e51b815260206004820152602860248201527f455243313135353a206275726e20616d6f756e74206578636565647320746f7460448201527f616c537570706c790000000000000000000000000000000000000000000000006064820152608401610920565b60009283526097602052604090922091039055600101612fae565b6000610b9183836133fe565b600061094e82613416565b6000610b918383613420565b6001600160a01b03831661313b5760405162461bcd60e51b815260206004820152602360248201527f455243313135353a206275726e2066726f6d20746865207a65726f206164647260448201527f65737300000000000000000000000000000000000000000000000000000000006064820152608401610920565b33600061314784612609565b9050600061315484612609565b905061317483876000858560405180602001604052806000815250612654565b60008581526065602090815260408083206001600160a01b038a1684529091529020548481101561320c5760405162461bcd60e51b8152602060048201526024808201527f455243313135353a206275726e20616d6f756e7420657863656564732062616c60448201527f616e6365000000000000000000000000000000000000000000000000000000006064820152608401610920565b60008681526065602090815260408083206001600160a01b038b81168086529184528285208a8703905582518b81529384018a90529092908816917fc3d58168c5ae7397731d063d5bbf3d657854427343f4c083240f7aacaa2d0f62910160405180910390a46040805160208101909152600090526115c2565b606060006132938361344a565b600101905060008167ffffffffffffffff8111156132b3576132b361382d565b6040519080825280601f01601f1916602001820160405280156132dd576020820181803683370190505b5090508181016020015b600019017f3031323334353637383961626364656600000000000000000000000000000000600a86061a8153600a85049450846132e757509392505050565b60008181526002830160205260408120819055610b91838361352c565b606061094e6000833360405180602001604052806000815250613538565b6067610d8582826142cf565b600054610100900460ff166133d85760405162461bcd60e51b815260206004820152602b60248201527f496e697469616c697a61626c653a20636f6e7472616374206973206e6f74206960448201526a6e697469616c697a696e6760a81b6064820152608401610920565b6113fa336120f7565b60008281526002840160205260408120829055610bd8848461356d565b60008181526001830160205260408120541515610b91565b600061094e825490565b6000826000018281548110613437576134376141ac565b9060005260206000200154905092915050565b6000807a184f03e93ff9f4daa797ed6e38ed64bf6a1f0100000000000000008310613493577a184f03e93ff9f4daa797ed6e38ed64bf6a1f010000000000000000830492506040015b6d04ee2d6d415b85acef810000000083106134bf576d04ee2d6d415b85acef8100000000830492506020015b662386f26fc1000083106134dd57662386f26fc10000830492506010015b6305f5e10083106134f5576305f5e100830492506008015b612710831061350957612710830492506004015b6064831061351b576064830492506002015b600a831061094e5760010192915050565b6000610b918383613579565b6060600185858585604051602001613554959493929190614616565b6040516020818303038152906040529050949350505050565b6000610b91838361366c565b6000818152600183016020526040812054801561366257600061359d600183614688565b85549091506000906135b190600190614688565b90508181146136165760008660000182815481106135d1576135d16141ac565b90600052602060002001549050808760000184815481106135f4576135f46141ac565b6000918252602080832090910192909255918252600188019052604090208390555b85548690806136275761362761469b565b60019003818190600052602060002001600090559055856001016000868152602001908152602001600020600090556001935050505061094e565b600091505061094e565b60008181526001830160205260408120546136b35750815460018181018455600084815260208082209093018490558454848252828601909352604090209190915561094e565b50600061094e565b80356001600160a01b03811681146136d257600080fd5b919050565b600080604083850312156136ea57600080fd5b6136f3836136bb565b946020939093013593505050565b6001600160e01b03198116811461172f57600080fd5b60006020828403121561372957600080fd5b8135610b9181613701565b60005b8381101561374f578181015183820152602001613737565b50506000910152565b60008151808452613770816020860160208601613734565b601f01601f19169290920160200192915050565b602081526000610b916020830184613758565b6000602082840312156137a957600080fd5b610b91826136bb565b6000602082840312156137c457600080fd5b5035919050565b6000806000606084860312156137e057600080fd5b6137e9846136bb565b95602085013595506040909401359392505050565b803563ffffffff811681146136d257600080fd5b60006020828403121561382457600080fd5b610b91826137fe565b634e487b7160e01b600052604160045260246000fd5b601f8201601f1916810167ffffffffffffffff811182821017156138695761386961382d565b6040525050565b600067ffffffffffffffff82111561388a5761388a61382d565b5060051b60200190565b600082601f8301126138a557600080fd5b81356138b081613870565b6040516138bd8282613843565b80915082815260208101915060208360051b8601019250858311156138e157600080fd5b602085015b838110156138fe5780358352602092830192016138e6565b5095945050505050565b600082601f83011261391957600080fd5b81356020830160008067ffffffffffffffff84111561393a5761393a61382d565b50604051601f8401601f1916602001906139548282613843565b80925084815287858501111561396957600080fd5b84846020830137600060208683010152809550505050505092915050565b600080600080600060a0868803121561399f57600080fd5b6139a8866136bb565b94506139b6602087016136bb565b9350604086013567ffffffffffffffff8111156139d257600080fd5b6139de88828901613894565b935050606086013567ffffffffffffffff8111156139fb57600080fd5b613a0788828901613894565b925050608086013567ffffffffffffffff811115613a2457600080fd5b613a3088828901613908565b9150509295509295909350565b602080825282518282018190526000918401906040840190835b81811015613a7b57835163ffffffff16835260209384019390920191600101613a57565b509095945050505050565b60008060408385031215613a9957600080fd5b6136f3836137fe565b60008060408385031215613ab557600080fd5b823567ffffffffffffffff811115613acc57600080fd5b8301601f81018513613add57600080fd5b8035613ae881613870565b604051613af58282613843565b80915082815260208101915060208360051b850101925087831115613b1957600080fd5b6020840193505b82841015613b4257613b31846136bb565b825260209384019390910190613b20565b9450505050602083013567ffffffffffffffff811115613b6157600080fd5b613b6d85828601613894565b9150509250929050565b600081518084526020840193506020830160005b82811015613ba9578151865260209586019590910190600101613b8b565b5093949350505050565b602081526000610b916020830184613b77565b60008083601f840112613bd857600080fd5b50813567ffffffffffffffff811115613bf057600080fd5b602083019150836020828501011115611c2a57600080fd5b60008060008060008060a08789031215613c2157600080fd5b613c2a876137fe565b95506020870135945060408701359350606087013567ffffffffffffffff811115613c5457600080fd5b613c6089828a01613bc6565b9094509250613c739050608088016136bb565b90509295509295509295565b60008060008060608587031215613c9557600080fd5b613c9e856137fe565b935060208501359250604085013567ffffffffffffffff811115613cc157600080fd5b613ccd87828801613bc6565b95989497509550505050565b60008083601f840112613ceb57600080fd5b50813567ffffffffffffffff811115613d0357600080fd5b6020830191508360208260051b8501011115611c2a57600080fd5b60008060008060008060808789031215613d3757600080fd5b613d40876137fe565b955060208701359450604087013567ffffffffffffffff811115613d6357600080fd5b613d6f89828a01613cd9565b909550935050606087013567ffffffffffffffff811115613d8f57600080fd5b613d9b89828a01613cd9565b979a9699509497509295939492505050565b600081518084526020840193506020830160005b82811015613ba95781516001600160801b0316865260209586019590910190600101613dc1565b604081526000613dfb6040830185613dad565b82810360208401526121b58185613dad565b60008060208385031215613e2057600080fd5b823567ffffffffffffffff811115613e3757600080fd5b613e4385828601613cd9565b90969095509350505050565b600080600060608486031215613e6457600080fd5b6137e9846137fe565b60008060008060008060c08789031215613e8657600080fd5b863567ffffffffffffffff811115613e9d57600080fd5b613ea989828a01613908565b965050602087013567ffffffffffffffff811115613ec657600080fd5b613ed289828a01613908565b955050604087013567ffffffffffffffff811115613eef57600080fd5b613efb89828a01613908565b945050613f0a606088016136bb565b9250613f18608088016136bb565b9150613c7360a088016136bb565b60008060408385031215613f3957600080fd5b613f42836136bb565b915060208301358015158114613f5757600080fd5b809150509250929050565b60008060208385031215613f7557600080fd5b823567ffffffffffffffff811115613f8c57600080fd5b8301601f81018513613f9d57600080fd5b803567ffffffffffffffff811115613fb457600080fd5b8560208260061b8401011115613fc957600080fd5b6020919091019590945092505050565b60008060008060408587031215613fef57600080fd5b843567ffffffffffffffff81111561400657600080fd5b61401287828801613cd9565b909550935050602085013567ffffffffffffffff81111561403257600080fd5b613ccd87828801613cd9565b6000806040838503121561405157600080fd5b61405a836136bb565b9150614068602084016136bb565b90509250929050565b80356001600160801b03811681146136d257600080fd5b6000806000806080858703121561409e57600080fd5b6140a7856137fe565b9350602085013592506140bc60408601614071565b91506140ca60608601614071565b905092959194509250565b600080600080600060a086880312156140ed57600080fd5b6140f6866136bb565b9450614104602087016136bb565b93506040860135925060608601359150608086013567ffffffffffffffff811115613a2457600080fd5b6000806040838503121561414157600080fd5b61414a83614071565b9150602083013567ffffffffffffffff81111561416657600080fd5b613b6d85828601613908565b600181811c9082168061418657607f821691505b6020821081036141a657634e487b7160e01b600052602260045260246000fd5b50919050565b634e487b7160e01b600052603260045260246000fd5b6000602082840312156141d457600080fd5b610b9182614071565b6000602082840312156141ef57600080fd5b5051919050565b634e487b7160e01b600052601160045260246000fd5b6001600160801b03828116828216039081111561094e5761094e6141f6565b6001600160801b03818116838216019081111561094e5761094e6141f6565b60006001600160801b0382166001600160801b03810361426c5761426c6141f6565b60010192915050565b8082018082111561094e5761094e6141f6565b601f821115610bbb57806000526020600020601f840160051c810160208510156142af5750805b601f840160051c820191505b81811015610c7b57600081556001016142bb565b815167ffffffffffffffff8111156142e9576142e961382d565b6142fd816142f78454614172565b84614288565b6020601f82116001811461433157600083156143195750848201515b600019600385901b1c1916600184901b178455610c7b565b600084815260208120601f198516915b828110156143615787850151825560209485019460019092019101614341565b508482101561437f5786840151600019600387901b60f8161c191681555b50505050600190811b01905550565b6040815260006143a16040830185613b77565b82810360208401526121b58185613b77565b6001600160a01b03861681526001600160a01b038516602082015283604082015282606082015260a060808201526000610f0660a0830184613758565b60006020828403121561440257600080fd5b8151610b9181613701565b600060033d11156144265760046000803e5060005160e01c5b90565b600060443d10156144375790565b6040513d600319016004823e80513d602482011167ffffffffffffffff8211171561446157505090565b808201805167ffffffffffffffff81111561447d575050505090565b3d8401600319018282016020011115614497575050505090565b610eb760208285010185613843565b6001600160a01b03861681526001600160a01b038516602082015260a0604082015260006144d760a0830186613b77565b82810360608401526144e98186613b77565b905082810360808401526144fd8185613758565b98975050505050505050565b83815282602082015260008251614527816040850160208701613734565b91909101604001949350505050565b63ffffffff8616815284602082015260a06040820152600061455b60a0830186613758565b828103606084015261456d8186613758565b9150506001600160a01b03831660808301529695505050505050565b7f4e6f20726f7574657220656e726f6c6c656420666f7220646f6d61696e3a20008152600082516145c181601f850160208701613734565b91909101601f0192915050565b600080858511156145de57600080fd5b838611156145eb57600080fd5b5050820193919092039150565b8035602083101561094e57600019602084900360031b1b1692915050565b7fffff0000000000000000000000000000000000000000000000000000000000008660f01b1681528460028201528360228201526bffffffffffffffffffffffff198360601b16604282015260008251614677816056850160208701613734565b919091016056019695505050505050565b8181038181111561094e5761094e6141f6565b634e487b7160e01b600052603160045260246000fdfea2646970667358221220770dc3b09448a07033cc12ad0a8e785444bdf333411c3be95e0b95b01197da2b64736f6c634300081c0033",
  "devdoc": {
    "details": "Compatible with existing Hyperlane protocol deployments by packing tokenId and amount into a single uint256. Uses standard TokenRouter interface without modifications. Limitation: Both tokenId and amount must be <= type(uint128).max",
    "events": {
      "ApprovalForAll(address,address,bool)": {
        "details": "Emitted when `account` grants or revokes permission to `operator` to transfer their tokens, according to `approved`."
      },
      "Initialized(uint8)": {
        "details": "Triggered when the contract has been initialized or reinitialized."
      },
      "ReceivedTransferRemote(uint32,bytes32,uint256)": {
        "details": "Emitted on `_handle` when a transfer message is processed.",
        "params": {
          "amount": "The amount of tokens minted on the destination chain.",
          "origin": "The identifier of the origin chain.",
          "recipient": "The address of the recipient on the destination chain."
        }
      },
      "SentTransferRemote(uint32,bytes32,uint256)": {
        "details": "Emitted on `transferRemote` when a transfer message is dispatched.",
        "params": {
          "amount": "The amount of tokens burnt on the origin chain.",
          "destination": "The identifier of the destination chain.",
          "recipient": "The address of the recipient on the destination chain."
        }
      },
      "TransferBatch(address,address,address,uint256[],uint256[])": {
        "details": "Equivalent to multiple {TransferSingle} events, where `operator`, `from` and `to` are the same for all transfers."
      },
      "TransferSingle(address,address,address,uint256,uint256)": {
        "details": "Emitted when `value` tokens of token type `id` are transferred from `from` to `to` by `operator`."
      },
      "URI(string,uint256)": {
        "details": "Emitted when the URI for token type `id` changes to `value`, if it is a non-programmatic URI. If an {URI} event was emitted for `id`, the standard https://eips.ethereum.org/EIPS/eip-1155#metadata-extensions[guarantees] that `value` will equal the value returned by {IERC1155MetadataURI-uri}."
      }
    },
    "kind": "dev",
    "methods": {
      "balanceOf(address,uint256)": {
        "details": "See {IERC1155-balanceOf}. Requirements: - `account` cannot be the zero address."
      },
      "balanceOfBatch(address[],uint256[])": {
        "details": "See {IERC1155-balanceOfBatch}. Requirements: - `accounts` and `ids` must have the same length."
      },
      "enrollRemoteRouter(uint32,bytes32)": {
        "params": {
          "_domain": "The domain of the remote Application Router",
          "_router": "The address of the remote Application Router"
        }
      },
      "enrollRemoteRouters(uint32[],bytes32[])": {
        "params": {
          "_addresses": "The addresses of the remote Application Routers",
          "_domains": "The domains of the remote Application Routers"
        }
      },
      "exists(uint256)": {
        "details": "Indicates whether any token exist with a given id, or not."
      },
      "handle(uint32,bytes32,bytes)": {
        "params": {
          "_message": "The message",
          "_origin": "The origin domain",
          "_sender": "The sender address"
        }
      },
      "isApprovedForAll(address,address)": {
        "details": "See {IERC1155-isApprovedForAll}."
      },
      "owner()": {
        "details": "Returns the address of the current owner."
      },
      "quoteGasPayment(uint32)": {
        "params": {
          "_destinationDomain": "The domain of the router."
        },
        "returns": {
          "_0": "_gasPayment Payment computed by the registered InterchainGasPaymaster."
        }
      },
      "renounceOwnership()": {
        "details": "Leaves the contract without owner. It will not be possible to call `onlyOwner` functions. Can only be called by the current owner. NOTE: Renouncing ownership will leave the contract without an owner, thereby disabling any functionality that is only available to the owner."
      },
      "routers(uint32)": {
        "details": "Returns 0 address if no router is enrolled for the given domain",
        "params": {
          "_domain": "The remote domain ID."
        },
        "returns": {
          "_0": "router The address of the Router contract for the given domain"
        }
      },
      "safeBatchTransferFrom(address,address,uint256[],uint256[],bytes)": {
        "details": "See {IERC1155-safeBatchTransferFrom}."
      },
      "safeTransferFrom(address,address,uint256,uint256,bytes)": {
        "details": "See {IERC1155-safeTransferFrom}."
      },
      "setApprovalForAll(address,bool)": {
        "details": "See {IERC1155-setApprovalForAll}."
      },
      "setDestinationGas((uint32,uint256)[])": {
        "params": {
          "gasConfigs": "The array of GasRouterConfig structs"
        }
      },
      "setDestinationGas(uint32,uint256)": {
        "params": {
          "domain": "The destination domain ID",
          "gas": "The gas limit"
        }
      },
      "setHook(address)": {
        "params": {
          "_hook": "The address of the hook contract."
        }
      },
      "setInterchainSecurityModule(address)": {
        "params": {
          "_module": "The address of the interchain security module contract."
        }
      },
      "supportsInterface(bytes4)": {
        "details": "See {IERC165-supportsInterface}."
      },
      "totalSupply(uint256)": {
        "details": "Total amount of tokens in with a given id."
      },
      "transferOwnership(address)": {
        "details": "Transfers ownership of the contract to a new account (`newOwner`). Can only be called by the current owner."
      },
      "transferRemote(uint32,bytes32,uint256)": {
        "details": "Delegates transfer logic to `_transferFromSender` implementation.Emits `SentTransferRemote` event on the origin chain.",
        "params": {
          "_amountOrId": "The amount or identifier of tokens to be sent to the remote recipient.",
          "_destination": "The identifier of the destination chain.",
          "_recipient": "The address of the recipient on the destination chain."
        },
        "returns": {
          "messageId": "The identifier of the dispatched message."
        }
      },
      "transferRemote(uint32,bytes32,uint256,bytes,address)": {
        "details": "Delegates transfer logic to `_transferFromSender` implementation.The metadata is the token metadata, and is DIFFERENT than the hook metadata.Emits `SentTransferRemote` event on the origin chain.",
        "params": {
          "_amountOrId": "The amount or identifier of tokens to be sent to the remote recipient.",
          "_destination": "The identifier of the destination chain.",
          "_hook": "The post dispatch hook to be called by the Mailbox",
          "_hookMetadata": "The metadata passed into the hook",
          "_recipient": "The address of the recipient on the destination chain."
        },
        "returns": {
          "messageId": "The identifier of the dispatched message."
        }
      },
      "unenrollRemoteRouter(uint32)": {
        "params": {
          "_domain": "The domain of the remote Application Router"
        }
      },
      "unenrollRemoteRouters(uint32[])": {
        "params": {
          "_domains": "The domains of the remote Application Routers"
        }
      }
    },
    "title": "Unofficial and UNAUDITED Hyperlane ERC1155 Token Router",
    "version": 1
  },
  "userdoc": {
    "kind": "user",
    "methods": {
      "enrollRemoteRouter(uint32,bytes32)": {
        "notice": "Register the address of a Router contract for the same Application on a remote chain"
      },
      "enrollRemoteRouters(uint32[],bytes32[])": {
        "notice": "Batch version of `enrollRemoteRouter`"
      },
      "handle(uint32,bytes32,bytes)": {
        "notice": "Handles an incoming message"
      },
      "quoteGasPayment(uint32)": {
        "notice": "Returns the gas payment required to dispatch a message to the given domain's router."
      },
      "routers(uint32)": {
        "notice": "Returns the address of the Router contract for the given domain"
      },
      "setDestinationGas((uint32,uint256)[])": {
        "notice": "Sets the gas amount dispatched for each configured domain."
      },
      "setDestinationGas(uint32,uint256)": {
        "notice": "Sets the gas amount dispatched for each configured domain."
      },
      "setHook(address)": {
        "notice": "Sets the address of the application's custom hook."
      },
      "setInterchainSecurityModule(address)": {
        "notice": "Sets the address of the application's custom interchain security module."
      },
      "transferRemote(uint32,bytes32,uint256)": {
        "notice": "Transfers `_amountOrId` token to `_recipient` on `_destination` domain."
      },
      "transferRemote(uint32,bytes32,uint256,bytes,address)": {
        "notice": "Transfers `_amountOrId` token to `_recipient` on `_destination` domain with a specified hook"
      },
      "unenrollRemoteRouter(uint32)": {
        "notice": "Unregister the domain"
      },
      "unenrollRemoteRouters(uint32[])": {
        "notice": "Batch version of `unenrollRemoteRouter`"
      }
    },
    "notice": "Enables cross-chain ERC1155 token transfers using Hyperlane's messaging protocol",
    "version": 1
  },
  "storageLayout": {
    "storage": [
      {
        "astId": 2935,
        "contract": "contracts/ExampleHypERC1155.sol:HypERC1155",
        "label": "_initialized",
        "offset": 0,
        "slot": "0",
        "type": "t_uint8"
      },
      {
        "astId": 2938,
        "contract": "contracts/ExampleHypERC1155.sol:HypERC1155",
        "label": "_initializing",
        "offset": 1,
        "slot": "0",
        "type": "t_bool"
      },
      {
        "astId": 7315,
        "contract": "contracts/ExampleHypERC1155.sol:HypERC1155",
        "label": "__gap",
        "offset": 0,
        "slot": "1",
        "type": "t_array(t_uint256)50_storage"
      },
      {
        "astId": 7589,
        "contract": "contracts/ExampleHypERC1155.sol:HypERC1155",
        "label": "__gap",
        "offset": 0,
        "slot": "51",
        "type": "t_array(t_uint256)50_storage"
      },
      {
        "astId": 3127,
        "contract": "contracts/ExampleHypERC1155.sol:HypERC1155",
        "label": "_balances",
        "offset": 0,
        "slot": "101",
        "type": "t_mapping(t_uint256,t_mapping(t_address,t_uint256))"
      },
      {
        "astId": 3133,
        "contract": "contracts/ExampleHypERC1155.sol:HypERC1155",
        "label": "_operatorApprovals",
        "offset": 0,
        "slot": "102",
        "type": "t_mapping(t_address,t_mapping(t_address,t_bool))"
      },
      {
        "astId": 3135,
        "contract": "contracts/ExampleHypERC1155.sol:HypERC1155",
        "label": "_uri",
        "offset": 0,
        "slot": "103",
        "type": "t_string_storage"
      },
      {
        "astId": 4342,
        "contract": "contracts/ExampleHypERC1155.sol:HypERC1155",
        "label": "__gap",
        "offset": 0,
        "slot": "104",
        "type": "t_array(t_uint256)47_storage"
      },
      {
        "astId": 4520,
        "contract": "contracts/ExampleHypERC1155.sol:HypERC1155",
        "label": "_totalSupply",
        "offset": 0,
        "slot": "151",
        "type": "t_mapping(t_uint256,t_uint256)"
      },
      {
        "astId": 4683,
        "contract": "contracts/ExampleHypERC1155.sol:HypERC1155",
        "label": "__gap",
        "offset": 0,
        "slot": "152",
        "type": "t_array(t_uint256)49_storage"
      },
      {
        "astId": 2807,
        "contract": "contracts/ExampleHypERC1155.sol:HypERC1155",
        "label": "_owner",
        "offset": 0,
        "slot": "201",
        "type": "t_address"
      },
      {
        "astId": 2927,
        "contract": "contracts/ExampleHypERC1155.sol:HypERC1155",
        "label": "__gap",
        "offset": 0,
        "slot": "202",
        "type": "t_array(t_uint256)49_storage"
      },
      {
        "astId": 227,
        "contract": "contracts/ExampleHypERC1155.sol:HypERC1155",
        "label": "hook",
        "offset": 0,
        "slot": "251",
        "type": "t_contract(IPostDispatchHook)1378"
      },
      {
        "astId": 230,
        "contract": "contracts/ExampleHypERC1155.sol:HypERC1155",
        "label": "interchainSecurityModule",
        "offset": 0,
        "slot": "252",
        "type": "t_contract(IInterchainSecurityModule)1143"
      },
      {
        "astId": 234,
        "contract": "contracts/ExampleHypERC1155.sol:HypERC1155",
        "label": "__GAP",
        "offset": 0,
        "slot": "253",
        "type": "t_array(t_uint256)48_storage"
      },
      {
        "astId": 438,
        "contract": "contracts/ExampleHypERC1155.sol:HypERC1155",
        "label": "_routers",
        "offset": 0,
        "slot": "301",
        "type": "t_struct(UintToBytes32Map)1394_storage"
      },
      {
        "astId": 442,
        "contract": "contracts/ExampleHypERC1155.sol:HypERC1155",
        "label": "__GAP",
        "offset": 0,
        "slot": "304",
        "type": "t_array(t_uint256)48_storage"
      },
      {
        "astId": 24,
        "contract": "contracts/ExampleHypERC1155.sol:HypERC1155",
        "label": "destinationGas",
        "offset": 0,
        "slot": "352",
        "type": "t_mapping(t_uint32,t_uint256)"
      },
      {
        "astId": 17512,
        "contract": "contracts/ExampleHypERC1155.sol:HypERC1155",
        "label": "_name",
        "offset": 0,
        "slot": "353",
        "type": "t_string_storage"
      },
      {
        "astId": 17514,
        "contract": "contracts/ExampleHypERC1155.sol:HypERC1155",
        "label": "_symbol",
        "offset": 0,
        "slot": "354",
        "type": "t_string_storage"
      },
      {
        "astId": 17518,
        "contract": "contracts/ExampleHypERC1155.sol:HypERC1155",
        "label": "_tokenURIs",
        "offset": 0,
        "slot": "355",
        "type": "t_mapping(t_uint256,t_string_storage)"
      }
    ],
    "types": {
      "t_address": {
        "encoding": "inplace",
        "label": "address",
        "numberOfBytes": "20"
      },
      "t_array(t_bytes32)dyn_storage": {
        "base": "t_bytes32",
        "encoding": "dynamic_array",
        "label": "bytes32[]",
        "numberOfBytes": "32"
      },
      "t_array(t_uint256)47_storage": {
        "base": "t_uint256",
        "encoding": "inplace",
        "label": "uint256[47]",
        "numberOfBytes": "1504"
      },
      "t_array(t_uint256)48_storage": {
        "base": "t_uint256",
        "encoding": "inplace",
        "label": "uint256[48]",
        "numberOfBytes": "1536"
      },
      "t_array(t_uint256)49_storage": {
        "base": "t_uint256",
        "encoding": "inplace",
        "label": "uint256[49]",
        "numberOfBytes": "1568"
      },
      "t_array(t_uint256)50_storage": {
        "base": "t_uint256",
        "encoding": "inplace",
        "label": "uint256[50]",
        "numberOfBytes": "1600"
      },
      "t_bool": {
        "encoding": "inplace",
        "label": "bool",
        "numberOfBytes": "1"
      },
      "t_bytes32": {
        "encoding": "inplace",
        "label": "bytes32",
        "numberOfBytes": "32"
      },
      "t_contract(IInterchainSecurityModule)1143": {
        "encoding": "inplace",
        "label": "contract IInterchainSecurityModule",
        "numberOfBytes": "20"
      },
      "t_contract(IPostDispatchHook)1378": {
        "encoding": "inplace",
        "label": "contract IPostDispatchHook",
        "numberOfBytes": "20"
      },
      "t_mapping(t_address,t_bool)": {
        "encoding": "mapping",
        "key": "t_address",
        "label": "mapping(address => bool)",
        "numberOfBytes": "32",
        "value": "t_bool"
      },
      "t_mapping(t_address,t_mapping(t_address,t_bool))": {
        "encoding": "mapping",
        "key": "t_address",
        "label": "mapping(address => mapping(address => bool))",
        "numberOfBytes": "32",
        "value": "t_mapping(t_address,t_bool)"
      },
      "t_mapping(t_address,t_uint256)": {
        "encoding": "mapping",
        "key": "t_address",
        "label": "mapping(address => uint256)",
        "numberOfBytes": "32",
        "value": "t_uint256"
      },
      "t_mapping(t_bytes32,t_bytes32)": {
        "encoding": "mapping",
        "key": "t_bytes32",
        "label": "mapping(bytes32 => bytes32)",
        "numberOfBytes": "32",
        "value": "t_bytes32"
      },
      "t_mapping(t_bytes32,t_uint256)": {
        "encoding": "mapping",
        "key": "t_bytes32",
        "label": "mapping(bytes32 => uint256)",
        "numberOfBytes": "32",
        "value": "t_uint256"
      },
      "t_mapping(t_uint256,t_mapping(t_address,t_uint256))": {
        "encoding": "mapping",
        "key": "t_uint256",
        "label": "mapping(uint256 => mapping(address => uint256))",
        "numberOfBytes": "32",
        "value": "t_mapping(t_address,t_uint256)"
      },
      "t_mapping(t_uint256,t_string_storage)": {
        "encoding": "mapping",
        "key": "t_uint256",
        "label": "mapping(uint256 => string)",
        "numberOfBytes": "32",
        "value": "t_string_storage"
      },
      "t_mapping(t_uint256,t_uint256)": {
        "encoding": "mapping",
        "key": "t_uint256",
        "label": "mapping(uint256 => uint256)",
        "numberOfBytes": "32",
        "value": "t_uint256"
      },
      "t_mapping(t_uint32,t_uint256)": {
        "encoding": "mapping",
        "key": "t_uint32",
        "label": "mapping(uint32 => uint256)",
        "numberOfBytes": "32",
        "value": "t_uint256"
      },
      "t_string_storage": {
        "encoding": "bytes",
        "label": "string",
        "numberOfBytes": "32"
      },
      "t_struct(Bytes32Set)17089_storage": {
        "encoding": "inplace",
        "label": "struct EnumerableSet.Bytes32Set",
        "members": [
          {
            "astId": 17088,
            "contract": "contracts/ExampleHypERC1155.sol:HypERC1155",
            "label": "_inner",
            "offset": 0,
            "slot": "0",
            "type": "t_struct(Set)16895_storage"
          }
        ],
        "numberOfBytes": "64"
      },
      "t_struct(Bytes32ToBytes32Map)15642_storage": {
        "encoding": "inplace",
        "label": "struct EnumerableMap.Bytes32ToBytes32Map",
        "members": [
          {
            "astId": 15637,
            "contract": "contracts/ExampleHypERC1155.sol:HypERC1155",
            "label": "_keys",
            "offset": 0,
            "slot": "0",
            "type": "t_struct(Bytes32Set)17089_storage"
          },
          {
            "astId": 15641,
            "contract": "contracts/ExampleHypERC1155.sol:HypERC1155",
            "label": "_values",
            "offset": 0,
            "slot": "2",
            "type": "t_mapping(t_bytes32,t_bytes32)"
          }
        ],
        "numberOfBytes": "96"
      },
      "t_struct(Set)16895_storage": {
        "encoding": "inplace",
        "label": "struct EnumerableSet.Set",
        "members": [
          {
            "astId": 16890,
            "contract": "contracts/ExampleHypERC1155.sol:HypERC1155",
            "label": "_values",
            "offset": 0,
            "slot": "0",
            "type": "t_array(t_bytes32)dyn_storage"
          },
          {
            "astId": 16894,
            "contract": "contracts/ExampleHypERC1155.sol:HypERC1155",
            "label": "_indexes",
            "offset": 0,
            "slot": "1",
            "type": "t_mapping(t_bytes32,t_uint256)"
          }
        ],
        "numberOfBytes": "64"
      },
      "t_struct(UintToBytes32Map)1394_storage": {
        "encoding": "inplace",
        "label": "struct EnumerableMapExtended.UintToBytes32Map",
        "members": [
          {
            "astId": 1393,
            "contract": "contracts/ExampleHypERC1155.sol:HypERC1155",
            "label": "_inner",
            "offset": 0,
            "slot": "0",
            "type": "t_struct(Bytes32ToBytes32Map)15642_storage"
          }
        ],
        "numberOfBytes": "96"
      },
      "t_uint256": {
        "encoding": "inplace",
        "label": "uint256",
        "numberOfBytes": "32"
      },
      "t_uint32": {
        "encoding": "inplace",
        "label": "uint32",
        "numberOfBytes": "4"
      },
      "t_uint8": {
        "encoding": "inplace",
        "label": "uint8",
        "numberOfBytes": "1"
      }
    }
  }
}