{
  "address": "0xd117Ee788E6e4BB24f65D744e009219861697D24",
  "abi": [
    {
      "inputs": [
        {
          "internalType": "uint8",
          "name": "_decimals",
          "type": "uint8"
        },
        {
          "internalType": "address",
          "name": "_mailbox",
          "type": "address"
        }
      ],
      "stateMutability": "nonpayable",
      "type": "constructor"
    },
    {
      "anonymous": false,
      "inputs": [
        {
          "indexed": true,
          "internalType": "address",
          "name": "owner",
          "type": "address"
        },
        {
          "indexed": true,
          "internalType": "address",
          "name": "spender",
          "type": "address"
        },
        {
          "indexed": false,
          "internalType": "uint256",
          "name": "value",
          "type": "uint256"
        }
      ],
      "name": "Approval",
      "type": "event"
    },
    {
      "anonymous": false,
      "inputs": [
        {
          "indexed": false,
          "internalType": "uint32",
          "name": "domain",
          "type": "uint32"
        },
        {
          "indexed": false,
          "internalType": "uint256",
          "name": "gas",
          "type": "uint256"
        }
      ],
      "name": "GasSet",
      "type": "event"
    },
    {
      "anonymous": false,
      "inputs": [
        {
          "indexed": false,
          "internalType": "address",
          "name": "_hook",
          "type": "address"
        }
      ],
      "name": "HookSet",
      "type": "event"
    },
    {
      "anonymous": false,
      "inputs": [
        {
          "indexed": false,
          "internalType": "uint8",
          "name": "version",
          "type": "uint8"
        }
      ],
      "name": "Initialized",
      "type": "event"
    },
    {
      "anonymous": false,
      "inputs": [
        {
          "indexed": false,
          "internalType": "address",
          "name": "_ism",
          "type": "address"
        }
      ],
      "name": "IsmSet",
      "type": "event"
    },
    {
      "anonymous": false,
      "inputs": [
        {
          "indexed": true,
          "internalType": "address",
          "name": "previousOwner",
          "type": "address"
        },
        {
          "indexed": true,
          "internalType": "address",
          "name": "newOwner",
          "type": "address"
        }
      ],
      "name": "OwnershipTransferred",
      "type": "event"
    },
    {
      "anonymous": false,
      "inputs": [
        {
          "indexed": true,
          "internalType": "uint32",
          "name": "origin",
          "type": "uint32"
        },
        {
          "indexed": true,
          "internalType": "bytes32",
          "name": "recipient",
          "type": "bytes32"
        },
        {
          "indexed": false,
          "internalType": "uint256",
          "name": "amount",
          "type": "uint256"
        }
      ],
      "name": "ReceivedTransferRemote",
      "type": "event"
    },
    {
      "anonymous": false,
      "inputs": [
        {
          "indexed": true,
          "internalType": "uint32",
          "name": "destination",
          "type": "uint32"
        },
        {
          "indexed": true,
          "internalType": "bytes32",
          "name": "recipient",
          "type": "bytes32"
        },
        {
          "indexed": false,
          "internalType": "uint256",
          "name": "amount",
          "type": "uint256"
        }
      ],
      "name": "SentTransferRemote",
      "type": "event"
    },
    {
      "anonymous": false,
      "inputs": [
        {
          "indexed": true,
          "internalType": "address",
          "name": "from",
          "type": "address"
        },
        {
          "indexed": true,
          "internalType": "address",
          "name": "to",
          "type": "address"
        },
        {
          "indexed": false,
          "internalType": "uint256",
          "name": "value",
          "type": "uint256"
        }
      ],
      "name": "Transfer",
      "type": "event"
    },
    {
      "inputs": [],
      "name": "PACKAGE_VERSION",
      "outputs": [
        {
          "internalType": "string",
          "name": "",
          "type": "string"
        }
      ],
      "stateMutability": "view",
      "type": "function"
    },
    {
      "inputs": [
        {
          "internalType": "address",
          "name": "owner",
          "type": "address"
        },
        {
          "internalType": "address",
          "name": "spender",
          "type": "address"
        }
      ],
      "name": "allowance",
      "outputs": [
        {
          "internalType": "uint256",
          "name": "",
          "type": "uint256"
        }
      ],
      "stateMutability": "view",
      "type": "function"
    },
    {
      "inputs": [
        {
          "internalType": "address",
          "name": "spender",
          "type": "address"
        },
        {
          "internalType": "uint256",
          "name": "amount",
          "type": "uint256"
        }
      ],
      "name": "approve",
      "outputs": [
        {
          "internalType": "bool",
          "name": "",
          "type": "bool"
        }
      ],
      "stateMutability": "nonpayable",
      "type": "function"
    },
    {
      "inputs": [
        {
          "internalType": "address",
          "name": "_account",
          "type": "address"
        }
      ],
      "name": "balanceOf",
      "outputs": [
        {
          "internalType": "uint256",
          "name": "",
          "type": "uint256"
        }
      ],
      "stateMutability": "view",
      "type": "function"
    },
    {
      "inputs": [],
      "name": "decimals",
      "outputs": [
        {
          "internalType": "uint8",
          "name": "",
          "type": "uint8"
        }
      ],
      "stateMutability": "view",
      "type": "function"
    },
    {
      "inputs": [
        {
          "internalType": "address",
          "name": "spender",
          "type": "address"
        },
        {
          "internalType": "uint256",
          "name": "subtractedValue",
          "type": "uint256"
        }
      ],
      "name": "decreaseAllowance",
      "outputs": [
        {
          "internalType": "bool",
          "name": "",
          "type": "bool"
        }
      ],
      "stateMutability": "nonpayable",
      "type": "function"
    },
    {
      "inputs": [
        {
          "internalType": "uint32",
          "name": "",
          "type": "uint32"
        }
      ],
      "name": "destinationGas",
      "outputs": [
        {
          "internalType": "uint256",
          "name": "",
          "type": "uint256"
        }
      ],
      "stateMutability": "view",
      "type": "function"
    },
    {
      "inputs": [],
      "name": "domains",
      "outputs": [
        {
          "internalType": "uint32[]",
          "name": "",
          "type": "uint32[]"
        }
      ],
      "stateMutability": "view",
      "type": "function"
    },
    {
      "inputs": [
        {
          "internalType": "uint32",
          "name": "_domain",
          "type": "uint32"
        },
        {
          "internalType": "bytes32",
          "name": "_router",
          "type": "bytes32"
        }
      ],
      "name": "enrollRemoteRouter",
      "outputs": [],
      "stateMutability": "nonpayable",
      "type": "function"
    },
    {
      "inputs": [
        {
          "internalType": "uint32[]",
          "name": "_domains",
          "type": "uint32[]"
        },
        {
          "internalType": "bytes32[]",
          "name": "_addresses",
          "type": "bytes32[]"
        }
      ],
      "name": "enrollRemoteRouters",
      "outputs": [],
      "stateMutability": "nonpayable",
      "type": "function"
    },
    {
      "inputs": [
        {
          "internalType": "uint32",
          "name": "_origin",
          "type": "uint32"
        },
        {
          "internalType": "bytes32",
          "name": "_sender",
          "type": "bytes32"
        },
        {
          "internalType": "bytes",
          "name": "_message",
          "type": "bytes"
        }
      ],
      "name": "handle",
      "outputs": [],
      "stateMutability": "payable",
      "type": "function"
    },
    {
      "inputs": [],
      "name": "hook",
      "outputs": [
        {
          "internalType": "contract IPostDispatchHook",
          "name": "",
          "type": "address"
        }
      ],
      "stateMutability": "view",
      "type": "function"
    },
    {
      "inputs": [
        {
          "internalType": "address",
          "name": "spender",
          "type": "address"
        },
        {
          "internalType": "uint256",
          "name": "addedValue",
          "type": "uint256"
        }
      ],
      "name": "increaseAllowance",
      "outputs": [
        {
          "internalType": "bool",
          "name": "",
          "type": "bool"
        }
      ],
      "stateMutability": "nonpayable",
      "type": "function"
    },
    {
      "inputs": [
        {
          "internalType": "uint256",
          "name": "_totalSupply",
          "type": "uint256"
        },
        {
          "internalType": "string",
          "name": "_name",
          "type": "string"
        },
        {
          "internalType": "string",
          "name": "_symbol",
          "type": "string"
        },
        {
          "internalType": "address",
          "name": "_hook",
          "type": "address"
        },
        {
          "internalType": "address",
          "name": "_interchainSecurityModule",
          "type": "address"
        },
        {
          "internalType": "address",
          "name": "_owner",
          "type": "address"
        }
      ],
      "name": "initialize",
      "outputs": [],
      "stateMutability": "nonpayable",
      "type": "function"
    },
    {
      "inputs": [],
      "name": "interchainSecurityModule",
      "outputs": [
        {
          "internalType": "contract IInterchainSecurityModule",
          "name": "",
          "type": "address"
        }
      ],
      "stateMutability": "view",
      "type": "function"
    },
    {
      "inputs": [],
      "name": "localDomain",
      "outputs": [
        {
          "internalType": "uint32",
          "name": "",
          "type": "uint32"
        }
      ],
      "stateMutability": "view",
      "type": "function"
    },
    {
      "inputs": [],
      "name": "mailbox",
      "outputs": [
        {
          "internalType": "contract IMailbox",
          "name": "",
          "type": "address"
        }
      ],
      "stateMutability": "view",
      "type": "function"
    },
    {
      "inputs": [
        {
          "internalType": "address",
          "name": "to",
          "type": "address"
        },
        {
          "internalType": "uint256",
          "name": "amount",
          "type": "uint256"
        }
      ],
      "name": "mint",
      "outputs": [],
      "stateMutability": "nonpayable",
      "type": "function"
    },
    {
      "inputs": [],
      "name": "name",
      "outputs": [
        {
          "internalType": "string",
          "name": "",
          "type": "string"
        }
      ],
      "stateMutability": "view",
      "type": "function"
    },
    {
      "inputs": [],
      "name": "owner",
      "outputs": [
        {
          "internalType": "address",
          "name": "",
          "type": "address"
        }
      ],
      "stateMutability": "view",
      "type": "function"
    },
    {
      "inputs": [
        {
          "internalType": "uint32",
          "name": "_destinationDomain",
          "type": "uint32"
        }
      ],
      "name": "quoteGasPayment",
      "outputs": [
        {
          "internalType": "uint256",
          "name": "",
          "type": "uint256"
        }
      ],
      "stateMutability": "view",
      "type": "function"
    },
    {
      "inputs": [],
      "name": "renounceOwnership",
      "outputs": [],
      "stateMutability": "nonpayable",
      "type": "function"
    },
    {
      "inputs": [
        {
          "internalType": "uint32",
          "name": "_domain",
          "type": "uint32"
        }
      ],
      "name": "routers",
      "outputs": [
        {
          "internalType": "bytes32",
          "name": "",
          "type": "bytes32"
        }
      ],
      "stateMutability": "view",
      "type": "function"
    },
    {
      "inputs": [
        {
          "internalType": "uint32",
          "name": "domain",
          "type": "uint32"
        },
        {
          "internalType": "uint256",
          "name": "gas",
          "type": "uint256"
        }
      ],
      "name": "setDestinationGas",
      "outputs": [],
      "stateMutability": "nonpayable",
      "type": "function"
    },
    {
      "inputs": [
        {
          "components": [
            {
              "internalType": "uint32",
              "name": "domain",
              "type": "uint32"
            },
            {
              "internalType": "uint256",
              "name": "gas",
              "type": "uint256"
            }
          ],
          "internalType": "struct GasRouter.GasRouterConfig[]",
          "name": "gasConfigs",
          "type": "tuple[]"
        }
      ],
      "name": "setDestinationGas",
      "outputs": [],
      "stateMutability": "nonpayable",
      "type": "function"
    },
    {
      "inputs": [
        {
          "internalType": "address",
          "name": "_hook",
          "type": "address"
        }
      ],
      "name": "setHook",
      "outputs": [],
      "stateMutability": "nonpayable",
      "type": "function"
    },
    {
      "inputs": [
        {
          "internalType": "address",
          "name": "_module",
          "type": "address"
        }
      ],
      "name": "setInterchainSecurityModule",
      "outputs": [],
      "stateMutability": "nonpayable",
      "type": "function"
    },
    {
      "inputs": [],
      "name": "symbol",
      "outputs": [
        {
          "internalType": "string",
          "name": "",
          "type": "string"
        }
      ],
      "stateMutability": "view",
      "type": "function"
    },
    {
      "inputs": [],
      "name": "totalSupply",
      "outputs": [
        {
          "internalType": "uint256",
          "name": "",
          "type": "uint256"
        }
      ],
      "stateMutability": "view",
      "type": "function"
    },
    {
      "inputs": [
        {
          "internalType": "address",
          "name": "to",
          "type": "address"
        },
        {
          "internalType": "uint256",
          "name": "amount",
          "type": "uint256"
        }
      ],
      "name": "transfer",
      "outputs": [
        {
          "internalType": "bool",
          "name": "",
          "type": "bool"
        }
      ],
      "stateMutability": "nonpayable",
      "type": "function"
    },
    {
      "inputs": [
        {
          "internalType": "address",
          "name": "from",
          "type": "address"
        },
        {
          "internalType": "address",
          "name": "to",
          "type": "address"
        },
        {
          "internalType": "uint256",
          "name": "amount",
          "type": "uint256"
        }
      ],
      "name": "transferFrom",
      "outputs": [
        {
          "internalType": "bool",
          "name": "",
          "type": "bool"
        }
      ],
      "stateMutability": "nonpayable",
      "type": "function"
    },
    {
      "inputs": [
        {
          "internalType": "address",
          "name": "newOwner",
          "type": "address"
        }
      ],
      "name": "transferOwnership",
      "outputs": [],
      "stateMutability": "nonpayable",
      "type": "function"
    },
    {
      "inputs": [
        {
          "internalType": "uint32",
          "name": "_destination",
          "type": "uint32"
        },
        {
          "internalType": "bytes32",
          "name": "_recipient",
          "type": "bytes32"
        },
        {
          "internalType": "uint256",
          "name": "_amountOrId",
          "type": "uint256"
        },
        {
          "internalType": "bytes",
          "name": "_hookMetadata",
          "type": "bytes"
        },
        {
          "internalType": "address",
          "name": "_hook",
          "type": "address"
        }
      ],
      "name": "transferRemote",
      "outputs": [
        {
          "internalType": "bytes32",
          "name": "messageId",
          "type": "bytes32"
        }
      ],
      "stateMutability": "payable",
      "type": "function"
    },
    {
      "inputs": [
        {
          "internalType": "uint32",
          "name": "_destination",
          "type": "uint32"
        },
        {
          "internalType": "bytes32",
          "name": "_recipient",
          "type": "bytes32"
        },
        {
          "internalType": "uint256",
          "name": "_amountOrId",
          "type": "uint256"
        }
      ],
      "name": "transferRemote",
      "outputs": [
        {
          "internalType": "bytes32",
          "name": "messageId",
          "type": "bytes32"
        }
      ],
      "stateMutability": "payable",
      "type": "function"
    },
    {
      "inputs": [
        {
          "internalType": "uint32",
          "name": "_domain",
          "type": "uint32"
        }
      ],
      "name": "unenrollRemoteRouter",
      "outputs": [],
      "stateMutability": "nonpayable",
      "type": "function"
    },
    {
      "inputs": [
        {
          "internalType": "uint32[]",
          "name": "_domains",
          "type": "uint32[]"
        }
      ],
      "name": "unenrollRemoteRouters",
      "outputs": [],
      "stateMutability": "nonpayable",
      "type": "function"
    }
  ],
  "transactionHash": "0xcbf76632dd28e91cb2074b1e00e42de165633a94405a319be6510841acdac8a5",
  "args": [
    18,
    "0xfFAEF09B3cd11D9b20d1a19bECca54EEC2884766"
  ],
  "numDeployments": 1,
  "solcInputHash": "f36596e87a50f6d6b3c1789aa64a9361",
  "bytecode": "0x60e06040523480156200001157600080fd5b5060405162002f1938038062002f19833981016040819052620000349162000185565b818180808080806001600160a01b0381163b620000975760405162461bcd60e51b815260206004820152601e60248201527f4d61696c626f78436c69656e743a20696e76616c6964206d61696c626f780000604482015260640160405180910390fd5b6001600160a01b03821660808190526040805163234d8e3d60e21b81529051638d3638f4916004808201926020929091908290030181865afa158015620000e2573d6000803e3d6000fd5b505050506040513d601f19601f82011682018060405250810190620001089190620001d4565b63ffffffff1660a0526200011c3362000133565b50505060ff90931660c05250620002039350505050565b606580546001600160a01b038381166001600160a01b0319831681179093556040519116919082907f8be0079c531659141344cd1fd0a4f28419497f9722a3daafe3b4186f6b6457e090600090a35050565b600080604083850312156200019957600080fd5b825160ff81168114620001ab57600080fd5b60208401519092506001600160a01b0381168114620001c957600080fd5b809150509250929050565b600060208284031215620001e757600080fd5b815163ffffffff81168114620001fc57600080fd5b9392505050565b60805160a05160c051612cd16200024860003960006103440152600061051501526000818161065a01528181610b0901528181611af80152611dcd0152612cd16000f3fe60806040526004361061024f5760003560e01c80637f5a7c7b11610138578063b49c53a7116100b0578063e80a7c791161007f578063efae508a11610064578063efae508a14610722578063f2ed8c5314610742578063f2fde38b1461076257600080fd5b8063e80a7c79146106e2578063e9198bf91461070257600080fd5b8063b49c53a714610628578063d5438eae14610648578063dd62ed3e1461067c578063de523cf3146106c257600080fd5b806393c4484711610107578063a457c2d7116100ec578063a457c2d7146105c8578063a9059cbb146105e8578063b1bd64361461060857600080fd5b806393c448471461056a57806395d89b41146105b357600080fd5b80637f5a7c7b146104b857806381b4e8b4146104f05780638d3638f4146105035780638da5cb5b1461054c57600080fd5b806340c10f19116101cb57806356d5d4751161019a578063715018a61161017f578063715018a61461045657806371a15b381461046b578063775313a11461048b57600080fd5b806356d5d4751461042357806370a082311461043657600080fd5b806340c10f19146103ae578063440df4f4146103ce57806349d462ef146103f057806351debffc1461041057600080fd5b806323b872dd11610222578063313ce56711610207578063313ce56714610330578063395093511461036e5780633dfd38731461038e57600080fd5b806323b872dd146102f05780632ead72f61461031057600080fd5b806306fdde0314610254578063095ea7b31461027f5780630e72cc06146102af57806318160ddd146102d1575b600080fd5b34801561026057600080fd5b50610269610782565b6040516102769190612425565b60405180910390f35b34801561028b57600080fd5b5061029f61029a366004612454565b610814565b6040519015158152602001610276565b3480156102bb57600080fd5b506102cf6102ca36600461247e565b61082e565b005b3480156102dd57600080fd5b506035545b604051908152602001610276565b3480156102fc57600080fd5b5061029f61030b366004612499565b61091a565b34801561031c57600080fd5b506102e261032b3660046124e9565b61093e565b34801561033c57600080fd5b5060405160ff7f0000000000000000000000000000000000000000000000000000000000000000168152602001610276565b34801561037a57600080fd5b5061029f610389366004612454565b61095d565b34801561039a57600080fd5b506102cf6103a936600461247e565b61099c565b3480156103ba57600080fd5b506102cf6103c9366004612454565b610a7b565b3480156103da57600080fd5b506103e3610a89565b6040516102769190612504565b3480156103fc57600080fd5b506102cf61040b36600461254e565b610a9a565b6102e261041e3660046125ac565b610aac565b6102cf610431366004612623565b610afe565b34801561044257600080fd5b506102e261045136600461247e565b610c15565b34801561046257600080fd5b506102cf610c33565b34801561047757600080fd5b506102cf6104863660046126c2565b610c47565b34801561049757600080fd5b506102e26104a63660046124e9565b60fc6020526000908152604090205481565b3480156104c457600080fd5b506097546104d8906001600160a01b031681565b6040516001600160a01b039091168152602001610276565b6102e26104fe366004612704565b610ca2565b34801561050f57600080fd5b506105377f000000000000000000000000000000000000000000000000000000000000000081565b60405163ffffffff9091168152602001610276565b34801561055857600080fd5b506065546001600160a01b03166104d8565b34801561057657600080fd5b506102696040518060400160405280600581526020017f352e382e3300000000000000000000000000000000000000000000000000000081525081565b3480156105bf57600080fd5b50610269610cb0565b3480156105d457600080fd5b5061029f6105e3366004612454565b610cbf565b3480156105f457600080fd5b5061029f610603366004612454565b610d69565b34801561061457600080fd5b506102cf610623366004612737565b610d77565b34801561063457600080fd5b506102cf61064336600461254e565b610ded565b34801561065457600080fd5b506104d87f000000000000000000000000000000000000000000000000000000000000000081565b34801561068857600080fd5b506102e26106973660046127ac565b6001600160a01b03918216600090815260346020908152604080832093909416825291909152205490565b3480156106ce57600080fd5b506098546104d8906001600160a01b031681565b3480156106ee57600080fd5b506102cf6106fd366004612882565b610dff565b34801561070e57600080fd5b506102cf61071d366004612914565b610f3c565b34801561072e57600080fd5b506102cf61073d3660046124e9565b611001565b34801561074e57600080fd5b506102e261075d3660046124e9565b611015565b34801561076e57600080fd5b506102cf61077d36600461247e565b61103f565b60606036805461079190612974565b80601f01602080910402602001604051908101604052809291908181526020018280546107bd90612974565b801561080a5780601f106107df5761010080835404028352916020019161080a565b820191906000526020600020905b8154815290600101906020018083116107ed57829003601f168201915b5050505050905090565b6000336108228185856110cc565b60019150505b92915050565b806001600160a01b0381163b15158061084e57506001600160a01b038116155b6108af5760405162461bcd60e51b815260206004820152602760248201527f4d61696c626f78436c69656e743a20696e76616c696420636f6e74726163742060448201526673657474696e6760c81b60648201526084015b60405180910390fd5b6108b76111f0565b6098805473ffffffffffffffffffffffffffffffffffffffff19166001600160a01b0384169081179091556040519081527fc47cbcc588c67679e52261c45cc315e56562f8d0ccaba16facb9093ff9498799906020015b60405180910390a15050565b60003361092885828561124a565b6109338585856112d6565b506001949350505050565b60008061095560c963ffffffff808616906114b016565b949350505050565b3360008181526034602090815260408083206001600160a01b038716845290915281205490919061082290829086906109979087906129c4565b6110cc565b806001600160a01b0381163b1515806109bc57506001600160a01b038116155b610a185760405162461bcd60e51b815260206004820152602760248201527f4d61696c626f78436c69656e743a20696e76616c696420636f6e74726163742060448201526673657474696e6760c81b60648201526084016108a6565b610a206111f0565b6097805473ffffffffffffffffffffffffffffffffffffffff19166001600160a01b0384169081179091556040519081527f4eab7b127c764308788622363ad3e9532de3dfba7845bd4f84c125a22544255a9060200161090e565b610a8582826114c9565b5050565b6060610a9560c961158a565b905090565b610aa26111f0565b610a85828261163b565b6000610af38787873488888080601f0160208091040260200160405190810160405280939291908181526020018383808284376000920191909152508a9250611689915050565b979650505050505050565b336001600160a01b037f00000000000000000000000000000000000000000000000000000000000000001614610b805760405162461bcd60e51b815260206004820152602160248201527f4d61696c626f78436c69656e743a2073656e646572206e6f74206d61696c626f6044820152600f60fb1b60648201526084016108a6565b6000610b8b85611702565b9050838114610c025760405162461bcd60e51b815260206004820152602560248201527f456e726f6c6c656420726f7574657220646f6573206e6f74206d61746368207360448201527f656e64657200000000000000000000000000000000000000000000000000000060648201526084016108a6565b610c0e8585858561174d565b5050505050565b6001600160a01b038116600090815260336020526040812054610828565b610c3b6111f0565b610c4560006117d9565b565b610c4f6111f0565b8060005b81811015610c9c57610c8a848483818110610c7057610c706129d7565b9050602002016020810190610c8591906124e9565b611838565b610c956001826129c4565b9050610c53565b50505050565b600061095584848434611873565b60606037805461079190612974565b3360008181526034602090815260408083206001600160a01b038716845290915281205490919083811015610d5c5760405162461bcd60e51b815260206004820152602560248201527f45524332303a2064656372656173656420616c6c6f77616e63652062656c6f7760448201527f207a65726f00000000000000000000000000000000000000000000000000000060648201526084016108a6565b61093382868684036110cc565b6000336108228185856112d6565b610d7f6111f0565b60005b81811015610de857610dd6838383818110610d9f57610d9f6129d7565b610db592602060409092020190810191506124e9565b848484818110610dc757610dc76129d7565b9050604002016020013561163b565b610de16001826129c4565b9050610d82565b505050565b610df56111f0565b610a85828261189f565b600054610100900460ff1615808015610e1f5750600054600160ff909116105b80610e395750303b158015610e39575060005460ff166001145b610eab5760405162461bcd60e51b815260206004820152602e60248201527f496e697469616c697a61626c653a20636f6e747261637420697320616c72656160448201527f647920696e697469616c697a656400000000000000000000000000000000000060648201526084016108a6565b6000805460ff191660011790558015610ece576000805461ff0019166101001790555b610ed886866118b5565b610ee233886114c9565b610eed84848461192a565b8015610f33576000805461ff0019169055604051600181527f7f26b83ff96e1f2b6a682f133852f6798a09c465da95921460cefb38474024989060200160405180910390a15b50505050505050565b610f446111f0565b828114610f935760405162461bcd60e51b815260206004820152600760248201527f216c656e6774680000000000000000000000000000000000000000000000000060448201526064016108a6565b8260005b81811015610ff957610fe7868683818110610fb457610fb46129d7565b9050602002016020810190610fc991906124e9565b858584818110610fdb57610fdb6129d7565b9050602002013561189f565b610ff26001826129c4565b9050610f97565b505050505050565b6110096111f0565b61101281611838565b50565b604080516020810190915260008082526097549091610828918491906001600160a01b03166119b8565b6110476111f0565b6001600160a01b0381166110c35760405162461bcd60e51b815260206004820152602660248201527f4f776e61626c653a206e6577206f776e657220697320746865207a65726f206160448201527f646472657373000000000000000000000000000000000000000000000000000060648201526084016108a6565b611012816117d9565b6001600160a01b03831661112e5760405162461bcd60e51b8152602060048201526024808201527f45524332303a20617070726f76652066726f6d20746865207a65726f206164646044820152637265737360e01b60648201526084016108a6565b6001600160a01b03821661118f5760405162461bcd60e51b815260206004820152602260248201527f45524332303a20617070726f766520746f20746865207a65726f206164647265604482015261737360f01b60648201526084016108a6565b6001600160a01b0383811660008181526034602090815260408083209487168084529482529182902085905590518481527f8c5be1e5ebec7d5bd14f71427d1e84f3dd0314c0f7b2291e5b200ac8c7c3b925910160405180910390a3505050565b6065546001600160a01b03163314610c455760405162461bcd60e51b815260206004820181905260248201527f4f776e61626c653a2063616c6c6572206973206e6f7420746865206f776e657260448201526064016108a6565b6001600160a01b038381166000908152603460209081526040808320938616835292905220546000198114610c9c57818110156112c95760405162461bcd60e51b815260206004820152601d60248201527f45524332303a20696e73756666696369656e7420616c6c6f77616e636500000060448201526064016108a6565b610c9c84848484036110cc565b6001600160a01b0383166113525760405162461bcd60e51b815260206004820152602560248201527f45524332303a207472616e736665722066726f6d20746865207a65726f20616460448201527f647265737300000000000000000000000000000000000000000000000000000060648201526084016108a6565b6001600160a01b0382166113b45760405162461bcd60e51b815260206004820152602360248201527f45524332303a207472616e7366657220746f20746865207a65726f206164647260448201526265737360e81b60648201526084016108a6565b6001600160a01b038316600090815260336020526040902054818110156114435760405162461bcd60e51b815260206004820152602660248201527f45524332303a207472616e7366657220616d6f756e742065786365656473206260448201527f616c616e6365000000000000000000000000000000000000000000000000000060648201526084016108a6565b6001600160a01b0380851660008181526033602052604080822086860390559286168082529083902080548601905591517fddf252ad1be2c89b69c2b068fc378daa952ba7f163c4a11628f55a4df523b3ef906114a39086815260200190565b60405180910390a3610c9c565b6000806114bd84846119ce565b915091505b9250929050565b6001600160a01b03821661151f5760405162461bcd60e51b815260206004820152601f60248201527f45524332303a206d696e7420746f20746865207a65726f20616464726573730060448201526064016108a6565b806035600082825461153191906129c4565b90915550506001600160a01b0382166000818152603360209081526040808320805486019055518481527fddf252ad1be2c89b69c2b068fc378daa952ba7f163c4a11628f55a4df523b3ef910160405180910390a35050565b6060600061159783611a08565b9050805167ffffffffffffffff8111156115b3576115b36127df565b6040519080825280602002602001820160405280156115dc578160200160208202803683370190505b50915060005b8151811015611634578181815181106115fd576115fd6129d7565b6020026020010151838281518110611617576116176129d7565b63ffffffff909216602092830291909101909101526001016115e2565b5050919050565b63ffffffff8216600081815260fc6020908152604091829020849055815192835282018390527fc3de732a98b24a2b5c6f67e8a7fb057ffc14046b83968a2c73e4148d2fba978b910161090e565b60008061169586611a99565b905060006116a4888884611ab9565b90506116b38987838888611ae8565b9250878963ffffffff167fd229aacb94204188fe8042965fa6b269c62dc5818b21238779ab64bdd17efeec896040516116ee91815260200190565b60405180910390a350509695505050505050565b6000808061171a60c963ffffffff808716906114b016565b91509150811561172b579392505050565b61173484611b8e565b60405162461bcd60e51b81526004016108a69190612425565b60006117598383611bc5565b905060006117678484611be4565b90503660006117768686611bf4565b9150915061178e61178685611c04565b848484611c6d565b838863ffffffff167fba20947a325f450d232530e5f5fce293e7963499d5309a07cee84a269f2f15a6856040516117c791815260200190565b60405180910390a35050505050505050565b606580546001600160a01b0383811673ffffffffffffffffffffffffffffffffffffffff19831681179093556040519116919082907f8be0079c531659141344cd1fd0a4f28419497f9722a3daafe3b4186f6b6457e090600090a35050565b61184c60c963ffffffff80841690611c7716565b61185582611b8e565b90610a855760405162461bcd60e51b81526004016108a69190612425565b6000611896858585856118858a611c83565b6097546001600160a01b0316611689565b95945050505050565b610a8560c963ffffffff808516908490611ca516565b600054610100900460ff166119205760405162461bcd60e51b815260206004820152602b60248201527f496e697469616c697a61626c653a20636f6e7472616374206973206e6f74206960448201526a6e697469616c697a696e6760a81b60648201526084016108a6565b610a858282611cb0565b600054610100900460ff166119955760405162461bcd60e51b815260206004820152602b60248201527f496e697469616c697a61626c653a20636f6e7472616374206973206e6f74206960448201526a6e697469616c697a696e6760a81b60648201526084016108a6565b61199d611d34565b6119a68361099c565b6119af8261082e565b610de8816117d9565b600061095584846119c887611c83565b85611da7565b60008181526002830160205260408120548190806119fd576119f08585611e55565b9250600091506114c29050565b6001925090506114c2565b60606000611a1583611e61565b90508067ffffffffffffffff811115611a3057611a306127df565b604051908082528060200260200182016040528015611a59578160200160208202803683370190505b50915060005b8181101561163457611a718482611e6c565b60001c838281518110611a8657611a866129d7565b6020908102919091010152600101611a5f565b6060611aa53383611e78565b505060408051602081019091526000815290565b6060838383604051602001611ad0939291906129ed565b60405160208183030381529060405290509392505050565b600080611af487611702565b90507f00000000000000000000000000000000000000000000000000000000000000006001600160a01b03166310b83dc08789848989896040518763ffffffff1660e01b8152600401611b4b959493929190612a1a565b60206040518083038185885af1158015611b69573d6000803e3d6000fd5b50505050506040513d601f19601f82011682018060405250810190610af39190612a6d565b6060611b9f8263ffffffff16611fac565b604051602001611baf9190612a86565b6040516020818303038152906040529050919050565b6000611bd46020828486612acb565b611bdd91612af5565b9392505050565b6000611bd4604060208486612acb565b3660006114bd8360408187612acb565b60006001600160a01b03821115611c695760405162461bcd60e51b8152602060048201526024808201527f5479706543617374733a2062797465733332546f41646472657373206f766572604482015263666c6f7760e01b60648201526084016108a6565b5090565b610c9c84846114c9565b6000611bdd838361204c565b63ffffffff8116600090815260fc602052604090205460609061082890612069565b610c9c838383612087565b600054610100900460ff16611d1b5760405162461bcd60e51b815260206004820152602b60248201527f496e697469616c697a61626c653a20636f6e7472616374206973206e6f74206960448201526a6e697469616c697a696e6760a81b60648201526084016108a6565b6036611d278382612b5b565b506037610de88282612b5b565b600054610100900460ff16611d9f5760405162461bcd60e51b815260206004820152602b60248201527f496e697469616c697a61626c653a20636f6e7472616374206973206e6f74206960448201526a6e697469616c697a696e6760a81b60648201526084016108a6565b610c456120a4565b600080611db386611702565b6040516381d2ea9560e01b81529091506001600160a01b037f000000000000000000000000000000000000000000000000000000000000000016906381d2ea9590611e0a90899085908a908a908a90600401612a1a565b602060405180830381865afa158015611e27573d6000803e3d6000fd5b505050506040513d601f19601f82011682018060405250810190611e4b9190612a6d565b9695505050505050565b6000611bdd8383612118565b600061082882612130565b6000611bdd838361213a565b6001600160a01b038216611ed85760405162461bcd60e51b815260206004820152602160248201527f45524332303a206275726e2066726f6d20746865207a65726f206164647265736044820152607360f81b60648201526084016108a6565b6001600160a01b03821660009081526033602052604090205481811015611f4c5760405162461bcd60e51b815260206004820152602260248201527f45524332303a206275726e20616d6f756e7420657863656564732062616c616e604482015261636560f01b60648201526084016108a6565b6001600160a01b03831660008181526033602090815260408083208686039055603580548790039055518581529192917fddf252ad1be2c89b69c2b068fc378daa952ba7f163c4a11628f55a4df523b3ef910160405180910390a3505050565b60606000611fb983612164565b600101905060008167ffffffffffffffff811115611fd957611fd96127df565b6040519080825280601f01601f191660200182016040528015612003576020820181803683370190505b5090508181016020015b600019017f3031323334353637383961626364656600000000000000000000000000000000600a86061a8153600a850494508461200d57509392505050565b60008181526002830160205260408120819055611bdd8383612246565b60606108286000833360405180602001604052806000815250612252565b600082815260028401602052604081208290556109558484612287565b600054610100900460ff1661210f5760405162461bcd60e51b815260206004820152602b60248201527f496e697469616c697a61626c653a20636f6e7472616374206973206e6f74206960448201526a6e697469616c697a696e6760a81b60648201526084016108a6565b610c45336117d9565b60008181526001830160205260408120541515611bdd565b6000610828825490565b6000826000018281548110612151576121516129d7565b9060005260206000200154905092915050565b6000807a184f03e93ff9f4daa797ed6e38ed64bf6a1f01000000000000000083106121ad577a184f03e93ff9f4daa797ed6e38ed64bf6a1f010000000000000000830492506040015b6d04ee2d6d415b85acef810000000083106121d9576d04ee2d6d415b85acef8100000000830492506020015b662386f26fc1000083106121f757662386f26fc10000830492506010015b6305f5e100831061220f576305f5e100830492506008015b612710831061222357612710830492506004015b60648310612235576064830492506002015b600a83106108285760010192915050565b6000611bdd8383612293565b606060018585858560405160200161226e959493929190612c1b565b6040516020818303038152906040529050949350505050565b6000611bdd8383612386565b6000818152600183016020526040812054801561237c5760006122b7600183612c72565b85549091506000906122cb90600190612c72565b90508181146123305760008660000182815481106122eb576122eb6129d7565b906000526020600020015490508087600001848154811061230e5761230e6129d7565b6000918252602080832090910192909255918252600188019052604090208390555b855486908061234157612341612c85565b600190038181906000526020600020016000905590558560010160008681526020019081526020016000206000905560019350505050610828565b6000915050610828565b60008181526001830160205260408120546123cd57508154600181810184556000848152602080822090930184905584548482528286019093526040902091909155610828565b506000610828565b60005b838110156123f05781810151838201526020016123d8565b50506000910152565b600081518084526124118160208601602086016123d5565b601f01601f19169290920160200192915050565b602081526000611bdd60208301846123f9565b80356001600160a01b038116811461244f57600080fd5b919050565b6000806040838503121561246757600080fd5b61247083612438565b946020939093013593505050565b60006020828403121561249057600080fd5b611bdd82612438565b6000806000606084860312156124ae57600080fd5b6124b784612438565b92506124c560208501612438565b9150604084013590509250925092565b803563ffffffff8116811461244f57600080fd5b6000602082840312156124fb57600080fd5b611bdd826124d5565b6020808252825182820181905260009190848201906040850190845b8181101561254257835163ffffffff1683529284019291840191600101612520565b50909695505050505050565b6000806040838503121561256157600080fd5b612470836124d5565b60008083601f84011261257c57600080fd5b50813567ffffffffffffffff81111561259457600080fd5b6020830191508360208285010111156114c257600080fd5b60008060008060008060a087890312156125c557600080fd5b6125ce876124d5565b95506020870135945060408701359350606087013567ffffffffffffffff8111156125f857600080fd5b61260489828a0161256a565b9094509250612617905060808801612438565b90509295509295509295565b6000806000806060858703121561263957600080fd5b612642856124d5565b935060208501359250604085013567ffffffffffffffff81111561266557600080fd5b6126718782880161256a565b95989497509550505050565b60008083601f84011261268f57600080fd5b50813567ffffffffffffffff8111156126a757600080fd5b6020830191508360208260051b85010111156114c257600080fd5b600080602083850312156126d557600080fd5b823567ffffffffffffffff8111156126ec57600080fd5b6126f88582860161267d565b90969095509350505050565b60008060006060848603121561271957600080fd5b612722846124d5565b95602085013595506040909401359392505050565b6000806020838503121561274a57600080fd5b823567ffffffffffffffff8082111561276257600080fd5b818501915085601f83011261277657600080fd5b81358181111561278557600080fd5b8660208260061b850101111561279a57600080fd5b60209290920196919550909350505050565b600080604083850312156127bf57600080fd5b6127c883612438565b91506127d660208401612438565b90509250929050565b634e487b7160e01b600052604160045260246000fd5b600082601f83011261280657600080fd5b813567ffffffffffffffff80821115612821576128216127df565b604051601f8301601f19908116603f01168101908282118183101715612849576128496127df565b8160405283815286602085880101111561286257600080fd5b836020870160208301376000602085830101528094505050505092915050565b60008060008060008060c0878903121561289b57600080fd5b86359550602087013567ffffffffffffffff808211156128ba57600080fd5b6128c68a838b016127f5565b965060408901359150808211156128dc57600080fd5b506128e989828a016127f5565b9450506128f860608801612438565b925061290660808801612438565b915061261760a08801612438565b6000806000806040858703121561292a57600080fd5b843567ffffffffffffffff8082111561294257600080fd5b61294e8883890161267d565b9096509450602087013591508082111561296757600080fd5b506126718782880161267d565b600181811c9082168061298857607f821691505b6020821081036129a857634e487b7160e01b600052602260045260246000fd5b50919050565b634e487b7160e01b600052601160045260246000fd5b80820180821115610828576108286129ae565b634e487b7160e01b600052603260045260246000fd5b83815282602082015260008251612a0b8160408501602087016123d5565b91909101604001949350505050565b63ffffffff8616815284602082015260a060408201526000612a3f60a08301866123f9565b8281036060840152612a5181866123f9565b9150506001600160a01b03831660808301529695505050505050565b600060208284031215612a7f57600080fd5b5051919050565b7f4e6f20726f7574657220656e726f6c6c656420666f7220646f6d61696e3a2000815260008251612abe81601f8501602087016123d5565b91909101601f0192915050565b60008085851115612adb57600080fd5b83861115612ae857600080fd5b5050820193919092039150565b8035602083101561082857600019602084900360031b1b1692915050565b601f821115610de8576000816000526020600020601f850160051c81016020861015612b3c5750805b601f850160051c820191505b81811015610ff957828155600101612b48565b815167ffffffffffffffff811115612b7557612b756127df565b612b8981612b838454612974565b84612b13565b602080601f831160018114612bbe5760008415612ba65750858301515b600019600386901b1c1916600185901b178555610ff9565b600085815260208120601f198616915b82811015612bed57888601518255948401946001909101908401612bce565b5085821015612c0b5787850151600019600388901b60f8161c191681555b5050505050600190811b01905550565b61ffff60f01b8660f01b1681528460028201528360228201526bffffffffffffffffffffffff198360601b16604282015260008251612c618160568501602087016123d5565b919091016056019695505050505050565b81810381811115610828576108286129ae565b634e487b7160e01b600052603160045260246000fdfea2646970667358221220b0a80ba6288d999c6dbcb80a0a9e10c61ee64771b5a2c9c7e1f35573c9af0cf564736f6c63430008170033",
  "devdoc": {
    "events": {
      "Approval(address,address,uint256)": {
        "details": "Emitted when the allowance of a `spender` for an `owner` is set by a call to {approve}. `value` is the new allowance."
      },
      "Initialized(uint8)": {
        "details": "Triggered when the contract has been initialized or reinitialized."
      },
      "ReceivedTransferRemote(uint32,bytes32,uint256)": {
        "details": "Emitted on `_handle` when a transfer message is processed.",
        "params": {
          "amount": "The amount of tokens minted on the destination chain.",
          "origin": "The identifier of the origin chain.",
          "recipient": "The address of the recipient on the destination chain."
        }
      },
      "SentTransferRemote(uint32,bytes32,uint256)": {
        "details": "Emitted on `transferRemote` when a transfer message is dispatched.",
        "params": {
          "amount": "The amount of tokens burnt on the origin chain.",
          "destination": "The identifier of the destination chain.",
          "recipient": "The address of the recipient on the destination chain."
        }
      },
      "Transfer(address,address,uint256)": {
        "details": "Emitted when `value` tokens are moved from one account (`from`) to another (`to`). Note that `value` may be zero."
      }
    },
    "kind": "dev",
    "methods": {
      "allowance(address,address)": {
        "details": "See {IERC20-allowance}."
      },
      "approve(address,uint256)": {
        "details": "See {IERC20-approve}. NOTE: If `amount` is the maximum `uint256`, the allowance is not updated on `transferFrom`. This is semantically equivalent to an infinite approval. Requirements: - `spender` cannot be the zero address."
      },
      "decimals()": {
        "details": "Returns the number of decimals used to get its user representation. For example, if `decimals` equals `2`, a balance of `505` tokens should be displayed to a user as `5.05` (`505 / 10 ** 2`). Tokens usually opt for a value of 18, imitating the relationship between Ether and Wei. This is the default value returned by this function, unless it's overridden. NOTE: This information is only used for _display_ purposes: it in no way affects any of the arithmetic of the contract, including {IERC20-balanceOf} and {IERC20-transfer}."
      },
      "decreaseAllowance(address,uint256)": {
        "details": "Atomically decreases the allowance granted to `spender` by the caller. This is an alternative to {approve} that can be used as a mitigation for problems described in {IERC20-approve}. Emits an {Approval} event indicating the updated allowance. Requirements: - `spender` cannot be the zero address. - `spender` must have allowance for the caller of at least `subtractedValue`."
      },
      "enrollRemoteRouter(uint32,bytes32)": {
        "params": {
          "_domain": "The domain of the remote Application Router",
          "_router": "The address of the remote Application Router"
        }
      },
      "enrollRemoteRouters(uint32[],bytes32[])": {
        "params": {
          "_addresses": "The addresses of the remote Application Routers",
          "_domains": "The domains of the remote Application Routers"
        }
      },
      "handle(uint32,bytes32,bytes)": {
        "params": {
          "_message": "The message",
          "_origin": "The origin domain",
          "_sender": "The sender address"
        }
      },
      "increaseAllowance(address,uint256)": {
        "details": "Atomically increases the allowance granted to `spender` by the caller. This is an alternative to {approve} that can be used as a mitigation for problems described in {IERC20-approve}. Emits an {Approval} event indicating the updated allowance. Requirements: - `spender` cannot be the zero address."
      },
      "initialize(uint256,string,string,address,address,address)": {
        "params": {
          "_name": "The name of the token.",
          "_symbol": "The symbol of the token.",
          "_totalSupply": "The initial supply of the token."
        }
      },
      "name()": {
        "details": "Returns the name of the token."
      },
      "owner()": {
        "details": "Returns the address of the current owner."
      },
      "quoteGasPayment(uint32)": {
        "params": {
          "_destinationDomain": "The domain of the router."
        },
        "returns": {
          "_0": "_gasPayment Payment computed by the registered InterchainGasPaymaster."
        }
      },
      "renounceOwnership()": {
        "details": "Leaves the contract without owner. It will not be possible to call `onlyOwner` functions. Can only be called by the current owner. NOTE: Renouncing ownership will leave the contract without an owner, thereby disabling any functionality that is only available to the owner."
      },
      "routers(uint32)": {
        "details": "Returns 0 address if no router is enrolled for the given domain",
        "params": {
          "_domain": "The remote domain ID."
        },
        "returns": {
          "_0": "router The address of the Router contract for the given domain"
        }
      },
      "setDestinationGas((uint32,uint256)[])": {
        "params": {
          "gasConfigs": "The array of GasRouterConfig structs"
        }
      },
      "setDestinationGas(uint32,uint256)": {
        "params": {
          "domain": "The destination domain ID",
          "gas": "The gas limit"
        }
      },
      "setHook(address)": {
        "params": {
          "_hook": "The address of the hook contract."
        }
      },
      "setInterchainSecurityModule(address)": {
        "params": {
          "_module": "The address of the interchain security module contract."
        }
      },
      "symbol()": {
        "details": "Returns the symbol of the token, usually a shorter version of the name."
      },
      "totalSupply()": {
        "details": "See {IERC20-totalSupply}."
      },
      "transfer(address,uint256)": {
        "details": "See {IERC20-transfer}. Requirements: - `to` cannot be the zero address. - the caller must have a balance of at least `amount`."
      },
      "transferFrom(address,address,uint256)": {
        "details": "See {IERC20-transferFrom}. Emits an {Approval} event indicating the updated allowance. This is not required by the EIP. See the note at the beginning of {ERC20}. NOTE: Does not update the allowance if the current allowance is the maximum `uint256`. Requirements: - `from` and `to` cannot be the zero address. - `from` must have a balance of at least `amount`. - the caller must have allowance for ``from``'s tokens of at least `amount`."
      },
      "transferOwnership(address)": {
        "details": "Transfers ownership of the contract to a new account (`newOwner`). Can only be called by the current owner."
      },
      "transferRemote(uint32,bytes32,uint256)": {
        "details": "Delegates transfer logic to `_transferFromSender` implementation.Emits `SentTransferRemote` event on the origin chain.",
        "params": {
          "_amountOrId": "The amount or identifier of tokens to be sent to the remote recipient.",
          "_destination": "The identifier of the destination chain.",
          "_recipient": "The address of the recipient on the destination chain."
        },
        "returns": {
          "messageId": "The identifier of the dispatched message."
        }
      },
      "transferRemote(uint32,bytes32,uint256,bytes,address)": {
        "details": "Delegates transfer logic to `_transferFromSender` implementation.The metadata is the token metadata, and is DIFFERENT than the hook metadata.Emits `SentTransferRemote` event on the origin chain.",
        "params": {
          "_amountOrId": "The amount or identifier of tokens to be sent to the remote recipient.",
          "_destination": "The identifier of the destination chain.",
          "_hook": "The post dispatch hook to be called by the Mailbox",
          "_hookMetadata": "The metadata passed into the hook",
          "_recipient": "The address of the recipient on the destination chain."
        },
        "returns": {
          "messageId": "The identifier of the dispatched message."
        }
      },
      "unenrollRemoteRouter(uint32)": {
        "params": {
          "_domain": "The domain of the remote Application Router"
        }
      },
      "unenrollRemoteRouters(uint32[])": {
        "params": {
          "_domains": "The domains of the remote Application Routers"
        }
      }
    },
    "version": 1
  },
  "userdoc": {
    "kind": "user",
    "methods": {
      "enrollRemoteRouter(uint32,bytes32)": {
        "notice": "Register the address of a Router contract for the same Application on a remote chain"
      },
      "enrollRemoteRouters(uint32[],bytes32[])": {
        "notice": "Batch version of `enrollRemoteRouter`"
      },
      "handle(uint32,bytes32,bytes)": {
        "notice": "Handles an incoming message"
      },
      "initialize(uint256,string,string,address,address,address)": {
        "notice": "Initializes the Hyperlane router, ERC20 metadata, and mints initial supply to deployer."
      },
      "quoteGasPayment(uint32)": {
        "notice": "Returns the gas payment required to dispatch a message to the given domain's router."
      },
      "routers(uint32)": {
        "notice": "Returns the address of the Router contract for the given domain"
      },
      "setDestinationGas((uint32,uint256)[])": {
        "notice": "Sets the gas amount dispatched for each configured domain."
      },
      "setDestinationGas(uint32,uint256)": {
        "notice": "Sets the gas amount dispatched for each configured domain."
      },
      "setHook(address)": {
        "notice": "Sets the address of the application's custom hook."
      },
      "setInterchainSecurityModule(address)": {
        "notice": "Sets the address of the application's custom interchain security module."
      },
      "transferRemote(uint32,bytes32,uint256)": {
        "notice": "Transfers `_amountOrId` token to `_recipient` on `_destination` domain."
      },
      "transferRemote(uint32,bytes32,uint256,bytes,address)": {
        "notice": "Transfers `_amountOrId` token to `_recipient` on `_destination` domain with a specified hook"
      },
      "unenrollRemoteRouter(uint32)": {
        "notice": "Unregister the domain"
      },
      "unenrollRemoteRouters(uint32[])": {
        "notice": "Batch version of `unenrollRemoteRouter`"
      }
    },
    "version": 1
  },
  "storageLayout": {
    "storage": [
      {
        "astId": 2935,
        "contract": "contracts/MyCustomHypERC20.sol:MyCustomHypERC20",
        "label": "_initialized",
        "offset": 0,
        "slot": "0",
        "type": "t_uint8"
      },
      {
        "astId": 2938,
        "contract": "contracts/MyCustomHypERC20.sol:MyCustomHypERC20",
        "label": "_initializing",
        "offset": 1,
        "slot": "0",
        "type": "t_bool"
      },
      {
        "astId": 7315,
        "contract": "contracts/MyCustomHypERC20.sol:MyCustomHypERC20",
        "label": "__gap",
        "offset": 0,
        "slot": "1",
        "type": "t_array(t_uint256)50_storage"
      },
      {
        "astId": 4719,
        "contract": "contracts/MyCustomHypERC20.sol:MyCustomHypERC20",
        "label": "_balances",
        "offset": 0,
        "slot": "51",
        "type": "t_mapping(t_address,t_uint256)"
      },
      {
        "astId": 4725,
        "contract": "contracts/MyCustomHypERC20.sol:MyCustomHypERC20",
        "label": "_allowances",
        "offset": 0,
        "slot": "52",
        "type": "t_mapping(t_address,t_mapping(t_address,t_uint256))"
      },
      {
        "astId": 4727,
        "contract": "contracts/MyCustomHypERC20.sol:MyCustomHypERC20",
        "label": "_totalSupply",
        "offset": 0,
        "slot": "53",
        "type": "t_uint256"
      },
      {
        "astId": 4729,
        "contract": "contracts/MyCustomHypERC20.sol:MyCustomHypERC20",
        "label": "_name",
        "offset": 0,
        "slot": "54",
        "type": "t_string_storage"
      },
      {
        "astId": 4731,
        "contract": "contracts/MyCustomHypERC20.sol:MyCustomHypERC20",
        "label": "_symbol",
        "offset": 0,
        "slot": "55",
        "type": "t_string_storage"
      },
      {
        "astId": 5311,
        "contract": "contracts/MyCustomHypERC20.sol:MyCustomHypERC20",
        "label": "__gap",
        "offset": 0,
        "slot": "56",
        "type": "t_array(t_uint256)45_storage"
      },
      {
        "astId": 2807,
        "contract": "contracts/MyCustomHypERC20.sol:MyCustomHypERC20",
        "label": "_owner",
        "offset": 0,
        "slot": "101",
        "type": "t_address"
      },
      {
        "astId": 2927,
        "contract": "contracts/MyCustomHypERC20.sol:MyCustomHypERC20",
        "label": "__gap",
        "offset": 0,
        "slot": "102",
        "type": "t_array(t_uint256)49_storage"
      },
      {
        "astId": 227,
        "contract": "contracts/MyCustomHypERC20.sol:MyCustomHypERC20",
        "label": "hook",
        "offset": 0,
        "slot": "151",
        "type": "t_contract(IPostDispatchHook)1378"
      },
      {
        "astId": 230,
        "contract": "contracts/MyCustomHypERC20.sol:MyCustomHypERC20",
        "label": "interchainSecurityModule",
        "offset": 0,
        "slot": "152",
        "type": "t_contract(IInterchainSecurityModule)1143"
      },
      {
        "astId": 234,
        "contract": "contracts/MyCustomHypERC20.sol:MyCustomHypERC20",
        "label": "__GAP",
        "offset": 0,
        "slot": "153",
        "type": "t_array(t_uint256)48_storage"
      },
      {
        "astId": 438,
        "contract": "contracts/MyCustomHypERC20.sol:MyCustomHypERC20",
        "label": "_routers",
        "offset": 0,
        "slot": "201",
        "type": "t_struct(UintToBytes32Map)1394_storage"
      },
      {
        "astId": 442,
        "contract": "contracts/MyCustomHypERC20.sol:MyCustomHypERC20",
        "label": "__GAP",
        "offset": 0,
        "slot": "204",
        "type": "t_array(t_uint256)48_storage"
      },
      {
        "astId": 24,
        "contract": "contracts/MyCustomHypERC20.sol:MyCustomHypERC20",
        "label": "destinationGas",
        "offset": 0,
        "slot": "252",
        "type": "t_mapping(t_uint32,t_uint256)"
      }
    ],
    "types": {
      "t_address": {
        "encoding": "inplace",
        "label": "address",
        "numberOfBytes": "20"
      },
      "t_array(t_bytes32)dyn_storage": {
        "base": "t_bytes32",
        "encoding": "dynamic_array",
        "label": "bytes32[]",
        "numberOfBytes": "32"
      },
      "t_array(t_uint256)45_storage": {
        "base": "t_uint256",
        "encoding": "inplace",
        "label": "uint256[45]",
        "numberOfBytes": "1440"
      },
      "t_array(t_uint256)48_storage": {
        "base": "t_uint256",
        "encoding": "inplace",
        "label": "uint256[48]",
        "numberOfBytes": "1536"
      },
      "t_array(t_uint256)49_storage": {
        "base": "t_uint256",
        "encoding": "inplace",
        "label": "uint256[49]",
        "numberOfBytes": "1568"
      },
      "t_array(t_uint256)50_storage": {
        "base": "t_uint256",
        "encoding": "inplace",
        "label": "uint256[50]",
        "numberOfBytes": "1600"
      },
      "t_bool": {
        "encoding": "inplace",
        "label": "bool",
        "numberOfBytes": "1"
      },
      "t_bytes32": {
        "encoding": "inplace",
        "label": "bytes32",
        "numberOfBytes": "32"
      },
      "t_contract(IInterchainSecurityModule)1143": {
        "encoding": "inplace",
        "label": "contract IInterchainSecurityModule",
        "numberOfBytes": "20"
      },
      "t_contract(IPostDispatchHook)1378": {
        "encoding": "inplace",
        "label": "contract IPostDispatchHook",
        "numberOfBytes": "20"
      },
      "t_mapping(t_address,t_mapping(t_address,t_uint256))": {
        "encoding": "mapping",
        "key": "t_address",
        "label": "mapping(address => mapping(address => uint256))",
        "numberOfBytes": "32",
        "value": "t_mapping(t_address,t_uint256)"
      },
      "t_mapping(t_address,t_uint256)": {
        "encoding": "mapping",
        "key": "t_address",
        "label": "mapping(address => uint256)",
        "numberOfBytes": "32",
        "value": "t_uint256"
      },
      "t_mapping(t_bytes32,t_bytes32)": {
        "encoding": "mapping",
        "key": "t_bytes32",
        "label": "mapping(bytes32 => bytes32)",
        "numberOfBytes": "32",
        "value": "t_bytes32"
      },
      "t_mapping(t_bytes32,t_uint256)": {
        "encoding": "mapping",
        "key": "t_bytes32",
        "label": "mapping(bytes32 => uint256)",
        "numberOfBytes": "32",
        "value": "t_uint256"
      },
      "t_mapping(t_uint32,t_uint256)": {
        "encoding": "mapping",
        "key": "t_uint32",
        "label": "mapping(uint32 => uint256)",
        "numberOfBytes": "32",
        "value": "t_uint256"
      },
      "t_string_storage": {
        "encoding": "bytes",
        "label": "string",
        "numberOfBytes": "32"
      },
      "t_struct(Bytes32Set)17089_storage": {
        "encoding": "inplace",
        "label": "struct EnumerableSet.Bytes32Set",
        "members": [
          {
            "astId": 17088,
            "contract": "contracts/MyCustomHypERC20.sol:MyCustomHypERC20",
            "label": "_inner",
            "offset": 0,
            "slot": "0",
            "type": "t_struct(Set)16895_storage"
          }
        ],
        "numberOfBytes": "64"
      },
      "t_struct(Bytes32ToBytes32Map)15642_storage": {
        "encoding": "inplace",
        "label": "struct EnumerableMap.Bytes32ToBytes32Map",
        "members": [
          {
            "astId": 15637,
            "contract": "contracts/MyCustomHypERC20.sol:MyCustomHypERC20",
            "label": "_keys",
            "offset": 0,
            "slot": "0",
            "type": "t_struct(Bytes32Set)17089_storage"
          },
          {
            "astId": 15641,
            "contract": "contracts/MyCustomHypERC20.sol:MyCustomHypERC20",
            "label": "_values",
            "offset": 0,
            "slot": "2",
            "type": "t_mapping(t_bytes32,t_bytes32)"
          }
        ],
        "numberOfBytes": "96"
      },
      "t_struct(Set)16895_storage": {
        "encoding": "inplace",
        "label": "struct EnumerableSet.Set",
        "members": [
          {
            "astId": 16890,
            "contract": "contracts/MyCustomHypERC20.sol:MyCustomHypERC20",
            "label": "_values",
            "offset": 0,
            "slot": "0",
            "type": "t_array(t_bytes32)dyn_storage"
          },
          {
            "astId": 16894,
            "contract": "contracts/MyCustomHypERC20.sol:MyCustomHypERC20",
            "label": "_indexes",
            "offset": 0,
            "slot": "1",
            "type": "t_mapping(t_bytes32,t_uint256)"
          }
        ],
        "numberOfBytes": "64"
      },
      "t_struct(UintToBytes32Map)1394_storage": {
        "encoding": "inplace",
        "label": "struct EnumerableMapExtended.UintToBytes32Map",
        "members": [
          {
            "astId": 1393,
            "contract": "contracts/MyCustomHypERC20.sol:MyCustomHypERC20",
            "label": "_inner",
            "offset": 0,
            "slot": "0",
            "type": "t_struct(Bytes32ToBytes32Map)15642_storage"
          }
        ],
        "numberOfBytes": "96"
      },
      "t_uint256": {
        "encoding": "inplace",
        "label": "uint256",
        "numberOfBytes": "32"
      },
      "t_uint32": {
        "encoding": "inplace",
        "label": "uint32",
        "numberOfBytes": "4"
      },
      "t_uint8": {
        "encoding": "inplace",
        "label": "uint8",
        "numberOfBytes": "1"
      }
    }
  }
}